:100000000C9457010C94381D0C94111D0C94EA1C8F
:100010000C94C31C0C947F010C947F010C949C1CC9
:100020000C947F010C947F010C94A7190C94101A66
:100030000C94771E0C947F010C947F010C947F012B
:100040000C947F010C947F010C947F010C947F0130
:100050000C947F010C947F010C947F010C94521C32
:100060000C947F010C947F010C947F010C947F0110
:100070000C947F010C947F010C947F010C947F0100
:100080000C947F010C947F010C947F010C947F01F0
:100090000C945F1D0C947F010C947F010C947F01E4
:1000A0000C947F010C947F010C947F0100407A1026
:1000B000F35A00A0724E18090010A5D4E80000E819
:1000C0007648170000E40B54020000CA9A3B000077
:1000D00000E1F505000080969800000040420F0006
:1000E0000000A08601000000102700000000E803C7
:1000F000000000006400000000000A000000000092
:100100000100000000002C76D888DC674F0823DF50
:10011000C1DFAE59E1B1B796E5E3E453C63AE65123
:10012000997696E8E6C28426EB898C9B62ED407C4A
:100130006FFCEFBC9C9F40F2BAA56FA5F490055AE6
:100140002AF75C936B6CF9676DC11BFCE0E40D470B
:10015000FEF520E6B500D0ED902E0300943577052E
:100160000080841E080000204E0A000000C80C33E6
:100170003333330F986E12831141EF8D2114893B75
:10018000E65516CFFEE6DB18D1844B381BF77C1DF5
:10019000901DA4BBE424203284725E228100C9F148
:1001A00024ECA1E53D27070605040100080A0B0C15
:1001B0000D097C3C3E5E2B3D3F2F5B5D3B2C2A2294
:1001C0005C0000000000250028002B002E003100FC
:1001D0000000000200090F0000030401000C0000F1
:1001E0000000000000000000000000000000000807
:1001F0000B000202020000090400000102020000DC
:10020000052400100105240101010424020605242F
:100210000600010705810310004009040100020ADD
:1002200000000007050202400000070583024000AD
:10023000000403090412010002EF0201409A230C9A
:1002400080000101020301416461667275697400F6
:1002500046656174686572203332753400000000B1
:1002600000240027002A002D00300004080201109D
:1002700040804010204080408008020401804020DF
:1002800010020110801020404020040404040403E4
:100290000405020202020403020202020606060626
:1002A000060604040202020404008E1ED92511244D
:1002B0001FBECFEFDAE0DEBFCDBF25E0A8EEB1E094
:1002C00001C01D92A338B207E1F711E0A0E0B1E050
:1002D000E8E2F9E502C005900D92A83EB107D9F712
:1002E00011E0C6E5D1E004C02197FE010E94362A44
:1002F000C535D107C9F70E94D61E0C94872C0C94E3
:1003000000009091CB048091CA042FEF3FEF981723
:1003100048F4E92FF0E0E655FB4F208130E09F5F85
:100320009093CB04C90108959091CB048091CA04A5
:100330002FEF3FEF981748F4E92FF0E0E655FB4F19
:10034000208130E09F5F9093CB04C9010895909184
:10035000A9049111FCCF91E09093A9049093A80473
:100360002FEF2093A7041092A604260F2093A50434
:100370009093A4049091A404880F892B8093A404E3
:100380008091A3048130D9F41092A3048091A40435
:100390008093BB0085EC8093BC008091A9048130E0
:1003A000E1F38091A604861710F46091A604A3E8F7
:1003B000B4E0EAEAF4E080E0861303C0089585EE35
:1003C000EACF9D9191938F5FF7CF0E94A701109282
:1003D000CB048093CA0408952091820481E02132E5
:1003E00008F040C08091A9048111FCCF8091810464
:1003F00092E09093A90491E09093A8049FEF9093CA
:10040000A7041092A6042093A504A1E6B4E0E3E8B3
:10041000F4E090E029132DC01092A4049091A4045C
:10042000880F892B8093A4048091A304813029F53F
:100430001092A3048091A4048093BB0085EC809368
:10044000BC008091A9048230E1F38091A7048F3F22
:10045000B1F08091A7048032A1F08091A70480338D
:1004600091F084E0109260041092820410925F0474
:1004700008953D9131939F5FCDCF85EEE0CF80E031
:10048000F1CF82E0EFCF83E0EDCF91E090935F0476
:10049000809381041092600410928204089561E0B8
:1004A00088E60E94A7011092CB048093CA040895A5
:1004B00090915C02911103C08FEF9FEF08954FB7A9
:1004C000F89492E09093E9009091F200292F30E0A7
:1004D0001216130614F421E030E0232B29F084E6F1
:1004E00080935B028091F100992339F02091F20012
:1004F000211103C02BE62093E8004FBF9923E1F2BE
:1005000090E008952FB7F89483E08093E9009091EC
:10051000E800892F807295FF04C09091F20080E47A
:10052000891B2FBF08958091530281110DC082E075
:1005300080934F0284E080935002109252021092F6
:10054000510281E0809353028FE492E008958091FC
:10055000CA049091CB04891B990B089508950895BE
:10056000089540913F025091400220913D02309108
:100570003E0242175307B4F49091E8009570E1F3FE
:100580009091E80092FD19C08093F10080913F02A4
:100590009091400201968F739927892B19F48EEF61
:1005A0008093E80080913F029091400201969093E1
:1005B000400280933F0281E0089580E00895EF9229
:1005C000FF920F931F93CF93DF93F82E192FE62EF0
:1005D000042F81E0860F880F0E94B10283E00E9401
:1005E000B102CF2DD12FEC0EFD2EF11CCE15DF0563
:1005F000B9F007FF13C0FE0184910E94B102182FC9
:1006000080E00E94B102812321968111EFCFDF911A
:10061000CF911F910F91FF90EF9008958881EDCFBA
:1006200081E0F5CFDF92EF92FF920F931F93CF936C
:10063000DF93D82E8A01EB017B01E40EF51ECE1567
:10064000DF0559F0D7FE12C0FE0184910E94B1026D
:1006500021968111F4CF0FEF1FEFC801DF91CF91E9
:100660001F910F91FF90EF90DF9008958881EECF5A
:100670000F931F93CF93DF931F92CDB7DEB782E026
:10068000898342E450E06FEE71E080E80E9412033B
:100690000E949302DC0112960D911C910115110527
:1006A00089F0D801ED91FC910280F381E02DBE012B
:1006B0006F5F7F4FC801099597FD04C0F801008561
:1006C0001185ECCF89810F90DF91CF911F910F9110
:1006D0000895AF92BF92CF92DF92EF92FF920F9365
:1006E0001F93CF93DF936C017B018B01040F151FC8
:1006F000EB015E01AE18BF08C017D10759F0699130
:10070000D601ED91FC910190F081E02DC601099593
:10071000892B79F7C501DF91CF911F910F91FF9040
:10072000EF90DF90CF90BF90AF900895CF93DF937D
:100730001F92CDB7DEB76983DC01ED91FC91028099
:10074000F381E02D41E050E0BE016F5F7F4F0995DE
:100750000F90DF91CF91089583E08093E90080911D
:10076000F200882319F08AE38093E80008950E943C
:10077000820290E00895FC018485958597FD05C06F
:100780002FEF3FEF3587248708950C945802CF93BD
:10079000DF93EC018C859D8597FF04C00E94580271
:1007A0009D878C878C859D85DF91CF910895FC0175
:1007B0008485958597FD0BC09FB7F89482E0809360
:1007C000E9008091F2009FBF90E0019608959FB7E5
:1007D000F89482E08093E9008091F2009FBF90E05E
:1007E0000895282F30E0F901E053FE4F9491F9016C
:1007F000E559FD4F849126573D4FF901249122235D
:1008000009F430C09923E9F091509F30D0F4E92FDA
:10081000F0E0E35FFB4F0C94362A3B043F041C04DA
:1008200033043704210421042104420448044C0405
:100830005004560421045A04909180009F779093AD
:100840008000E22FF0E0EE0FFF1FEE53FE4FA59168
:10085000B4919FB7F894EC91611132C080958E23CA
:100860008C939FBF0895909180009F7DE8CF9091D9
:100870008000977FE4CF94B59F7794BDE2CF94B585
:100880009F7DFBCF909190009F7790939000D9CF60
:10089000909190009F7DF9CF90919000977FF5CF38
:1008A0009091C0009F779093C000CBCF9091C000F3
:1008B0009F7DF9CF9091C200977F9093C200C1CFE6
:1008C0008E2BCECFCF93DF9390E0FC01E559FD4F07
:1008D000249186579D4FFC0184918823D1F090E0AC
:1008E000880F991FFC01E35AFD4FA591B491FC01BB
:1008F000EE53FE4FC591D491623071F49FB7F894D6
:100900003C91822F809583238C93E8812E2B288322
:100910009FBFDF91CF9108958FB7F894EC912E2B64
:100920002C938FBFF6CF3FB7F89480913902909106
:100930003A02A0913B02B0913C0226B5A89B05C0AB
:100940002F3F19F00196A11DB11D3FBFBA2FA92F4E
:10095000982F8827BC01CD01620F711D811D911D4B
:1009600043E0660F771F881F991F4A95D1F70895B6
:100970008F929F92AF92BF92CF92DF92EF92FF92AF
:100980006B017C010E9493044B015C01C114D104F2
:10099000E104F104B9F00E949304681979098A0905
:1009A0009B09683E73408105910580F321E0C21ADE
:1009B000D108E108F10888EE880E83E0981EA11C9A
:1009C000B11CE4CFFF90EF90DF90CF90BF90AF903D
:1009D0009F908F9008958F929F92AF92BF92CF92E7
:1009E000DF92EF92FF920F931F93CF93DF936C01EF
:1009F0007B018A0180910F01882309F45BC08091FB
:100A00005C02882309F456C08091430280FF05C030
:100A10008091E00082608093E000E801B12C8AEFD1
:100A2000A82E93E0892E2AE3922E209711F4BB2062
:100A3000D9F10E94820281110AC0AA94AA20D1F1A0
:100A400061E070E080E090E00E94B804EECF8C1787
:100A50001D0611F00CF08C2F9FB7F8948092E900DE
:100A60002091E80025FD02C09FBFDFCF282F30E096
:100A7000C21BD30BF701815020F041914093F1004C
:100A8000FACFE20EF31EBB2021F09092E800B12CC9
:100A9000EBCF8091E80085FDE7CF9092E800BB2482
:100AA000B394209709F3F3CF84E6809342021016A3
:100AB00011063CF081E090E0F6019383828310E020
:100AC00000E0C801DF91CF911F910F91FF90EF904F
:100AD000DF90CF90BF90AF909F908F9008952FB7E9
:100AE000F8946091350270913602809137029091AE
:100AF00038022FBF08958FB7F89480912E028FBFD0
:100B0000089561E0FC0184810E94F10380912D022F
:100B1000811110922D0208958EBD00000DB407FEC4
:100B2000FDCF8EB508958FEF0C948C050F931F9316
:100B3000CF93DF93EC010E946F058B010E94930518
:100B40008F3F69F00E946F05601B710B6C177D076A
:100B5000A8F380E0DF91CF911F910F91089581E07C
:100B6000F9CF8CBD9DBD0895CF93DF93EC018091AB
:100B70002D02811109C081E080932D0280911C0516
:100B800090911D050E94B10560E08C81DF91CF91AD
:100B90000C94F1038F929F92AF92BF92FF920F93AA
:100BA0001F93CF93DF93EC01F62E49015A018E81FA
:100BB000882389F08F8198859C012F5F3F4F38876C
:100BC0002F838230924018F40E949305F3CFCE0118
:100BD0000E9481051E82CE010E94B4058CE291E044
:100BE0000E9496058F2D80640E948C0508E110E01C
:100BF000D501C401002E04C0B695A7959795879599
:100C00000A94D2F70E948C0508501109083F8FEF13
:100C1000180771F785E9FF2021F028E087E8F21234
:100C20008FEF0E948C0510E00E9493058A8787FF52
:100C300004C01F3F11F01F5FF7CFDF91CF911F91CD
:100C40000F91FF90BF90AF909F908F900895AF92BB
:100C5000BF92CF92DF92EF92FF920F931F93CF93A9
:100C6000DF93EC016901C801820F931F813092402C
:100C700050F58E81882379F088819981AA81BB8182
:100C800084179507A607B70731F48F819885C81692
:100C9000D90608F042C0488359836A837B838B85D9
:100CA000833039F089E0440F551F661F771F8A95FE
:100CB000D1F79A01AB0161E1CE010E94CA058823F8
:100CC00089F083E08D83CE010E94810580E0DF9171
:100CD000CF911F910F91FF90EF90DF90CF90BF9039
:100CE000AF9008950E946F055B010E9493058A876B
:100CF0008F3F69F40E946F056A197B096D3271405C
:100D0000A0F38FE08D83CE010E948105DCCF8E3F62
:100D100089F418861F8281E08E838F8198858C15D7
:100D20009D0550F40E9493058F81988501969887C0
:100D30008F83F3CF8DE0E6CF6701E00EF11E0E94B6
:100D40009305F60181936F01EE15FF05C1F78F81C1
:100D50009885080F191F18870F838985882319F034
:100D600001151240A0F08E81882389F08F8198852B
:100D70009C012F5F3F4F38872F838230924018F4B9
:100D80000E949305F3CFCE010E9481051E8281E06F
:100D90009ECFCF92DF92EF92FF920F93CF93DF938C
:100DA000EC01690182E1411551056105710599F078
:100DB0008B85833039F089E0440F551F661F771FFC
:100DC0008A95D1F79A01AB0168E1CE010E94CA056C
:100DD000882319F084E08D832DC08EEF0E948C054E
:100DE00076018EEFD81AF70181917F010E948C0560
:100DF000EC14FD04C1F78FEF0E948C058FEF0E9469
:100E00008C050E9493058A878F71853071F40111DA
:100E100016C0CE010E94810581E0DF91CF910F9134
:100E2000FF90EF90DF90CF90089581E18D83CE0108
:100E30000E948105CE010E94810580E0EECF88E509
:100E400092E00E949605811102C085E1C4CF20E0A6
:100E500030E0A9016DE0CE010E94CA05882311F09F
:100E600084E1B9CF0E9493058111FACFD2CF0F93BD
:100E70004091300250913102609132027091330200
:100E8000411551056105710599F0082F2DE532E0F6
:100E900080915D0490915E040E94C906882349F008
:100EA00010923002109231021092320210923302EC
:100EB00081E00F9108950F93CF93C82F80912F0257
:100EC000811105C0C1E08C2FCF910F910895409101
:100ED00000015091010160910201709103010C2FFA
:100EE0002DE532E080915D0490915E040E94C90678
:100EF000811102C0C0E0E7CFCC2321F381E00E9442
:100F000037078823B9F310922F02DDCF8F929F927B
:100F1000AF92BF92EF92FF920F931F93CF934B012B
:100F20005C01C42F8091000190910101A091020108
:100F3000B091030188159905AA05BB0551F181E01F
:100F40000E945B0781110BC080E0CF911F910F9130
:100F5000FF90EF90BF90AF909F908F9008958DE598
:100F6000E82E82E0F82E00E012E030E020E0B5014B
:100F7000A40180915D0490915E040E94270688235D
:100F800019F38092000190920101A0920201B092A7
:100F9000030140912F024C2B40932F0281E0D5CFCB
:100FA0008F929F92AF92BF92CF92DF92EF92FF9279
:100FB000CF932EE135E030935E0420935D048823C7
:100FC00009F46DC040E060E070E0CB010E9486074C
:100FD00081110BC080E0CF91FF90EF90DF90CF9018
:100FE000BF90AF909F908F90089580911B048F7752
:100FF00089F78091270490912804A0912904B09149
:101000002A0484369105A105B10520F3C09023047C
:10101000D0902404E0902504F0902604C114D1045B
:10102000E104F104B9F240E0C701B6010E9486076D
:10103000882381F280916802909169028115924023
:1010400049F6A0916D02AA2329F260916B0270917A
:101050006C026115710509F4BDCF20916A0222234B
:1010600009F4B8CFA0933C0520932E0590E080E0D2
:1010700030E0E1E0F0E0C82FAF01082E02C0440FDD
:10108000551F0A94E2F72417350769F041E0480F2D
:1010900001968930910579F7409337059BCFC12C94
:1010A000D12C7601C0CF8093370520917302309107
:1010B000740250E040E02115310541F42091810295
:1010C00030918202409183025091840220932F0537
:1010D0003093300540933105509332054601570156
:1010E000860E971EA11CB11C80923D0590923E0574
:1010F000A0923F05B0924005E0916E02F0916F0220
:10110000F0934305E0934205B0E00E948F29DC0193
:10111000CB01880D991DAA1DBB1D8093440590939A
:101120004505A0934605B093470525E0EE0FFF1F48
:101130002A95E1F7E150FE4FEF2FFF27E6958E0F3E
:101140009F1FA11DB11D8093380590933905A09371
:101150003A05B0933B058090700290907102B12CDB
:10116000A12C8114910441F480907D0290907E0224
:10117000A0907F02B0908002C81AD90AEA0AFB0A3E
:10118000C80CD91CEA1CFB1C04C0F694E794D79445
:10119000C794CA95D2F7C0923305D0923405E09235
:1011A0003505F092360585EFC8168FE0D806E104C4
:1011B000F10428F48CE08093410581E00CCF80E1BC
:1011C00025EFC2162FEFD206E104F104A0F38091BF
:1011D000890290918A02A0918B02B0918C02809337
:1011E000440590934505A0934605B093470580E2DA
:1011F000E2CF4F925F926F927F928F929F92AF92C7
:10120000BF92CF92DF92EF92FF920F931F93CF93F3
:10121000DF93EC01423051056105710590F480E0E7
:10122000DF91CF911F910F91FF90EF90DF90CF90C2
:10123000BF90AF909F908F907F906F905F904F90F6
:10124000089589859A85AB85BC850196A11DB11D40
:1012500084179507A607B70710F3CB88DC88ED88BD
:10126000FE888F89803109F042C0BB27A72F962FB7
:10127000852F480159012A013B01C80ED91EEA1EDB
:10128000FB1E8091000190910101A0910201B0919B
:101290000301C816D906EA06FB0699F58F89803145
:1012A000C1F5B301A201552766277727440F551FC3
:1012B000435A5D4FFA019182808280912F028160B2
:1012C00080932F028A89823080F08D819E81AF8148
:1012D000B8858C0D9D1DAE1DBF1D8093300290936F
:1012E0003102A0933202B093330281E099CFDB0147
:1012F000CA01E7E0B695A79597958795EA95D1F746
:10130000B8CF40E0C701B6010E9486078111C6CF61
:1013100086CFB301A2014F77552766277727440F61
:10132000551F440F551F435A5D4FFA018082918229
:10133000A282B382C2CF8F929F92AF92BF92CF927E
:10134000DF92EF92FF920F931F93CF93DF93FC01F5
:1013500081859285A385B4850196A11DB11D841751
:101360009507A607B70770F480E0DF91CF911F9132
:101370000F91FF90EF90DF90CF90BF90AF909F9034
:101380008F90089583889488A588B688878980314E
:1013900089F5BB27A72F962F852FE9016A017B01CD
:1013A0008F01BC01CD01680D791D8A1D9B1D8090A8
:1013B000000190900101A0900201B09003018616F7
:1013C0009706A806B90601F5F8018789803111F55D
:1013D000DD24EE24FF24F601EE0FFF1FE35AFD4F3C
:1013E00080819181B0E0A0E088839983AA83BB8348
:1013F00081E0BBCFDB01CA01C7E0B695A795979501
:101400008795CA95D1F7C9CF40E00E948607811120
:10141000DBCFAACFE894C7F8DD24EE24FF24F60141
:10142000EE0FFF1FEE0FFF1FE35AFD4F80819181EA
:10143000A281B381BF70D8CF4F925F926F927F929B
:10144000AF92BF92CF92DF92EF92FF920F931F93D2
:10145000CF93DF9300D000D0CDB7DEB78C014983A6
:101460005A836B837C835901C12CD12C7601412C8A
:1014700082E0582E612C712C49815A816B817C81CC
:101480009E012F5F3F4FC8010E949B09882339F1BD
:10149000F8018585A301920104C0220F331F441F68
:1014A000551F8A95D2F7DA01C901C80ED91EEA1E66
:1014B000FB1E49815A816B817C818789803111F1C2
:1014C00088EF9FEFAFEFBFE0481759076A077B0728
:1014D00098F2F501C082D182E282F38281E00F901E
:1014E0000F900F900F90DF91CF911F910F91FF9070
:1014F000EF90DF90CF90BF90AF907F906F905F9014
:101500004F90089588EF9FEFA0E0B0E0DDCFCF933C
:10151000DF93FC012581222321F080E0DF91CF9130
:101520000895EC0180914105803159F582E0858371
:10153000178A108E118E128E80914205909143056C
:10154000B0E0A0E025E0880F991FAA1FBB1F2A95D5
:10155000D1F7838B948BA58BB68B8AE295E09C8F19
:101560008B8F81E08C831E821F82188619861A86D3
:101570001B861C861D861E861F86188A198A1A8A53
:10158000CDCF803251F683E0858340914405509160
:1015900045056091460570914705478B508F618FD7
:1015A000728F9F012D5E3F4F8AE295E00E941C0AD8
:1015B0008111D3CFB2CF8F929F92AF92BF92CF9231
:1015C000DF92EF92FF920F931F93CF93DF93EC0183
:1015D0008D8181110EC080E0DF91CF911F910F911D
:1015E000FF90EF90DF90CF90BF90AF909F908F9043
:1015F00008950B891C892D893E8904171507260734
:10160000370748F34A015B01823031F48A869B86B2
:10161000AC86BD8681E0E0CF81149104A104B104C1
:1016200049F41E821F82188619861A861B861C861C
:101630001D86F0CF0A851B852C853D85EB8DFC8DA5
:10164000858590E00996B901A801415051096109C9
:101650007109082E04C076956795579547950A94A9
:10166000D2F775016401E1E0CE1AD108E108F10872
:1016700004C0F694E794D794C7948A95D2F7C41619
:10168000D506E606F70620F0012B022B032B11F5F9
:101690008F89988DA98DBA8D8E839F83A887B987EE
:1016A0008E010A5F1F4FC114D104E104F10409F453
:1016B000ADCF4E815F816885798598018B8D9C8D3A
:1016C0000E949B0991E0C91AD108E108F108811133
:1016D000EACF81CFC41AD50AE60AF70AE1CF3F92D2
:1016E0004F925F926F927F928F929F92AF92BF9232
:1016F000CF92DF92EF92FF920F931F93CF93DF93DE
:10170000CDB7DEB72C970FB6F894DEBF0FBECDBFB6
:101710005C01DC015B968D909C905C9716964D90D9
:101720005D906D907C90199741145104610471048F
:1017300009F468C0BFEF4B1A5B0A6B0A7B0A312CB5
:10174000F40181859285A385B4859C01AD012F5F4D
:101750003F4F4F4F5F4F29873A874B875C87730115
:1017600062011D821E821F821886F4018185928586
:10177000A385B4852D813E814F815885281739076F
:101780004A075B0708F056C089859A85AB85BC85FA
:101790008C159D05AE05BF0550F482E0C82ED12CF6
:1017A000E12CF12C92E0492E512C612C712C9E01E0
:1017B0002F5F3F4FB701A601C4010E949B098823F8
:1017C000C9F189819A81AB81BC81892B8A2B8B2BB2
:1017D00009F1260137019FEF491A590A690A790A66
:1017E0002D813E814F8158852F5F3F4F4F4F5F4F77
:1017F0002D833E834F8358873FEFC31AD30AE30AF2
:10180000F30AB3CFF40140805180628073803324A7
:10181000339496CFC414D504E604F70409F70FEF08
:101820001FEF2FEF3FE0B701A601C4010E94F908A6
:10183000811119C080E02C960FB6F894DEBF0FBE60
:10184000CDBFDF91CF911F910F91FF90EF90DF906F
:10185000CF90BF90AF909F908F907F906F905F9050
:101860004F903F900895D50116964D915D916D91E1
:101870007C911997411551056105710539F0970162
:101880008601C4010E94F9088823A1F2D5011696A9
:10189000CD92DD92ED92FC921997332051F0D70151
:1018A000C6010196A11DB11DF40180839183A2831D
:1018B000B383F5018789908DA18DB28D892B8A2BF9
:1018C0008B2B39F48481C78AD08EE18EF28E8068AA
:1018D0008483F50184818062848381E0ACCFFF92B0
:1018E0000F931F93CF93DF93FC012581222309F4EB
:1018F00051C0F62EEC01848187FF3FC06685778555
:101900008089918941E00E948607882309F442C0BA
:101910000A89F0E20F9F80011124035A1D4F01151F
:101920001105C1F18D81823048F48B899C89AD8984
:10193000BE89F801848F958FA68FB78F8F89988D78
:10194000F801938F828F8F89988DA98DBA8DB58B71
:10195000A48BE0914802F0914902309759F0B80108
:101960006A5E7F4FC80148960995F801808D918D78
:10197000938B828B8C818F778C83F11003C08C8149
:101980008F7E8C838F2DDF91CF911F910F91FF90D0
:101990000C945B0780E0DF91CF911F910F91FF9036
:1019A0000895FF920F931F93CF93DF93EC018D81E6
:1019B000813041F090E080E0DF91CF911F910F9155
:1019C000FF9008958C8181FFF5CF82FD1BC00091AF
:1019D0005D0410915E04C8010E94B4050E94930545
:1019E000F82EC8010E9481058FEFF812E3CF8C8199
:1019F00085FF1BC060E0CE010E946F0C8C818F7D43
:101A00008C83D8CF4B895C896D897E898A859B853B
:101A1000AC85BD8584179507A607B707C1F2CE012F
:101A20000E94DB0A8111D3CFC5CF40913002509183
:101A300031026091320270913302452B462B472BC5
:101A400021F080E00E943707B5CF80618C832A8522
:101A50003B85317080E092E0821B930BADCFCF933A
:101A6000DF93EC0161E00E946F0C882311F01D826E
:101A700081E0DF91CF9108952F923F924F925F9234
:101A80006F927F928F929F92AF92BF92CF92DF928E
:101A9000EF92FF920F931F93CF93DF9300D000D06C
:101AA0001F92CDB7DEB77C016B011A01DC011596E0
:101AB0008C911597813009F0CAC014961C9111FFC2
:101AC000C6C012FDB0C0410112951F701095117073
:101AD0001D83D7011A960D911D912D913C911D9753
:101AE0008114910409F426C15B968D919C915C97B9
:101AF000FC0174807A94B901A80129E07695679574
:101B0000579547952A95D1F774221170711020C00E
:101B100001151105E9F416964D915D916D917C9139
:101B20001997411551056105710509F099C057963E
:101B30008D919D910D90BC91A02D0097A105B105AF
:101B400009F0B0C0C7010E946F0B882309F47FC061
:101B500080E092E0801B910B54018815990508F4F0
:101B60005C01D7015B964D915C915C9716968D91C7
:101B70009D910D90BC91A02D0297A109B109FA0188
:101B8000258504C0880F991FAA1FBB1F2A95D2F76D
:101B90004685578560897189840F951FA61FB71FD9
:101BA0009C01AD01270D311D411D511D29013A0137
:101BB000A11432E0B30609F07BC08091000190913E
:101BC0000101A0910201B091030184159505A605BC
:101BD000B70559F48FEF9FEFDC01809300019093DC
:101BE0000101A0930201B09303010D819601B3019D
:101BF000A20180915D0490915E040E94C906882331
:101C000031F19EEFD91A8A189B08F70182859385D6
:101C1000A485B5858A0D9B1DA11DB11D8287938763
:101C2000A487B58756CFF70143895489658976899A
:101C300082859385A485B585481759076A077B0770
:101C400009F441CFC7010E94DB0A81113CCF81E03A
:101C500090E0D70113969C938E93129780E007C073
:101C60009E012F5F3F4F0E949B09811102C090E0AF
:101C70007BC089819A81AB81BC81F701238D348D32
:101C8000F901278948EF5FEF60E070E0203121F033
:101C900048EF5FEF6FEF7FE084179507A607B70760
:101CA00008F050CFF70186839783A087B18750CF84
:101CB0000115110591F5D7011A964D915D916D9120
:101CC0007C911D9753968D919D910D90BC91A02D67
:101CD000481759076A077B0700F181E00E945B07FC
:101CE000882309F4B4CF4092000150920101609220
:101CF00002017092030180912F02816080932F0274
:101D0000035A1D4FD601C8018A0D9B1DF8018E177D
:101D10009F0759F02D912193FACF41E0C301B20101
:101D20000E9486078111ECCF92CF801B910BC80EC9
:101D3000D91E69CF14968C91149753964D915D914D
:101D40006D917C915697401751076207730720F5F4
:101D5000F701038B148B258B368B80688483F70106
:101D6000848183FD26C0C1010F900F900F900F90CA
:101D70000F90DF91CF911F910F91FF90EF90DF9027
:101D8000CF90BF90AF909F908F907F906F905F901B
:101D90004F903F902F900895209148023091490232
:101DA000232BE9F221143104D1F2806814968C932C
:101DB000D6CF61E0C7010E946F0C882309F447CF9A
:101DC000D2CFCF93DF931F92CDB7DEB7698341E0C7
:101DD00050E0BE016F5F7F4F0E943C0D0F90DF917E
:101DE000CF910895FC01DB0112968D919C91139780
:101DF0009383828381E591E09183808314968C9113
:101E00001497848315968C911597858316964D911A
:101E10005D916D917C911997468357836087718797
:101E20001A964D915D916D917C911D9742875387D4
:101E3000648775871E964D915D916D917C91519748
:101E400046875787608B718B52968C915297828B05
:101E500053964D915D916D917C915697438B548B28
:101E6000658B768B57964D915D916D917C915A97CC
:101E7000478B508F618F728F5B968D919C91948F61
:101E8000838F0895FC01818D928D009719F061E098
:101E90000C946F0C0895DC015996ED91FC913097EC
:101EA000B9F083899489A589B6894285538564856B
:101EB0007585841B950BA60BB70B811520E892073F
:101EC000A105B10538F08FEF9FE7A0E0B0E00895DD
:101ED00090E080E00895DC0159968D919C910097E7
:101EE00039F0DC01ED91FC910480F581E02D09943D
:101EF00090E080E00895CF93DF93EC01E98DFA8DB7
:101F0000309749F481E090E09B838A8390E080E001
:101F1000DF91CF91089513821282898D9A8D0E944C
:101F20003C0DE98DFA8D22813381232B59F7F0CFB7
:101F3000CF93DF931F92CDB7DEB76983DC01ED91BC
:101F4000FC910280F381E02D41E050E0BE016F5F23
:101F50007F4F09950F90DF91CF9108952F923F9277
:101F60004F925F926F927F928F929F92AF92BF92A9
:101F7000CF92DF92EF92FF920F931F93CF93DF9355
:101F800000D01F92CDB7DEB7FC018581811118C04A
:101F90008FEF9FEF0F900F900F90DF91CF911F91D8
:101FA0000F91FF90EF90DF90CF90BF90AF909F90F8
:101FB0008F907F906F905F904F903F902F900895FB
:101FC000848180FFE5CF438954896589768982853C
:101FD0009385A485B585312C212C481759076A07AC
:101FE0007B0719F022242394312C6F012101CE01AB
:101FF00001963C01DF011696BB83AA83411451046C
:1020000009F4C5C0F60142855385648575854A018A
:10201000F1E09F22D6015B968D919C915C978A019D
:102020009B01E9E03695279517950795EA95D1F735
:102030001596EC91E230E9F5FC01628D738D848D8B
:10204000958D600F711F821F931FA12C22E0B22E6D
:10205000A818B9084A145B0408F45201F601248157
:1020600026FD04C0A114F2E0BF0671F40091000146
:102070001091010120910201309103010617170709
:102080002807390709F05EC040E00E9486078823D0
:1020900009F47ECFC401835A9D4FD3019C012A0DC0
:1020A0003B1DFC012E173F0709F46CC041914D9375
:1020B000F9CFDC011496BC90BA94B022811491043B
:1020C00079F4B1100DC0452B462B472B69F5F6016D
:1020D0008789908DA18DB28D86839783A087B187E4
:1020E000D6015B96ED91FC915C9716966D917D9172
:1020F0008D919C91199762507109810991092585EB
:1021000004C0660F771F881F991F2A95D2F706858E
:10211000178520893189600F711F821F931F6B0DF6
:10212000711D811D911D91CFD60116964D915D9126
:102130006D917C9119972A813B810E949B098111A5
:10214000CFCF26CF730185019401AB01BC018091F3
:102150005D0490915E040E942706882309F418CF3D
:102160006A0C7B1CF60182859385A485B5858A0D52
:102170009B1DA11DB11D82879387A487B5874A182F
:102180005B083CCF281B390B620E731EEBCF2A94E1
:10219000232809F0FDCE898190E0FCCEFC01818DE1
:1021A000928D009711F00C94AE0F8FEF9FEF089572
:1021B0000F931F93CF93DF93EC01898D9A8D10E0DD
:1021C00000E0009799F00E94AE0F8C010F3F1007BE
:1021D00069F0898D9A8DFC014285538564857585EA
:1021E00041505109610971090E94DB0AC801DF9160
:1021F000CF911F910F91089585ED8093BC00809140
:10220000BC0084FDFCCF1092A9040895613298F4BB
:102210002091A904243089F460930A02282FAAEEA1
:10222000B1E0FC018E2F821B861710F080E008952C
:1022300081918D93F7CF81E0089582E0089508950C
:10224000E091CB048091CA04E81730F4F0E0E65541
:10225000FB4F808190E008958FEF9FEF0895CF921C
:10226000DF92EF92FF920F931F93CF93DF937C0146
:10227000CB018A0120915F04222389F0EB016B01DD
:10228000C40ED51ECC15DD0569F06991D701ED911D
:10229000FC910190F081E02DC7010995F3CF642FE7
:1022A0000E940611C801DF91CF911F910F91FF90FD
:1022B000EF90DF90CF900895CF93DF931F92CDB72B
:1022C000DEB7698320915F042223F9F02091820414
:1022D000203258F021E030E0FC013383228390E08B
:1022E00080E00F90DF91CF91089580916004E82FF6
:1022F000F0E0EF59FB4F998190838F5F80936004EA
:102300008093820481E090E0ECCF61E0CE01019601
:102310000E940611F7CF682F87E695E00C945C11B8
:10232000CF93DF93EB010E94450281E090E00E9491
:102330008B11CE010E948B1180E690E00E948B11E0
:102340000E94EC016AE070E080E090E00E94B80436
:10235000DF91CF9108951F93CF93DF93D82F162F3E
:1023600088E60E9445028EE090E00E948B110E9458
:10237000EC01C82F811107C00E944F020E949401F6
:10238000C82F0E94EC018D2F8150990B9C0181E098
:1023900090E001C0880F2A95EAF7112391F0C82B2D
:1023A00088E60E9445028EE090E00E948B116C2F1F
:1023B00087E695E00E945C11DF91CF911F910C940C
:1023C000EC018095C823ECCFCF93DF93C82F88E62C
:1023D0000E9445028FE090E00E948B110E94EC0168
:1023E0000E944F020E949401D82F0E94EC0188E6BF
:1023F0000E9445028FE090E00E948B118C2F81504B
:10240000990B9C0181E090E001C0880F2A95EAF7C2
:10241000682F60956D2387E695E00E945C11DF913F
:10242000CF910C94EC011F93CF93DF93D82F162FED
:1024300088E60E9445028EE090E00E948B110E9487
:10244000EC010E944F020E949401C82F0E94EC01EF
:102450008D2F8150990B9C0181E090E001C0880F85
:102460002A95EAF7112391F0C82B88E60E944502CD
:102470008EE090E00E948B116C2F87E695E00E9421
:102480005C11DF91CF911F910C94EC018095C823D2
:10249000ECCFCF92DF92FF920F931F93CF93DF93F6
:1024A0006C0188E60E94450260E087E695E00E94A4
:1024B0005C110E94EC0167E070E088E690E00E9409
:1024C000E5010E9494018F77282F30E094E0359544
:1024D00027959A95E1F7922F990F990FC22FC91B53
:1024E000CC0FC80F0E9494019C0144E035952795BC
:1024F0004A95E1F72F703327922F990F990FD22F1A
:10250000D91BDD0FD80F0E9494019C0154E0359532
:1025100027955A95E1F72F703327922F990F990F2E
:10252000122F191B110F180F0E9494010E94940181
:102530009C0164E0359527956A95E1F72F70332764
:10254000922F990F990F022F091B000F080F0E945D
:1025500094019C0174E0359527957A95E1F72F70E9
:102560003327922F990F990FF22EF91AFF0CF80EBC
:102570000E9494019C01E4E035952795EA95E1F7E6
:102580002F703327922F990F990F291B220F820F3B
:10259000F6018083F18202831383D483C583C6014D
:1025A000DF91CF911F910F91FF90DF90CF90089511
:1025B000EF92FF920F931F93CF93DF9300D000D041
:1025C00000D0CDB7DEB77C018B01CE0101960E9411
:1025D0004912898190E04496982F8827990F2A8183
:1025E00040E2249F900111244B81242B822B932BBA
:1025F000F701918380838D81F0E28F9FC0011124C8
:102600002C8130E0322F2227330F330F330F822BF0
:10261000932B2E8130E035952795822B932BF80153
:102620009183808326960FB6F894DEBF0FBECDBF90
:10263000DF91CF911F910F91FF90EF90089590E05F
:1026400080E008954115510529F4EAE7F0E0808122
:102650008F7780836A307105B9F0CB01880F991F9D
:10266000880F991F807267706860682B88E10FB6C9
:10267000F894A895809360000FBE60936000E0E638
:10268000F0E0808180648083232BB1F483B7817F65
:10269000846083BFF89483B7816083BF7894889502
:1026A00083B78E7F83BF7894452B29F4EAE7F0E067
:1026B000808180688083089583B7817F846083BF31
:1026C000F89483B7816083BF7894889583B78E7FB1
:1026D00083BF7894E9CFCF92DF92EF92FF920F936E
:1026E0001F93CF93DF938C01D0E0C0E06B01770F95
:1026F000EE08FF08C017D10794F461E088E00E945B
:10270000F103C701B6010E94B80460E088E00E94AE
:10271000F103C701B6010E94B8042196EBCFDF9107
:10272000CF911F910F91FF90EF90DF90CF90089580
:10273000EFEAF1E0E49190917B008E2F880F880FF3
:1027400080729F7D892B80937B00E770E064E0932B
:102750007C0080917A00806480937A0080917A0076
:1027600086FDFCCF8091780060917900762F682FEC
:10277000072E000C880B990B0E94932826EE3FE34E
:102780004EEC50E40E94CE280E94E029CB0108952F
:102790000F931F93CF93DF9300D000D000D0CDB71D
:1027A000DEB7CE0101960E944912209110013091AE
:1027B00011014D818E8190E05CE3459F800D911D5C
:1027C0001124B9010E94222A6F5F7F4F629FC001CE
:1027D000639F900D729F900D112480312EE092071F
:1027E0000CF075C09093E9018093E8018091E801B5
:1027F0009091E9016CE370E00E94222A362F282F85
:102800008093E8019093E9014AE0642F0E94162A20
:10281000082F000F080F000F020F832F0E94162AA7
:10282000182F110F180F110F130F88E60E94450281
:1028300067E087E695E00E945C11602F87E695E0EF
:102840000E945C110E94EC0188E60E94450268E04B
:1028500087E695E00E945C11612F87E695E00E9473
:102860005C110E94EC0188E60E94450269E087E65F
:1028700095E00E945C1160E887E695E00E945C119B
:102880000E94EC0188E60E9445026AE087E695E036
:102890000E945C1160E887E695E00E945C110E944E
:1028A000EC0161E081E00E94131281E00E94E411DA
:1028B00061E081E00E94AB1126960FB6F894DEBF6E
:1028C0000FBECDBFDF91CF911F910F910895109250
:1028D000E9011092E8018ACFCF92DF92EF92FF9246
:1028E0001F93CF93DF93EC0180E2689FF0011124E6
:1028F000E35AFD4F9385917161F0842F827449F002
:1029000080E0DF91CF911F91FF90EF90DF90CF900B
:102910000895142F6A8B8091000190910101A0917C
:102920000201B09103018E879F87A88BB98BC48861
:10293000D588F12CE12C7601DD24CC24CF8AD88EE9
:10294000E98EFA8E828D938DB0E0A0E0AC01BD01DE
:102950004C295D296E297F294F8B588F698F7A8F7B
:1029600083858871B1F4848D958DA68DB78D8B8B01
:102970009C8BAD8BBE8B81E08D831F701C831E8270
:102980001F82188619861A861B861C861D8681E082
:10299000B8CF803109F0B4CF9E012D5E3F4F8B8DB3
:1029A0009C8D0E941C0A882309F4AACF84E0E4CFFE
:1029B000FB0101900020E9F73197AF01461B570B4F
:1029C000DC01ED91FC910280F381E02D09940F93DD
:1029D0001F93CF93DF93EC01FB014481558160810C
:1029E0007181E881F9810280F381E02D09958C01E4
:1029F0006BE671E0CE010E94D814800F911FDF9129
:102A0000CF911F910F9108950F931F93CF93DF9351
:102A10008C01EB01FC01808191810097E1F06881DC
:102A2000798161157105A9F0428153812C813D8125
:102A30004217530770F00E94712C8C819D81F80120
:102A4000958384831D821C82DF91CF911F910F910A
:102A500008950E94EC2A88819981F80191838083EE
:102A60008A819B81938382838C819D8195838483DA
:102A7000198218821B821A82E5CFCF93DF93EC0173
:102A800088819981009711F00E94EC2A198218829E
:102A90001D821C821B821A82DF91CF910895FC0156
:102AA00080819181009711F00C94EC2A0895CF93C6
:102AB000DF93EC01898D9A8D009741F00E942F0DD4
:102AC000898D9A8D0E94EC2A1A8E198EDF91CF91F2
:102AD00008950F931F93CF93DF93EC018881998121
:102AE000009759F02A813B812617370730F081E0A3
:102AF000DF91CF911F910F9108958B016F5F7F4FF1
:102B00000E94752B009759F0998388831B830A8351
:102B10002C813D81232B59F7FC011082E8CF80E006
:102B2000E7CFEF92FF920F931F93CF93DF9361153F
:102B3000710541F480E0DF91CF911F910F91FF90DB
:102B4000EF90089541155105B1F07B01EC010C8126
:102B50001D81040F151FB8010E946915882351F3C8
:102B6000288139818C819D81B701820F931F0E943A
:102B7000712C1D830C8381E0DECFCF93DF93EC01BA
:102B8000FB0101900020E9F73197AF01461B570B7D
:102B90000E949115811103C0CE010E943D15CE0106
:102BA000DF91CF910895CF93DF93EC01FB01448136
:102BB0005581608171810E949115811103C0CE0100
:102BC0000E943D15CE01DF91CF910895FB01448114
:102BD0005581608171810C949115EF92FF920F9352
:102BE0001F93CF93DF93EC017B018A01BA010E940E
:102BF000691581110BC0CE010E943D15CE01DF91F8
:102C0000CF911F910F91FF90EF9008951D830C833A
:102C1000B701888199810E94712CF0CFFB0101904E
:102C20000020E9F73197AF01461B570B0C94ED15C7
:102C30000F931F93CF93DF93CDB7DEB762970FB695
:102C4000F894DEBF0FBECDBF8C01CB01F80111821D
:102C5000108213821282158214824AE0BE016F5FD5
:102C60007F4F0E941D26BE016F5F7F4FC8010E94EB
:102C70000E1662960FB6F894DEBF0FBECDBFDF9181
:102C8000CF911F910F9108950F931F93CF93DF93CF
:102C9000CDB7DEB729970FB6F894DEBF0FBECDBF14
:102CA0008C01862FF8011182108213821282158204
:102CB00014824AE0BE016F5F7F4F90E00E94302691
:102CC000BE016F5F7F4FC8010E940E1629960FB696
:102CD000F894DEBF0FBECDBFDF91CF911F910F9152
:102CE0000895CF93DF93EC01FB018617970749F016
:102CF000608171816115710541F0448155810E94A7
:102D0000ED15CE01DF91CF9108950E943D15F9CFC9
:102D1000FC011182108213821282158214820C949B
:102D20007116FC01118210821382128215821482A4
:102D3000FB0101900020E9F73197AF01461B570BCB
:102D40000C94ED153F924F925F926F927F928F920B
:102D50009F92AF92BF92CF92DF92EF92FF920F932A
:102D60001F93CF93DF93CDB7DEB72B970FB6F894B1
:102D7000DEBF0FBECDBF7C01FE013196CE010C96A9
:102D80006F0130E23193E817F907E1F7DA0130E03B
:102D900087E09D91B92E992309F43CC09E32F1F44D
:102DA0008A30C9F480E02B960FB6F894DEBF0FBED0
:102DB000CDBFDF91CF911F910F91FF90EF90DF90EA
:102DC000CF90BF90AF909F908F907F906F905F90CB
:102DD0004F903F90089538E08AE0DBCFE2EBF1E0DE
:102DE0004491442321F031969413FACFDBCF83171B
:102DF000C8F24FED490F4E35A8F64FE9490F4A3159
:102E000018F440EEB42EB90EF601E30FF11DB082B6
:102E10003F5FBFCF8981803229F2322E8B01DB01E7
:102E20005B968D919C915C97F701948F838F16969A
:102E30001D921D921D921C921997FB0112861386FA
:102E400014861586F80182859385A485B585438906
:102E500054896589768984179507A607B70708F00E
:102E60004DC025E0B695A795979587952A95D1F7FA
:102E7000F82FFF70AF2ED80115968C91823008F490
:102E800091CFC8010E94AE0F97FD8CCFF8018285CB
:102E90009385A485B5854F96A11DB11D8287938723
:102EA000A487B587F0E2AF9EB0011124635A7D4F2D
:102EB0006115710509F476CFDB018C91882341F00F
:102EC000853E09F075C0BB2029F0BB24B394BACF6E
:102ED000B1100EC0F701A28A80910001909101010A
:102EE000A0910201B091030186879787A08BB18BD7
:102EF000DB018C918111E9CFBB24B394832D8271C6
:102F0000823109F04FCFBB2009F460C0F70166851C
:102F100077858089918941E00E948607882309F49A
:102F200041CFD70152960C91B0E20B9F8001112442
:102F3000035A1D4F0115110509F434CF86E1F8013C
:102F40003A96DF011D928A95E9F78BE0F601D801E8
:102F500001900D928A95E1F7E0914802F0914902C3
:102F6000309709F4AEC0B801625F7F4FC801409648
:102F70000995D80150968D919C91519753969C93A9
:102F80008E93529759969C938E9358971E968D9137
:102F90009C911F9757969C938E93569781E00E9421
:102FA0005B07882309F4FECE432DF70162890AC02E
:102FB0004BE050E0C6010E94472C892B09F042CF1C
:102FC000432D6A2DC7010E946C14EDCEF801858156
:102FD000823009F4E7CEC8010E946F0B882309F400
:102FE000E1CED8015B96ED91FC915C9716968D90A1
:102FF0009D90AD90BC901997B2E08B1A9108A108F2
:10300000B108858504C0880C991CAA1CBB1C8A9534
:10301000D2F786859785A089B189880E991EAA1E48
:10302000BB1E848124013501480E511C611C711C9A
:1030300084149504A604B70409F1E1E04E1A51087E
:103040006108710881E00E945B07882309F4AACE19
:10305000EDE5F2E011928DE594E08E179F07D1F730
:1030600040920001509201016092020170920301AE
:1030700080912F02816080932F02DACFD8015B9676
:10308000ED91FC91258580E092E0A0E0B0E004C0E5
:10309000880F991FAA1FBB1F2A95D2F7F8014389F1
:1030A000548965897689840F951FA61FB71F838B66
:1030B000948BA58BB68BD70152961C920DE512E02E
:1030C0003DCF81E298E2F801918B808B80E098E01F
:1030D000978786874ECFEF92FF920F931F93CF93E0
:1030E000DF93EC017B018A011B821A8288EE93E058
:1030F000A0E0B0E08C839D83AE83BF838DE291E03E
:10310000998388838DE190E00E94502A9A8F898F5D
:10311000009779F02DE1F701DC0101900D922A95DD
:10312000E1F74CE050E0B801CE010C960E94782CFB
:10313000188EDF91CF911F910F91FF90EF9008951E
:103140002F923F924F925F926F927F928F929F92B7
:10315000AF92BF92CF92DF92EF92FF920F931F93A5
:10316000CF93DF93CDB7DEB7C756D1090FB6F8942A
:10317000DEBF0FBECDBF6C015B01A6964FAFA69719
:1031800019A218A281E591E09F8F8E8F1BA21C824D
:103190001B829A8389831E824E018EE1880E911CC8
:1031A000C4010E94870A75018E010F5F1F4F240121
:1031B00018016FE270E0C7010E945D2C009709F4CE
:1031C0005DC0F70120812F3271F4FFEFEF1AFF0A83
:1031D000902F812F8201492E582E942D852D280164
:1031E000092F182FE6CF8E198D3008F08CE0682E4D
:1031F000712CA301B701CE01885A9F4F0E94782CF1
:10320000E8E5F0E0EC0FFD1FE60DF71D1082C801A8
:103210000E942F0DF8018581882301F11EAE1DAE9D
:1032200081E591E09CAF8BAF21961FAE2197A896C8
:10323000EEADFFADA897AE0EBF1EF50180818111E6
:103240002AC0BE01655C7F4FC1010E94F20E4EE6AE
:1032500051E0B101C6010E946B183BC021E0AE01F4
:10326000485A5F4FB201C8010E94A2168823B1F2EA
:10327000E60CF71CC2010E942F0DAFCFC7018A19BF
:103280009B09A8969FAF8EAFA897B201CE01CB96AF
:103290000E94F20ECCCF19A218A281E591E09F8F77
:1032A0008E8F1BA221968FAD219781112DC0F60123
:1032B0001382128288EE93E0A0E0B0E084839583CD
:1032C000A683B7838DE291E091838083128E118E65
:1032D0001486C601C959DF4F0FB6F894DEBF0FBE82
:1032E000CDBFDF91CF911F910F91FF90EF90DF90B5
:1032F000CF90BF90AF909F908F907F906F905F9096
:103300004F903F902F900895A6962FADA697A501B8
:10331000BE01655C7F4FC4010E94A216882339F26A
:10332000CE01CB960E942F0DA6968FADA6978670E4
:10333000863039F449A95AA96BA97CA9C4010E9415
:10334000DB0AB401C1010E94F20EA50182CF1F92D7
:103350000F920FB60F9211248F939F938091E100EB
:103360009091E100937F9093E10083FF0FC0109252
:10337000E90091E09093EB001092EC0092E39093BF
:10338000ED0010925C0298E09093F00082FF1CC068
:1033900093E09093E9009091F200992319F09AE359
:1033A0009093E80090914202992329F09091420273
:1033B00091509093420290915B02992329F0909151
:1033C0005B02915090935B0284FF18C08091E200F1
:1033D0008E7E81608093E2008091E1008F7E8093F9
:1033E000E100809143028E7E8061809343029F9131
:1033F0008F910F900FBE0F901F90189580FFF7CF01
:103400008091E2008E7E80618093E2008091E100F5
:103410008E7E8093E100809143028E7E8160E5CFB5
:103420001F920F920FB60F921124CF92DF92EF925C
:10343000FF920F931F932F933F934F935F936F933D
:103440007F938F939F93AF93BF93EF93FF93CF930C
:10345000DF93CDB7DEB76C97DEBFCDBF1092E9002A
:103460008091E80083FF2FC089E0FE017596EE2E63
:10347000DF2E815029F09091F10090833196F9CFA1
:1034800084E680935B0282EF8093E8008D8987FF5A
:1034900039C09091E80090FFFCCF982F907609F00A
:1034A00033C19E894F89588D2F89F88C911131C075
:1034B000803861F5809144028093F1001092F10010
:1034C0008EEF8093E8006C960FB6F894DEBF0FBEC7
:1034D000CDBFDF91CF91FF91EF91BF91AF919F91C0
:1034E0008F917F916F915F914F913F912F911F919C
:1034F0000F91FF90EF90DF90CF900F900FBE0F9045
:103500001F9018959EEF9093E800C7CF1092F1009E
:10351000D5CF913059F48111D3CF4130510581F687
:10352000809144028D7F80934402CACF933049F446
:103530008111C6CF4130510519F680914402826055
:10354000F2CF953041F48091E80080FFFCCF2068F5
:103550002093E300B5CF963009F0A8C00B8D1C8DE9
:1035600022E01092E9001092400210923F02F21203
:103570002EC010923E0210923D020E9438031F821C
:1035800099E09983FA8291E09E8390EA98879AEF76
:10359000998720913F0230914002275F3F4F3C8343
:1035A0002B838D831092E9001092400210923F020B
:1035B00010933E0200933D0249E050E0BE016F5F70
:1035C0007F4F80E00E9412030E94380379CF10934E
:1035D0003E0200933D020E949302DC0112960D917F
:1035E0001C910115110509F457C1D801ED91FC9109
:1035F0000480F581E02D6E2D7D2DC8010995009781
:1036000009F045C1F80100851185EBCFF3E0FF1209
:103610000EC08F89882309F440C0823061F440E8ED
:103620006CE080E592E00E94DF02811149CF81E2E7
:103630008093EB0048CF813029F440E868E087E4CC
:1036400092E0F1CF833099F70E949302DC01129649
:10365000ED90FC908E010F5F1F4F6801E114F104A3
:1036600079F0D701ED91FC910680F781E02DB8014A
:10367000C7010995080F111DF701E084F184EECF11
:10368000D8011C92F60101900020E9F73197BF01A3
:103690006C197D0940E0C601C6CF61E372E0FB0111
:1036A000449150E080E80E9412030ACF973009F459
:1036B000BECF983021F481E08093F10001CF9930A2
:1036C00009F0FECE837009F0B2CFE3E2F1E081E0D1
:1036D00031E096E32191222371F08093E900309349
:1036E000EB00DF0111972C912093EC009093ED00FB
:1036F0008F5F873079F78EE78093EA001092EA00B7
:103700008F8980935C02DCCE8B8D9C8D1092E900BA
:103710001092400210923F0290933E0280933D022D
:10372000898D81119AC08E899D89913A49F481329F
:1037300009F07DCF47E050E068E071E080E0B3CF72
:10374000913209F074CF833269F48F89988DB0E09B
:10375000A0E08093040190930501A0930601B0932B
:103760000701AECE8032A9F48091E80082FFFCCF41
:1037700088E0E8E0F1E0815029F09091F100908339
:103780003196F9CF84E680935B028BEF8093E8005B
:1037900097CE823209F094CE8F8980930F01EEEF9D
:1037A000FFE7859194918B3F9C4D51F1E0E0F8E06B
:1037B0008091080190910901A0910A01B0910B013B
:1037C000803B9440A105B105F1F480910F0180FD8B
:1037D0001AC0EE3F8AE0F80789F587E797E79183FB
:1037E0008083809160008093410288E19BE00FB666
:1037F000F894A895809360000FBE9093600060CE0F
:10380000EEEFFAE0D5CF808191818737974709F0B5
:1038100057CEA89580916000886180936000809168
:10382000410280936000EE3F2AE0F20789F0809128
:10383000FE0A9091FF0A9183808342CE808191811C
:103840008737980751F29093FF0A8093FE0AC5CFFD
:103850001092FF0A1092FE0A33CE0E949302DC01FE
:1038600012960D911C910115110509F4E0CED801B5
:10387000ED91FC910190F081E02D6E2D7D2DC80120
:10388000099581111DCEF80100851185ECCF181620
:1038900019060CF415CECBCEF1E0FF12B7CE65E3DE
:1038A00072E0FDCE1F920F920FB60F9211242F934C
:1038B0003F938F939F93AF93BF93809135029091E5
:1038C0003602A0913702B09138023091340226E0DE
:1038D000230F2D3758F50296A11DB11D20933402F8
:1038E0008093350290933602A0933702B09338024A
:1038F0008091390290913A02A0913B02B0913C0232
:103900000196A11DB11D8093390290933A02A093B4
:103910003B02B0933C02BF91AF919F918F913F9139
:103920002F910F900FBE0F901F90189529E8230F2D
:103930000396A11DB11DD2CF1F920F920FB60F9209
:1039400011242F933F934F935F936F937F938F93A4
:103950009F93AF93BF93EF93FF93E0911A01F09180
:103960001B010995FF91EF91BF91AF919F918F91AD
:103970007F916F915F914F913F912F910F900FBE6B
:103980000F901F9018951F920F920FB60F9211244F
:103990002F933F934F935F936F937F938F939F9357
:1039A000AF93BF93EF93FF93E0911801F09119014A
:1039B0000995FF91EF91BF91AF919F918F917F9169
:1039C0006F915F914F913F912F910F900FBE0F908C
:1039D0001F9018951F920F920FB60F9211242F93DC
:1039E0003F934F935F936F937F938F939F93AF9387
:1039F000BF93EF93FF93E0911601F09117010995A2
:103A0000FF91EF91BF91AF919F918F917F916F91B6
:103A10005F914F913F912F910F900FBE0F901F908C
:103A200018951F920F920FB60F9211242F933F9368
:103A30004F935F936F937F938F939F93AF93BF93B6
:103A4000EF93FF93E0911401F09115010995FF9117
:103A5000EF91BF91AF919F918F917F916F915F9106
:103A60004F913F912F910F900FBE0F901F9018957F
:103A70001F920F920FB60F9211242F933F934F93E3
:103A80005F936F937F938F939F93AF93BF93EF93C6
:103A9000FF93E0911201F09113010995FF91EF91CD
:103AA000BF91AF919F918F917F916F915F914F9156
:103AB0003F912F910F900FBE0F901F9018951F925E
:103AC0000F920FB60F9211242F933F934F935F9352
:103AD0006F937F938F939F93AF93BF93EF93FF93D6
:103AE0008091B900887F803609F44AC0F0F58832A9
:103AF00009F4A5C018F5803109F499C0B8F48823F9
:103B000009F4F2C0883009F492C0FF91EF91BF919F
:103B1000AF919F918F917F916F915F914F913F9165
:103B20002F910F900FBE0F901F901895883109F4B8
:103B300086C0803251F78093A70414C0803409F402
:103B40009BC040F48033B9F38833F9F68093A7041F
:103B500085ECAEC0803509F483C0883509F494C083
:103B6000883499F60E94FC10D0CF883909F48AC0B5
:103B700038F5883729F050F4883611F0803729F667
:103B800083E08093A90410922C0255C0883809F470
:103B900079C0803919F0803809F0B7CF80912C02B4
:103BA000803208F06FC0E0912C0281E08E0F80938C
:103BB0002C028091BB00F0E0E45FFD4F80833BC0AE
:103BC000803B39F0D0F4803A09F477C0883A09F0A4
:103BD0009CCF84E08093A90410920B0210920A02F9
:103BE000F0E0E0E0099580910A0281110FC081E0C8
:103BF00080930A021092EA0109C0803C09F4A8CF20
:103C0000883C09F4A5CF883B09F07FCFE0910B02F7
:103C100081E08E0F80930B02F0E0E651FE4F808131
:103C20008093BB0090910B0280910A0229C0809181
:103C3000A4048093BB0085EC8093BC0066CF909178
:103C4000A6048091A504981758F5E091A60481E098
:103C50008E0F8093A604F0E0ED57FB4F8081E9CFF3
:103C6000E091A60481E08E0F8093A6048091BB00B2
:103C7000F0E0ED57FB4F80839091A6048091A5045E
:103C80009817C8F285E8D8CFE091A60481E08E0F9E
:103C90008093A6048091BB00F0E0ED57FB4F80833A
:103CA0008091A80481115ECF81E08093A30484EA0F
:103CB0008093BC001092A90428CF80912C028032FE
:103CC00030F4E0912C02F0E0E45FFD4F10820E949E
:103CD000FC1060912C0270E08CE092E0F0E0E0E0FB
:103CE000099510922C0234CF1092A7043BCF1F925B
:103CF0000F920FB60F9211248F930FB6F894A895D8
:103D000080916000886180936000109260000FBE17
:103D10008F910F900FBE0F901F901895ECECF4E070
:103D20001382128288EE93E0A0E0B0E08483958352
:103D3000A683B7832FE331E0318320832FEF3FEF5A
:103D400035872487ECE1F5E020E5208321E021831D
:103D5000EEE1F5E0158216821186138642E050E00E
:103D600060E070E0448755876687778713A215A6C1
:103D700014A621E531E033A722A717A6E7E6F5E070
:103D80001382128284839583A683B7838DE591E0A5
:103D90009183808360E771E089E795E00E94911646
:103DA00062E771E083E795E00C949116CF93DF937F
:103DB000CDB7DEB7C656D1090FB6F894DEBF0FBE39
:103DC000CDBF789484B5826084BD84B5816084BDA4
:103DD00085B5826085BD85B5816085BD80916E00A9
:103DE000816080936E0010928100809181008260DA
:103DF0008093810080918100816080938100809117
:103E00008000816080938000809191008260809327
:103E10009100809191008160809391008091900049
:103E20008160809390008091C10084608093C10084
:103E30008091C10082608093C1008091C100816047
:103E40008093C1008091C30081608093C300809102
:103E5000C00082608093C0008091C2008160809326
:103E6000C20080917A00846080937A0080917A0009
:103E7000826080937A0080917A008E7F80937A00AE
:103E800080917A00806880937A0010925C02109290
:103E90004402109243028091D70081608093D70042
:103EA00080EA8093D80089B58F7E89BD89B582600C
:103EB00089BD09B400FEFDCF61E070E080E090E0D4
:103EC0000E94B8048091D8008F7C80618093D800D4
:103ED0008091E000807F8093E0008091E1008E7E01
:103EE0008093E1008DE08093E2008FEF9FEF90934D
:103EF000D9048093D80462E871E08CEC94E00E94CD
:103F0000D8146BE671E08CEC94E00E94D81462E067
:103F100080E00E94620461E08DE00E94620460E043
:103F20008DE00E94F10361E088E00E94620460E09D
:103F300088E00E94F1030E94981303E010E0873AA2
:103F40009E400CF418C36CE271E083E090E00E94A4
:103F50006B1380914D05882321F088E495E00E9441
:103F60002F0D10922905109227051092240510920A
:103F7000230584E0809322050E946F058B0161E098
:103F8000809122050E94620461E0809122050E94D6
:103F9000F103FFB6F89480914502811127C0EBE947
:103FA000F2E08491ECE7F2E09491E82FF0E0EE0F7C
:103FB000FF1FE35AFD4FA591B491EC91E92321F441
:103FC00061E081E10E94F10361E081E10E9462040D
:103FD0008CB580618CBD8CB580648CBD61E08FE058
:103FE0000E94620461E080E10E94620480914502C7
:103FF0008F5F80934502FFBE82E580931C0581E0C0
:1040000080931D0580911C0590911D050E94B105AE
:104010007AE0F72E8FEF0E948C05FA94F110FACF18
:104020008EE195E00E94B40520E030E0A90160E057
:104030008EE195E00E94CA05F82E8093280531E0B4
:10404000831709F4B0C20E946F05601B710B613DBC
:10405000774050F381E0809323058EE195E00E9444
:10406000810561E088E00E94F1033EEAA32E32E080
:10407000B32EB0921701A0921601809169008F7C37
:1040800080936900EA9A30E020E050E040E06AE086
:1040900070E08EE492E00E942213EA988FEA92E0A8
:1040A000909317018093160160E081E00E94131243
:1040B00081E00E94E41160E081E00E94AB110E9467
:1040C00098138C3A9D400CF468C561E771E0CE010D
:1040D0008F599F4F0E94911661E771E0CE01855A7A
:1040E0009F4F0E94911661E771E0CE018B5A9F4F5E
:1040F0000E94911661E771E0CE01815B9F4F0E94A3
:10410000911661E771E0CE01875B9F4F0E94911687
:1041100063E775E0CE018D5B9F4F0E948816CE014C
:10412000CD960E9449120E949813BC01CE0182963E
:104130000E94181669E775E0CE0101960E94881664
:10414000BE016E5D7F4FCE0101960E94D315BC016A
:10415000CE018D5B9F4F0E94E615CE0101960E9415
:104160004F15CE0182960E944F156EADCE016A307A
:1041700008F0C8C482960E94441660EE71E0CE0139
:1041800001960E949116BE016E5D7F4FCE01019691
:104190000E94D315BC01CE01875B9F4F0E94711610
:1041A000CE0101960E944F15CE0182960E944F15B6
:1041B0006FADCE016A3008F0B3C482960E944416F7
:1041C00060EE71E0CE0101960E949116BE016E5D17
:1041D0007F4FCE0101960E94D315BC01CE01815BB9
:1041E0009F4F0E947116CE0101960E944F15CE017D
:1041F00082960E944F1523966FAD2397CE016A30A9
:1042000008F09CC482960E94441660EE71E0CE01D4
:1042100001960E949116BE016E5D7F4FCE01019600
:104220000E94D315BC01CE018F599F4F0E94711679
:10423000CE0101960E944F15CE0182960E944F1525
:1042400022966FAD2297CE016A3008F085C482961F
:104250000E94441660EE71E0CE0101960E94911614
:10426000BE016E5D7F4FCE0101960E94D315BC0149
:10427000CE01855A9F4F0E947116CE0101960E9471
:104280004F15CE0182960E944F1521966FAD219752
:10429000CE016A3008F06EC482960E94441660EE29
:1042A00071E0CE0101960E949116BE016E5D7F4FB6
:1042B000CE0101960E94D315BC01CE018B5A9F4FAF
:1042C0000E947116CE0101960E944F15CE01829672
:1042D0000E944F158DAD90E01BA21AA21DA21CA238
:1042E0001FA21EA24AE0BE016F5F7F4F8053984F0E
:1042F0000E943026BE016F5F7F4FCE0182960E94E2
:104300000E1669E775E0CE0101960E948816BE017F
:104310006E5D7F4FCE0101960E94D31562EE71E073
:104320000E94BD15BE01675B7F4F0E94D31562EEF0
:1043300071E00E94BD15BE01615B7F4F0E94D315E5
:1043400064EE71E00E94BD15BE016B5A7F4F0E9462
:10435000D31566EE71E00E94BD15BE01655A7F4F10
:104360000E94D31566EE71E00E94BD15BE016F5923
:104370007F4F0E94D315BC01CE018D5B9F4F0E94E1
:10438000E615CE0101960E944F15CE0182960E943D
:104390004F159AE4C92E92E0D92E860128E4E22E28
:1043A000F12CF80181918F01882329F062E070E0FF
:1043B000C7010E949011FFEFEF1AFF0A2CE4E216EA
:1043C000F10479F764EC79E080E090E00E94B804B1
:1043D00088E4E82EF12CF60181916F01882309F41D
:1043E0006AC08E2D0E94450290E080E00E948B11F1
:1043F0000E94EC016AE070E080E090E00E94B80466
:1044000062E070E0C7010E94E5018091CA049091CA
:10441000CB04891B990B0397BCF40E949401182FBD
:104420000E949401912E812CB401682B072E000C60
:10443000880B990B0E94932820E030E040E05CE379
:104440000E94CE282B013C011BA21AA21DA21CA275
:104450001FA21EA28E010F5F1F4F22E044E0C30186
:10446000B2010E94E125009709F492C3BC01CE017C
:1044700082960E940E1669E775E0CE0101960E94B1
:104480008816BE016E5D7F4FCE0101960E94D31546
:10449000BC01CE018D5B9F4F0E94E615CE010196B7
:1044A0000E944F15CE0182960E944F1566E070E083
:1044B000C7010E949011FFEFEF1AFF0A2CE4E216E9
:1044C000F10409F088CF88ED92E19093490280933E
:1044D000480247E163ED71E0CE0101960E94A01809
:1044E000EA8DFB8D3097D9F085818823C1F0BE011C
:1044F0006D5B7F4FCE0101960E94E714BE016D5B9C
:104500007F4F8CEC94E00E94E71468EC70E080E050
:1045100090E00E94B804CE0101960E94571560E019
:104520008DE00E94F103CE018D5B9F4F0E944F15DD
:10453000CE01875B9F4F0E944F15CE01815B9F4F3D
:104540000E944F15CE018B5A9F4F0E944F15CE01EE
:10455000855A9F4F0E944F15CE018F599F4F0E9441
:104560004F150E94C81380E090E0892B09F481CD9B
:104570000E9400007ACD61E08DE00E94F1036CE2C0
:1045800071E080E090E00E94B80460E08DE00E945D
:10459000F1036CE271E080E090E00E94B804015009
:1045A000110949F7D6CC2AEA31E040E050E068E052
:1045B0008EE195E00E94CA0582FF2AC0F09229058B
:1045C00080912905C12CD12CE12C50E4F52E8230AC
:1045D00019F0C12CD12C760120E030E0A90167E36D
:1045E0008EE195E00E94CA05A701960169E28EE17D
:1045F00095E00E94CA05809328058823D1F00E9487
:104600006F05601B710B613D774030F388E023CD6F
:1046100064E0F62E0E94930580932805FA94F11029
:10462000F9CF8A3A11F082E016CD82E08093290515
:10463000C7CF809129058230D1F420E030E0A90174
:104640006AE38EE195E00E94CA05882311F086E0B6
:1046500002CD0E949305807C803C19F483E0809316
:1046600029050E9493050E9493050E9493058EE1FF
:1046700095E00E94810580E580931C0581E0809390
:104680001D050E94D007882309F474C088E495E0D2
:104690000E94870A882309F4E4CC64E175E080E095
:1046A00090E00E94B8041DA21CA288EE93E0A0E056
:1046B000B0E08EA39FA3A8A7B9A78DE291E09BA32A
:1046C0008AA31CAE1BAE1EA641E06FE971E0CE01CD
:1046D00001960E94A0188B819C819DA38CA38D8143
:1046E0009E81AF81B8858EA39FA3A8A7B9A789850E
:1046F0009A85AB85BC858AA79BA7ACA7BDA7DE0121
:104700001D96FE01BE96CE01CB962D912193E81702
:10471000F907D9F78A8D9B8D9CAF8BAF61E771E06C
:10472000CE01CD960E94911661E771E0CE0101960F
:104730000E9491168091100190911101909347026F
:104740008093460201E0CE0182960E944B0F7C01CD
:10475000CE018296E114F10409F4B4C00E94CE1097
:10476000182F8F3271F4CE0182960E94CE108A30BB
:10477000D1F7E9CF80E00E94D007882309F471CCFB
:1047800085CF082E000C990B0E94322C892B81F0CA
:1047900024961FAF249725961FAE259741E050E041
:1047A000BE016D5B7F4FCE01CD960E949115CBCFA0
:1047B0001D3349F6CE0182960E94CE10182F80320A
:1047C000C9F323968EAD9FAD2397892B09F472C050
:1047D0006CEA71E08DAD9EAD0E94682C892B09F0CA
:1047E00069C061E771E0CE0101960E940E161A3091
:1047F000F1F0812F012E000C990BC0970A97A8F4B5
:1048000024961FAF249725961FAE259741E050E0D0
:10481000BE016D5B7F4FCE0101960E949115CE01C6
:1048200082960E94CE10182FE2CF00E0F8CF00232E
:10483000C1F1EDB6FEB60D811E81C8010196EDB73E
:10484000FEB7E81BF90B0FB6F894FEBF0FBEEDBF25
:104850002DB73EB72F5F3F4F6901892B71F0F901EA
:104860000115110549F069817A81A801C9010E94E9
:10487000782CF601E00FF11F1082C6010E94FF257F
:1048800090934702809346020FB6F894FEBE0FBE87
:10489000EDBE01E061E771E0CE01CD960E940E16FB
:1048A00052CF809110019091110190934702809313
:1048B0004602F0CF1A3071F3CE0182960E94CE10DC
:1048C000182FF8CF0E945715809146029091470209
:1048D0009093110180931001CE0101960E944F1513
:1048E000CE01CD960E944F1588ED92E1909349023A
:1048F0008093480265EB71E0CE01CD960E9491163F
:1049000069E775E0CE0101960E9488166FEB71E0B1
:10491000CE0101960E94BD15BC01CE01CD960E942C
:10492000E615CE0101960E944F1569E775E0CE01AC
:1049300001960E94881665EC71E0CE0101960E94F6
:10494000BD15BC01CE01CD960E94E615CE010196A3
:104950000E944F151092CB041092CA04109260046A
:10496000109282041092A90481E08093A80410920E
:10497000A30461E082E00E94F10361E083E00E9411
:10498000F1038091B9008E7F8093B9008091B900C6
:104990008D7F8093B90080E28093B80085E4809396
:1049A000BC0060E081E00E94131281E00E94E411EB
:1049B00060E081E00E94AB1160E082E00E9413128F
:1049C00082E00E94E41160E082E00E94AB1188E680
:1049D0000E9445026EE087E695E00E945C110E940D
:1049E000EC010E944F020E949401182F137E88E66A
:1049F0000E9445026EE087E695E00E945C11612FFF
:104A0000646087E695E00E945C110E94EC010E94C0
:104A1000C8134AE4C42E42E0D42E08E410E0332444
:104A20003394802F0E9445020E94EC015801F7E464
:104A3000AF1AB10881112DC066E070E0C8010E9474
:104A40009011F6013082B501CE0182960E941816AF
:104A500069E775E0CE0101960E9488166FEC71E05F
:104A6000CE0101960E94BD15BE016E5D7F4F0E9472
:104A7000D315BC01CE01CD960E94E615CE0101965C
:104A80000E944F15CE0182960E944F15FFEFEF1A3C
:104A9000FF0A0F5F1F4F2FEFC21AD20A0C34110505
:104AA00009F0BFCF6CEB72E0C7010E946B1347E1C6
:104AB00063ED71E0CE0101960E94A018EA8DFB8D96
:104AC000309771F08581882359F0BE01635C7F4F78
:104AD000CE0101960E94E714CE0101960E9457155F
:104AE000BE01635C7F4F8CEC94E00E94E7146AEF98
:104AF00070E080E090E00E94B804CE01CD960E9464
:104B00004F15B3CA01960E944416BE016F5F7F4FD6
:104B1000CE01875B9F4F0E940415CE01019646CBC4
:104B200001960E944416BE016F5F7F4FCE01815BEC
:104B30009F4F0E940415CE0101965BCB01960E9407
:104B40004416BE016F5F7F4FCE018F599F4F0E9469
:104B50000415CE01019672CB01960E944416BE0147
:104B60006F5F7F4FCE01855A9F4F0E940415CE0183
:104B7000019689CB01960E944416BE016F5F7F4F5C
:104B8000CE018B5A9F4F0E940415CE010196A0CBF7
:104B9000CE0182960E943D156ECCF89430E020E064
:104BA00050E040E06AE070E08EE492E00E94221360
:104BB000D8CC83E795E00E944F1589E795E00C94E7
:104BC0004F15EF920F931F93CF93DF93E80134E0DB
:104BD00047FD34E1042E000C550B57FF03C05195DF
:104BE00041955109E32E022F242FAE010E944A263F
:104BF000CE01DF91CF911F910F91EF900895FC01AD
:104C000088279927E89421912032E9F3293010F080
:104C10002E30C8F32B3241F02D3239F4689404C0A1
:104C20000E942826820F911D219120532A30C0F323
:104C30001EF4909581959F4F0895BB274A3031F41B
:104C4000992322F4BDE2909581959F4F0C943126D3
:104C50007AE0979F902D879F802D910D11240895C4
:104C6000BB27FB015527AA27880F991FAA1FA41746
:104C700010F0A41B83955051B9F7A05DAA3308F03A
:104C8000A95DA193009779F7B111B1931192CB016E
:104C90000C948128A9E0B0E0E0E5F6E20C94A029AC
:104CA0006A01F22EB02E102FFBE3AF2EA01608F4EF
:104CB0001BE31F5F012F27E0AE014F5F5F4F0E9494
:104CC000A927BC018981982F9970913009F43FC0C0
:104CD0009BE2E1FC04C09E2D9170E0FC3AC05E2D89
:104CE0005071E82FE87083FF46C084E0911101C045
:104CF00083E0EF2DE81B8F1508F0E0E0D6018E2F42
:104D000020E2552351F1992329F0D6019C93C60145
:104D100001966C0196012D5F3F4FE2FE24C08EE4A8
:104D2000D6018C9391E411969C93119712968C93D3
:104D3000D9018E2F90E281111BC0E20FF32FF11DDC
:104D400010828EEF9FEF2996ECE00C94BC299DE237
:104D5000C6CF90E2C4CF2D9381508111FCCFCE0EEF
:104D6000D11CE0E0D0CF8EE6D6018C9391E6DBCF6C
:104D70009D938150E0CF482F447082FF3DC084E076
:104D8000911101C083E08F1510F4EF2DE81BD601BF
:104D90008E2F20E2552309F1992329F0D6019C9307
:104DA000C60101966C0196012D5F3F4FE2FE1BC0CC
:104DB00089E4D6018C938EE411968C93119786E446
:104DC00012968C93D9018E2F90E2882309F4B5CFE7
:104DD0009D938150FACF2D9381508111FCCFCE0E3F
:104DE000D11CE0E0D9CF89E6D6018C938EE61196EE
:104DF0008C93119786E6E4CF9B0177FF02C030E0E9
:104E000020E0A1E0B0E0911102C0B0E0A0E0F90123
:104E10003196AE0FBF1F8B2C912CBB2009F461C0C3
:104E20005401EFEFAE1ABE0AAA0DBB1DFA161B06FF
:104E300019F014F04F2D4A1B511188C0E3FC59C0E2
:104E40007601A42FB0E2A1114FC0C40ED11C99234A
:104E500009F45BC040E0D6011196F60190836D0124
:104E6000552309F448C0012F060F9A81582F50711D
:104E700084FF03C0913309F4015010160CF047C0B1
:104E8000093008F008E0EEE2FE2E5B01A01AB1083E
:104E900085019194819491082F3F320729F4D6011E
:104EA000FC92F60131966F016217730794F10217B5
:104EB00013077CF5DB01A21BB30BAA24A394B12C2E
:104EC000AC0EBD1EAA0DBB1D11968C91215031094F
:104ED000D601119628153905F4F0F60180836D018D
:104EE000DBCFB12CA12CA0CFF701B1937F01A15052
:104EF000AACF9111B0CFD601942F50E302C05D9399
:104F000091509111FCCFC40ED11C40E0ACCF01E018
:104F1000BACF80E3DBCF6217730731F4963388F49E
:104F2000953311F4552369F0F6018083FD01842F38
:104F300090E2811108C0A40FB11D1C9290E080E0A6
:104F400002CF81E3F1CF91938150F3CF911183CFC1
:104F50008ACF283008F027E03327DA01990F311D76
:104F600087FD916000966105710539F432602E5F0E
:104F70003D9330E32A95E1F708959F3F30F0803864
:104F80007105610509F03C5F3C5F3D93913008F08D
:104F90008068911DDF93CF931F930F93FF92EF9241
:104FA000192F987F9695E92F96959695E90FFF27EB
:104FB000EA5FFE4F99273327EE24FF24A701E7017C
:104FC00005900894079428F4360FE71EF81E491F31
:104FD000511D660F771F881F991F0694A1F7059032
:104FE000079428F4E70EF81E491F561FC11D770FBE
:104FF000881F991F661F0694A1F70590079428F44F
:10500000F80E491F561FC71FD11D880F991F661F15
:10501000771F0694A1F70590079420F4490F561FB7
:10502000C71FD81F990F661F771F881F0694A9F7FF
:1050300084911095177041F0D695C795579547956F
:10504000F794E7941A95C1F7ECEAF0E068941590AC
:10505000159135916591959105907FE27395E118D1
:10506000F10A430B560BC90BD009C0F7E10CF11E36
:10507000431F561FC91FD01D7EF4703311F48A954B
:10508000E6CFE894015030F0080F0AF40027021729
:1050900008F4202F2395022F7A3328F079E37D93AB
:1050A0002A95E9F710C07D932A9589F6069497957D
:1050B0006795379517951794E118F10A430B560B2E
:1050C000C90BD00998F023957E9173957A3308F037
:1050D00070E37C932013B8F77E9170617D9330F07C
:1050E000839571E37D9370E32A95E1F71124EF90A6
:1050F000FF900F911F91CF91DF91992787FD909598
:105100000895DC01FC01672F71917723E1F7329755
:1051100004C07C916D9370836291AE17BF07C8F392
:105120000895E89409C097FB3EF49095809570959A
:1051300061957F4F8F4F9F4F9923A9F0F92F96E9E3
:10514000BB279395F695879577956795B795F11158
:10515000F8CFFAF4BB0F11F460FF1BC06F5F7F4FF5
:105160008F4F9F4F16C0882311F096E911C0772307
:1051700021F09EE8872F762F05C0662371F096E810
:10518000862F70E060E02AF09A95660F771F881FDF
:10519000DAF7880F9695879597F908950E94E12888
:1051A0000C9455290E94472938F00E944E2920F07E
:1051B000952311F00C943E290C94442911240C944D
:1051C00089290E94662970F3959FC1F3950F50E0DD
:1051D000551F629FF001729FBB27F00DB11D639FA9
:1051E000AA27F00DB11DAA1F649F6627B00DA11D4F
:1051F000661F829F2227B00DA11D621F739FB00DF5
:10520000A11D621F839FA00D611D221F749F332764
:10521000A00D611D231F849F600D211D822F762FFD
:105220006A2F11249F5750409AF0F1F088234AF0DA
:10523000EE0FFF1FBB1F661F771F881F9150504046
:10524000A9F79E3F510580F00C943E290C948929C2
:105250005F3FE4F3983ED4F3869577956795B795CD
:10526000F795E7959F5FC1F7FE2B880F911D9695E7
:10527000879597F9089599278827089597F99F6743
:1052800080E870E060E008959FEF80EC08950024CE
:105290000A941616170618060906089500240A949B
:1052A00012161306140605060895092E0394000C21
:1052B00011F4882352F0BB0F40F4BF2B11F460FFB0
:1052C00004C06F5F7F4F8F4F9F4F089557FD9058D9
:1052D000440F551F59F05F3F71F04795880F97FBBA
:1052E000991F61F09F3F79F0879508951216130674
:1052F0001406551FF2CF4695F1DF08C016161706A3
:105300001806991FF1CF86957105610508940895D7
:10531000E894BB2766277727CB0197F908950E9469
:10532000D129A59F900DB49F900DA49F800D911D34
:10533000112408952F923F924F925F926F927F9225
:105340008F929F92AF92BF92CF92DF92EF92FF9295
:105350000F931F93CF93DF93CDB7DEB7CA1BDB0B41
:105360000FB6F894DEBF0FBECDBF09942A883988E6
:1053700048885F846E847D848C849B84AA84B984ED
:10538000C884DF80EE80FD800C811B81AA81B981F9
:10539000CE0FD11D0FB6F894DEBF0FBECDBFED010D
:1053A0000895A29FB001B39FC001A39F700D811DFE
:1053B0001124911DB29F700D811D1124911D08951E
:1053C0000E94E7296894B1110C94892908950E94DC
:1053D0006E2988F09F5798F0B92F9927B751B0F0F0
:1053E000E1F0660F771F881F991F1AF0BA95C9F769
:1053F00014C0B13091F00E948829B1E008950C9456
:105400008829672F782F8827B85F39F0B93FCCF308
:10541000869577956795B395D9F73EF490958095E5
:10542000709561957F4F8F4F9F4F0895991B79E03D
:1054300004C0991F961708F0961B881F7A95C9F724
:105440008095089597FB072E16F4009407D077FDFA
:1054500009D00E943C2A07FC05D03EF49095819526
:105460009F4F0895709561957F4F0895EE0FFF1F30
:105470000590F491E02D0994AA1BBB1B51E107C0D4
:10548000AA1FBB1FA617B70710F0A61BB70B881FD4
:10549000991F5A95A9F780959095BC01CD01089563
:1054A0000F931F93CF93DF938230910510F482E026
:1054B00090E0E0918105F091820530E020E0B0E0DD
:1054C000A0E0309799F42115310509F44AC0281B52
:1054D000390B24303105D8F58A819B81611571051E
:1054E00089F1FB0193838283FE0111C040815181C8
:1054F0000281138148175907E0F04817590799F4BA
:10550000109761F012960C93129713961C93329693
:10551000CF01DF91CF911F910F91089500938105E5
:1055200010938205F4CF2115310551F0421753072E
:1055300038F0A901DB019A01BD01DF01F801C1CFFB
:10554000EF01F9CF9093820580938105CDCFFE01C5
:10555000E20FF31F819391932250310939832883FD
:10556000D7CF20917F0530918005232B41F42091E6
:105570001E0130911F013093800520937F052091FB
:105580001C0130911D012115310541F42DB73EB7A5
:105590004091200150912101241B350BE0917F05A2
:1055A000F0918005E217F307A0F42E1B3F0B28179C
:1055B000390778F0AC014E5F5F4F2417350748F08C
:1055C0004E0F5F1F5093800540937F058193919309
:1055D0009FCFF0E0E0E09CCFCF93DF930097E9F01E
:1055E000FC01329713821282A0918105B09182054D
:1055F000ED0130E020E01097A1F420813181820F8D
:10560000931F20917F05309180052817390709F0F5
:1056100061C0F0938005E0937F05DF91CF910895FD
:10562000EA01CE17DF07E8F54A815B819E0141154B
:105630005105B1F7E901FB83EA8349915991C40F00
:10564000D51FEC17FD0761F4808191810296840FCC
:10565000951FE90199838883828193819B838A8343
:10566000F0E0E0E012968D919C9113970097B9F5C8
:105670002D913C911197CD010296820F931F20919D
:105680007F05309180052817390739F6309751F595
:105690001092820510928105B0938005A0937F053A
:1056A000BCCFD383C28340815181840F951FC8171B
:1056B000D90761F44E5F5F4F88819981480F591F68
:1056C000518340838A819B81938382832115310595
:1056D00009F0B0CFF0938205E09381059ECFFD01E4
:1056E000DC01C0CF13821282D7CFB0E0A0E0EBE79D
:1056F000FBE20C949C298C01009751F4CB010E9491
:10570000502A8C01C801CDB7DEB7E0E10C94B8296E
:10571000FC01E60FF71F9C0122503109E217F30745
:1057200008F49DC0D901CD91DC911197C617D70718
:1057300098F0C530D10530F3CE010497861797074E
:1057400008F3C61BD70B2297C193D1936D937C931B
:10575000CF010E94EC2AD6CF5B01AC1ABD0A4C01E6
:105760008C0E9D1EA0918105B0918205512C412C7B
:10577000F12CE12C109731F580917F0590918005F7
:105780008815990509F05CC04616570608F058C000
:1057900080911C0190911D01009741F48DB79EB737
:1057A0004091200150912101841B950BE817F907C6
:1057B00008F055C0F0938005E0937F05F9017183EF
:1057C0006083A0CF8D919C91119712966C90129747
:1057D00013967C901397A815B90559F56C0142E012
:1057E000C40ED11CCA14DB0420F1AC014A195B09B8
:1057F000DA011296159780F062827382518340839A
:10580000D9016D937C93E114F10471F0D7011396E3
:10581000FC93EE93129776CF22968C0F9D1FF90181
:1058200091838083F301EFCFF0938205E0938105AC
:1058300069CF4816590608F42C017D01D3019ACF8F
:10584000CB010E94502A7C01009749F0AE01B801BB
:105850000E94542CC8010E94EC2A870153CF10E00B
:1058600000E050CF91110C943B2980538A5018F0DE
:10587000865C0C943F2C089585FD0C943B29806236
:1058800091110C943B2981568A51D8F70895FB0158
:10589000DC0104C08D910190801921F441505040E9
:1058A000C8F7881B990B0895FB01DC0102C0019029
:1058B0000D9241505040D8F70895FC018191861710
:1058C00021F08823D9F7992708953197CF010895BA
:1058D000FB01DC018D91019080190110D9F3990B26
:1058E0000895FB01DC0101900D920020E1F708957D
:1058F000FB01DC014150504048F001900D92002026
:10590000C9F701C01D9241505040E0F7089511E0E1
:10591000C6E5D1E004C0FE010E94362A2196C735B3
:08592000D107C9F7F894FFCF8D
:10592800FFFFFFFFFFFFFFFF00E100000000000096
:105938002C01AF02AF02AF02AF02AF020000830535
:10594800800000C1808100000000000000980F7BEB
:105958000F6B0F420F4B0FCE10D8100000000096AF
:1059680003EB04B703AC03D703BB03C70300000072
:1059780000E10E6903D10CB002000000005C112F99
:10598800111F131F11A702810120110D0A002F00FA
:105998000900544D503131375F6C6F676765725F2E
:1059A8003100537461727420696E205365726961A5
:1059B8006C20566572626F7365206D6F6465007345
:1059C800657474696E67732E74787400696E746593
:1059D8007276616C004C6F676765722D696400565A
:1059E8006261747400446174655F74696D65005424
:1059F8004D500074656D705F6C6F672E7473760020
:085A080030002D0054003A00AB
:00000001FF
