:100000000C94FA010C9423240C944A240C9471242B
:100010000C9498240C9422020C9422020C94BF2479
:100020000C9422020C9422020C94002C0C94872A2B
:100030000C94190C0C9422020C9422020C942202AF
:100040000C9422020C9422020C9422020C942202A0
:100050000C9422020C9422020C9422020C94E624AA
:100060000C9422020C9422020C9422020C94220280
:100070000C9422020C9422020C9422020C94220270
:100080000C9422020C9422020C9422020C94220260
:100090000C94E50D0C9422020C9422020C94220282
:1000A0000C9422020C9422020C9422024126442633
:1000B000332637263D2665266526652648264C26A6
:1000C000502656265A2665266026005EBCE2613F11
:1000D000DD83C29C7E20A3FD1F419DC3217FFCA226
:1000E000401E5F01E3BD3E6082DC237D9FC1421C58
:1000F000FEA0E1BF5D0380DE3C62BEE0025CDF810A
:10010000633D7C22C09E1D43A1FF4618FAA42779B7
:100110009BC584DA3866E5BB5907DB856739BAE4E5
:1001200006581947A5FB7826C49A653BD987045A17
:10013000B8E6A7F91B45C6987A24F8A6441A99C7C9
:10014000257B3A6486D85B05E7B98CD2306EEDB377
:10015000510F4E10F2AC2F7193CD114FADF3702EA5
:10016000CC92D38D6F31B2EC0E50AFF1134DCE90D7
:10017000722C6D33D18F0C52B0EE326C8ED0530D89
:10018000EFB1F0AE4C1291CF2D73CA947628ABF537
:1001900017490856B4EA6937D58B5709EBB5366865
:1001A0008AD495CB2977F4AA4816E9B7550B88D697
:1001B000346A2B7597C94A14F6A8742AC896154B49
:1001C000A9F7B6E80A54D7896B357C3C3E5E2B3DD7
:1001D0003F2F5B5D3B2C2A225C00070605040100D3
:1001E000080A0B0C0D090000000200090F000003B3
:1001F0000401000C000000000000000000000000EE
:10020000000000000004080201104080401020405F
:1002100080408008020401804020100201108010FC
:1002200020404020040404040403040502020202E6
:10023000040302020202060606060606040402027F
:10024000020404000000002300260029002C002FD7
:100250000000000000250028002B002E00310000C7
:10026000000000240027002A002D003000080B00A9
:10027000020202010009040000010202000005243C
:1002800000100105240101010424020605240600D2
:10029000010705810310004009040100020A000063
:1002A000000705020240000007058302400000121B
:1002B000010002EF0201409A230C800001010203B9
:1002C0000112010002000000409A230C800001018D
:1002D0000203014164616672756974004665617468
:1002E0006865722033327534000403090400407AD3
:1002F00010F35A00A0724E18090010A5D4E80000AF
:10030000E87648170000E40B54020000CA9A3B004C
:100310000000E1F505000080969800000040420FC3
:10032000000000A08601000000102700000000E887
:1003300003000000006400000000000A000000004C
:10034000000100000000002C76D888DC674F0823ED
:10035000DFC1DFAE59E1B1B796E5E3E453C63AE653
:1003600051997696E8E6C28426EB898C9B62ED4033
:100370007C6FFCEFBC9C9F40F2BAA56FA5F4900582
:100380005A2AF75C936B6CF9676DC11BFCE0E40DB6
:1003900047FEF520E6B500D0ED902E0300943577AA
:1003A000050080841E080000204E0A000000C80CD2
:1003B000333333330F986E12831141EF8D2114893B
:1003C0003BE65516CFFEE6DB18D1844B381BF77C95
:1003D0001D901DA4BBE424203284725E228100C9DA
:1003E000F124ECA1E53D2700B903030D8A14D517CC
:1003F000CC27CA0311241FBECFEFDAE0DEBFCDBF8A
:1004000011E0A0E0B1E0E6E9FDE602C005900D9242
:10041000AC3EB107D9F725E0ACEEB1E001C01D92CA
:10042000A03AB207E1F713E0C2EFD3E004C022978D
:10043000FE010E943C31C83ED107C9F70E94352F0A
:100440000C94BE360C9400000895EF92FF920F9327
:100450001F93CF93DF9300D000D000D0CDB7DEB78D
:100460007C018B01CE0101960E94180F2A8180E247
:10047000289F900111248B81282B498150E04C5EEC
:100480005F4F542F4427550F242B352BF701318311
:1004900020838D81F0E28F9FC00111242C8130E0F8
:1004A000322F2227330F330F330F822B932B2E81C2
:1004B00030E035952795822B932BF801918380832B
:1004C00026960FB6F894DEBF0FBECDBFDF91CF9159
:1004D0001F910F91FF90EF900895DC01ED91FC9139
:1004E0000190F081E02D0994BC0182E192E00E942C
:1004F000EB0C60E070E082E192E00E946D0282E12C
:1005000092E00E94000D6AE070E080E090E00C94C0
:100510005F25EF92FF920F931F93CF93DF93EB0131
:100520007A018901BC0182E192E00E94EB0CBE01DC
:1005300082E192E00E946D02B70182E192E00E94A6
:100540006D02B80182E192E00E946D0282E192E0C8
:100550000E94000D6AE070E080E090E00E945F255C
:10056000DF91CF911F910F91FF90EF900895EF923F
:100570000F93CF93DF9300D000D000D0CDB7DEB77C
:10058000CE0101960E94180F8D81209108013091B3
:1005900009014E815CE3859FC0011124840F911DE8
:1005A000B9010E9426316F5F7F4F629FC001639F38
:1005B000900D729F900D112480312EE092072CF443
:1005C0009093F5018093F40104C01092F50110920C
:1005D000F4018091F4019091F5016CE370E00E94C8
:1005E0002631262F6093F2017093F3018093F4017A
:1005F0009093F501E12C00E0482F6CE070E086EF6D
:1006000091E00E94801041E061E086EF91E00E945D
:10061000A30F26960FB6F894DEBF0FBECDBFDF91B5
:10062000CF910F91EF90089540E050E064E272E0C6
:1006300082E00E94B32320E030E040E050E06AE036
:1006400070E081E192E00E94D10B82E00E940324DD
:1006500040E061E086EF91E00E94F20F61E086EFFA
:1006600091E00E943E1040E061E086EF91E00C9442
:10067000A30F809106010E94F825BC01882777FD11
:100680008095982F0E94173026EE3FE34EEC50E401
:100690000E94A3300E94E42FCB010895CF92DF92F5
:1006A000EF92FF920F931F93CF93DF938C01C0E0E3
:1006B000D0E06B01EE24D7FCE094FE2CC017D107EC
:1006C00094F461E088E00E949F26C701B6010E9471
:1006D0005F2560E088E00E949F26C701B6010E9466
:1006E0005F252196EBCFDF91CF911F910F91FF9066
:1006F000EF90DF90CF900895CF92DF92EF92FF922C
:100700000F931F93CF93DF938C01C0E0D0E06B0178
:10071000EE24D7FCE094FE2CC017D10794F461E0DE
:100720008DE00E949F26C701B6010E945F2560E010
:100730008DE00E949F26C701B6010E945F25219689
:10074000EBCFDF91CF911F910F91FF90EF90DF9052
:10075000CF9008950E9439036CE271E0873A9E4081
:1007600024F083E090E00C944E0383E090E00C943E
:100770007C036CE271E08BE092E00E94032D6EE25C
:1007800071E085E092E00E94032D65E087EF91E043
:100790000C940A0B85E092E00E94952C8BE092E08D
:1007A0000C94952C1F93CF93DF9342E050E0BC0153
:1007B00082E192E00E94DE0C82E192E00E942D0C28
:1007C0000397DCF482E192E00E94350C182F82E15D
:1007D00092E00E94350CD12F90E0C92FC82BBE01AA
:1007E000882777FD8095982F0E94173020E030E011
:1007F00040E05CE30E94A33000C0DF91CF911F91E5
:100800000895AF92BF92CF92DF92EF92FF920F9333
:100810001F93CF93DF93CDB7DEB7C355D1090FB682
:10082000F894DEBF0FBECDBF0E9439038C3A9D40C5
:100830000CF402C36DE271E0CE01825B9F4F0E9417
:10084000032D6DE271E0CE01885B9F4F0E94032D66
:100850006DE271E0CE018E5B9F4F0E94032D6DE231
:1008600071E0CE01CC960E94032D6DE271E0CE01C5
:10087000C6960E94032D65E072E0CE01C0960E94EC
:10088000662DCE018A960E94180F0E9439034AE015
:10089000BC01CE014C960E94C02D6BE072E0CE01EF
:1008A00001960E94662DBE01645E7F4FCE010196C7
:1008B0000E94BE2EBC01CE01C0960E94A42ECE0185
:1008C00001960E94952CCE014C960E94952C6BA50A
:1008D0004AE0CE016A30F0F44C960E94932D68E312
:1008E00071E0CE0101960E94032DBE01645E7F4F30
:1008F000CE0101960E94BE2EBC01CE01C6960E947A
:100900004F2DCE0101960E94952CCE014C960E944F
:10091000952C0EC001960E94932DBE016F5F7F4FF4
:10092000CE01C6960E946F2DCE0101960E94952C95
:100930006CA54AE0CE016A30F0F44C960E94932DEB
:1009400068E371E0CE0101960E94032DBE01645E52
:100950007F4FCE0101960E94BE2EBC01CE01CC96E7
:100960000E944F2DCE0101960E94952CCE014C96EF
:100970000E94952C0EC001960E94932DBE016F5FC0
:100980007F4FCE01CC960E946F2DCE0101960E9422
:10099000952C6FA54AE0CE016A30F8F44C960E947F
:1009A000932D68E371E0CE0101960E94032DBE01F4
:1009B000645E7F4FCE0101960E94BE2EBC01CE0127
:1009C000825B9F4F0E944F2DCE0101960E94952C75
:1009D000CE014C960E94952C0FC001960E94932D3B
:1009E000BE016F5F7F4FCE01825B9F4F0E946F2DD4
:1009F000CE0101960E94952C6EA54AE0CE016A3088
:100A0000F8F44C960E94932D68E371E0CE010196B4
:100A10000E94032DBE01645E7F4FCE0101960E94AD
:100A2000BE2EBC01CE01885B9F4F0E944F2DCE0190
:100A300001960E94952CCE014C960E94952C0FC0D9
:100A400001960E94932DBE016F5F7F4FCE01885BA0
:100A50009F4F0E946F2DCE0101960E94952C6DA58F
:100A60004AE0CE016A30F8F44C960E94932D68E378
:100A700071E0CE0101960E94032DBE01645E7F4F9E
:100A8000CE0101960E94BE2EBC01CE018E5B9F4F0F
:100A90000E944F2DCE0101960E94952CCE014C96BE
:100AA0000E94952C0FC001960E94932DBE016F5F8E
:100AB0007F4FCE018E5B9F4F0E946F2DCE0101961E
:100AC0000E94952C6AA570E06053784F4AE0CE01F1
:100AD0004C960E94EC2D6BE072E0CE0101960E94D4
:100AE000662DBE01645E7F4FCE0101960E94BE2E30
:100AF0006AE371E00E94D12EBE016A5C7F4F0E94C2
:100B0000BE2E6AE371E00E94D12EBE01645C7F4F6D
:100B10000E94BE2E6CE371E00E94D12EBE016E5B7E
:100B20007F4F0E94BE2E6EE371E00E94D12EBE0167
:100B3000685B7F4F0E94BE2E6EE371E00E94D12E53
:100B4000BE01625B7F4F0E94BE2EBC01CE01C096EB
:100B50000E94A42ECE0101960E94952CCE014C96A7
:100B60000E94952CAEEEEA2EA1E0FA2E08E410E0E9
:100B7000F70181917F01882349F020E630E042E0CF
:100B800050E061E070E0C8010E9489020F5F1F4FD2
:100B90000C34110569F764EC79E080E090E00E9484
:100BA0005F25FEEEEF2EF1E0FF2E08E410E0F701E6
:100BB00081917F01882339F1C8010E9474026BE0A2
:100BC00072E0CE01C0960E94A42EC8010E94D203FA
:100BD000AB01BC0122E0CE0101960E94482EBE016D
:100BE0006F5F7F4FCE01C0960E94A42ECE0101966A
:100BF0000E94952C20E630E046E050E061E070E095
:100C0000C8010E9489020F5F1F4F0C34110579F64D
:100C10005E01FAE0AF0EB11CECE0EE2EF12CBE014D
:100C2000645E7F4F87EF91E00E942D0B882309F4CB
:100C3000ACC067E0CE014C960E94C50B9BA1891306
:100C4000EECF8C8D823269F028F4803109F0D8C063
:100C500011E01BC0883229F08B3309F0D1C013E0BA
:100C600014C010E012C087EF91E00E94B40AF601B0
:100C700081936F01EA15FB05B1F768E0CE0101969B
:100C80000E94C50B9985891769F187EF91E00E9451
:100C9000D509BE01645E7F4F87EF91E00E94D00AC4
:100CA00041E064E487EF91E00E94720A68EE73E02D
:100CB00080E090E00E945F2587EF91E00E94D509D7
:100CC000BE01645E7F4F87EF91E00E94D00A40E052
:100CD0006EEB87EF91E00E94720A9E012F5F3F4FFB
:100CE0006901C1CFCA80D12CDC2CCC248981C82ACF
:100CF000113089F018F0133001F121C08D81807618
:100D000019F4F8EFCF221BC08032B9F08034B9F467
:100D1000E894C0F814C063E0CC0CDD1C6A95E1F7E0
:100D20008885803161F48F81F701E81BF109CF01DB
:100D3000F0EFCF22C80ED91E02C02CEFC2226BE00A
:100D400072E0CE01C0960E94A42EB601882777FDDE
:100D50008095982F0E94173020E030E040E85DE356
:100D60000E94A330AB01BC0122E0CE0184960E9418
:100D7000182EBE016C5D7F4FCE01C0960E94A42E3E
:100D8000CE0184960E94952C4ACF87EF91E00E9475
:100D9000F80A6AEF70E080E090E00E945F2585E24B
:100DA00092E0909323038093220323E140E451E0F7
:100DB00066ED72E0CE0101960E94FC13CE01019611
:100DC0000E94D6128823C1F0BE01605D7F4FCE0124
:100DD00001960E943928BE01605D7F4F84E395E053
:100DE0000E94392868EC70E080E090E00E945F2566
:100DF000CE0101960E94C41260E08DE00E949F2601
:100E0000CE01C0960E94952CCE01C6960E94952CCC
:100E1000CE01CC960E94952CCE018E5B9F4F0E94F6
:100E2000952CCE01885B9F4F0E94952CCE01825B52
:100E30009F4F0E94952C0BC0F89420E030E040E0DA
:100E400050E06AE070E081E192E00E94D10BCD5A5F
:100E5000DF4F0FB6F894DEBF0FBECDBFDF91CF914D
:100E60001F910F91FF90EF90DF90CF90BF90AF90C8
:100E700008950E9414030E9401040C94B702BF92CB
:100E8000CF92DF92EF92FF920F931F93CF93DF9356
:100E9000CDB7DEB7ED970FB6F894DEBF0FBECDBF6E
:100EA0000DB71EB7CE014C960E94621221E04CE4B1
:100EB00051E066ED72E0CE0101960E94FC138B8139
:100EC0009C819F8F8E8F8D819E81AF81B88588A3F5
:100ED00099A3AAA3BBA389859A85AB85BC858CA35E
:100EE0009DA3AEA3BFA38DE0FE013D96DE019896C3
:100EF00001900D928A95E1F78A8D9B8D9EAB8DAB0B
:100F00006DE271E0CE01C7960E94032D6DE271E0A3
:100F1000CE0101960E94032D809108019091090154
:100F20009093ED018093EC01BB24B394CE014C96D9
:100F30000E949512892B09F48EC0CE014C960E9416
:100F4000F411682F8F3239F4CE014C960E94F411BF
:100F50008A30D1F7EBCF992787FD90956DAF0E942E
:100F60008A336DAD892B29F0CE01C7960E94AB2E36
:100F7000DDCF6D33D9F6CE014C960E94F411F82ED8
:100F800080E2F816C1F369E571E0CE01C7960E94D0
:100F9000EB2E882309F44FC06DE271E0CE0101967B
:100FA0000E947B2D9AE0F916B1F02F2D332727FDF3
:100FB0003095205331092A30310530F46F2DCE01A0
:100FC00001960E94AB2E01C0B12CCE014C960E941E
:100FD000F411F82EE7CFBB2029F1CDB6DEB64D8156
:100FE0005E814F5F5F4F8DB79EB7841B950B0FB629
:100FF000F8949EBF0FBE8DBF01967C0120E030E0CB
:10100000BC01CE0101960E940A2FC7010E946C33D9
:101010009093ED018093EC010FB6F894DEBE0FBE05
:10102000CDBE12C080910801909109019093ED010D
:101030008093EC0109C09AE0F91631F0CE014C968C
:101040000E94F411F82EF7CF6DE271E0CE01C79641
:101050000E947B2D6BCFCE014C960E94C4128091D2
:10106000EC019091ED019093090180930801CE016C
:1010700001960E94952CCE01C7960E94952C0FB622
:10108000F8941EBF0FBE0DBFED960FB6F894DEBFED
:101090000FBECDBFDF91CF911F910F91FF90EF90C9
:1010A000DF90CF90BF900895BF92CF92DF92EF92E2
:1010B000FF920F931F93CF93DF93CDB7DEB7AD971A
:1010C0000FB6F894DEBF0FBECDBF40E855E260E03A
:1010D00070E084E395E00E94C62762E671E084E355
:1010E00095E00E944B2862E080E00E94662661E065
:1010F0008DE00E94662660E08DE00E949F2661E000
:1011000088E00E94662660E088E00E949F260E9498
:10111000AA0364E086ED92E00E94E312811105C00B
:1011200061E088E00E949F2630C164E175E080E0C4
:1011300090E00E945F250E943F0785E292E0909335
:101140002303809322036FE771E0CE0188960E940B
:10115000032D6BE072E0CE0101960E94662D69E8D6
:1011600071E0CE0101960E94D12EBC01CE0188967D
:101170000E94A42ECE0101960E94952C6BE072E095
:10118000CE0101960E94662D6FE871E0CE010196B6
:101190000E94D12EBC01CE0188960E94A42ECE01C1
:1011A00001960E94952C82E192E00E94C40C86EF89
:1011B00091E00E94120F40E061E086EF91E00E9412
:1011C000F20F61E086EF91E00E943E1040E061E0A6
:1011D00086EF91E00E94A30F40E062E086EF91E08D
:1011E0000E94F20F62E086EF91E00E943E1040E024
:1011F00062E086EF91E00E94A30F81E090E00E9400
:101200004B110E94B70201E010E0E12CF12CBB244D
:10121000B394680187E4C80ED11CB60182E192E064
:101220000E94EB0C82E192E00E94000D811134C01B
:1012300020E630E046E050E061E070E0C6010E9448
:101240008902F801E351FE4FB0824AE0B801CE01B5
:1012500001960E94C02D6BE072E0CE014C960E9478
:10126000662D69E971E0CE014C960E94D12EBE0137
:101270006F5F7F4F0E94BE2EBC01CE0188960E94F8
:10128000A42ECE014C960E94952CCE0101960E9470
:10129000952C8FEFE81AF80A0F5F1F4F05301105E4
:1012A00009F0B7CFBE016F5F7F4F87EF91E00E94DB
:1012B0002D0B882381F167E0CE0101960E94C50BBA
:1012C00098858913EFCF4AE0682FCE014C960E9493
:1012D000932D6BE072E0CE0182960E94662D6DE93F
:1012E00071E0CE0182960E94D12EBE01645E7F4FD6
:1012F0000E94BE2EBC01CE0188960E94A42ECE0173
:1013000082960E94952CCE014C960E94952C8FEFD0
:10131000E81AF80AC7CF87EF91E00E94F80A6AEF4F
:1013200070E080E090E00E945F256CEB72E0C70106
:101330000E944E0323E140E451E066ED72E0CE01ED
:1013400001960E94FC13CE0101960E94D6128823BA
:1013500059F0BE01685D7F4FCE0101960E94392889
:10136000CE0101960E94C412BE01685D7F4F84E3E6
:1013700095E00E9439286AEF70E080E090E00E94DA
:101380005F25CE0188960E94952CAD960FB6F894F5
:10139000DEBF0FBECDBFDF91CF911F910F91FF90A8
:1013A000EF90DF90CF90BF900895FF920F931F931F
:1013B000CF93DF93FC010081C181D281F8948981B0
:1013C000F02EF0948F21898378941DE7115029F134
:1013D00082E090E00E94992588818023B9F3F894F7
:1013E0008A818F218A838981802B8983789480EEFA
:1013F00091E00E949925F89489818F21898386E460
:1014000090E00E9499258881802311E009F010E086
:1014100078948AE991E00E949925812FDF91CF91FC
:101420001F910F91FF9008951F93CF93DF93FC01BD
:101430001081C181D281912F909560FF12C0F894E4
:101440008A8189238A838981812B89838AE090E03C
:101450000E9499258A81812B8A83789487E390E082
:1014600011C0F8948A8189238A838981812B898399
:1014700081E490E00E9499258A81812B8A83789467
:1014800085E090E0DF91CF911F910C9499250F9307
:101490001F93CF93DF93FC011081C181D281F89417
:1014A0008981812B89838A81012F009580238A83FA
:1014B00083E090E00E9499258981802389838AE0D6
:1014C00090E00E949925C881789485E390E00E947D
:1014D00099251C2381E009F480E0DF91CF911F91D1
:1014E0000F910895CF92DF92EF92FF920F931F9387
:1014F000CF93DF931F92CDB7DEB76C01E62E08E0E5
:1015000010E0FF24F39461E09F2D9E2109F460E038
:10151000C60149830E94140AFF0C01501109498138
:101520000115110581F7411115C0F894D6011196E6
:10153000ED91FC91129791818C9180958923818303
:101540001196ED91FC91129792818C91809589234F
:10155000828378940F90DF91CF911F910F91FF902C
:10156000EF90DF90CF900895EF92FF920F931F932B
:10157000CF93DF938C01C8E0D0E0F12CEE24E3940C
:10158000C8010E94470A8111FE28EE0C2197C1F77D
:101590008F2DDF91CF911F910F91FF90EF900895C4
:1015A000CF92DF92FF920F931F93CF93DF931F92FF
:1015B000CDB7DEB78C01F62E40E065E579830E9459
:1015C000720ACF2C7981D72E88E0F82EF60161912E
:1015D0006F0140E0C8010E94720AFA94B9F70F90B7
:1015E000DF91CF911F910F91FF90DF90CF900895E1
:1015F000FC0113861586148627E030E0DF01A20F78
:10160000B31F13961C922115310519F02150310991
:10161000F5CF08951F93CF93DF93EC01162F60E071
:10162000812F0E946626612F70E0FB01EB5FFD4F6A
:10163000E491E883FB01EC5DFD4FE491F0E0EE0FF7
:10164000FF1FED5BFD4F859194919A838983CE01B5
:10165000DF91CF911F910C94F80AAF92BF92CF9275
:10166000DF92EF92FF920F931F93CF93DF931F921E
:10167000CDB7DEB75C01E62ED72EFC018585811142
:101680005DC0C5010E94D509811105C0F501138611
:10169000158614866EC040E060EFC5010E94720A94
:1016A00001E0F12CC12C11E0C5010E94470A682F0E
:1016B000C50169830E94470A6981613019F481304C
:1016C000B9F433C02F2D30E068131BC0F5018385BA
:1016D000181730F4E20FF31F8381802349F402C00E
:1016E000181731F060E0193058F4F501148708C07C
:1016F000F501EF0DF11D8381802B838361E009C02B
:10170000C12EF501E20FF31F8381902F909589235D
:101710008383C5010E94140A1F5F000F11F4F39424
:1017200001E0F7E0FF1508F0BFCF113438F0F50104
:10173000C386C11018C081E0858715C0F5011386E6
:101740001586148680E0EE2DFD2D20E030E0D501D9
:10175000A20FB31F13969C9191932F5F3F4F283098
:101760003105A9F706C0F5018381882339F381E0AB
:10177000EACF0F90DF91CF911F910F91FF90EF90E3
:10178000DF90CF90BF90AF900895DC0180E0615072
:1017900038F0ED91E827F0E0E653FF4F8491F7CF62
:1017A00008954115510529F4EAE7F0E080818F772B
:1017B00080836A307105B1F063FF02C088E201C026
:1017C00088E06770682B88E190E00FB6F894A895E0
:1017D000809360000FBE60936000E0E6F0E08081DF
:1017E00080648083232B79F483B7817F846083BFF7
:1017F000F89483B7816083BF7894889583B78E7F90
:1018000083BF78940EC083B7817F846083BFF894D0
:1018100083B7816083BF7894889583B78E7F83BFB9
:101820007894452B29F4EAE7F0E080818068808392
:1018300008951F920F920FB60F9211248F9388E193
:101840000FB6F89480936000109260000FBE8F91E5
:101850000F900FBE0F901F9018958091420290E05C
:1018600020914302821B91090895209143028091A7
:101870004202281750F4E22FF0E0EC5BFD4F80812C
:1018800090E02F5F2093430208958FEF9FEF08951C
:10189000E091430280914202E81730F4F0E0EC5B03
:1018A000FD4F808190E008958FEF9FEF0895089598
:1018B000CF92DF92EF92FF920F931F93CF93DF931C
:1018C0007C01CB018A0120911E02222389F0EB01C9
:1018D0006B01C40ED51ECC15DD0569F06991D701E9
:1018E000ED91FC910190F081E02DC7010995F3CFB6
:1018F000642F0E94BC0DC801DF91CF911F910F9101
:10190000FF90EF90DF90CF900895CF93DF931F92D9
:10191000CDB7DEB7698320911E022223D1F020913A
:101920001F02203240F021E030E0FC0133832283AB
:1019300080E090E015C080912002E82FF0E0EF5D9C
:10194000FD4F998190838F5F8093200280931F02C7
:1019500005C061E0CE0101960E94BC0D81E090E0DF
:101960000F90DF91CF910895FC011382128248EE0F
:1019700053E060E070E0448355836683778384EAB4
:1019800091E0918380830895109243021092420265
:101990001092200210921F020C94070D862F4132E4
:1019A00008F040E264E472E00E94250D10924302C8
:1019B00080934202089521E00C94CE0C21E00C9417
:1019C000CE0C81E080931E026093410210922002AF
:1019D00010921F0208950C94E10C0F93062F21E042
:1019E00040911F0261E272E0809141020E94690D04
:1019F0001092200210921F0210921E020F91089561
:101A000061E00C94ED0C82E192E00C94B40C109225
:101A1000D10281E08093CF021092CE0261E082E099
:101A20000E949F2661E083E00E949F26E9EBF0E0A0
:101A300080818E7F808380818D7F808380E2809310
:101A4000B80085E48093BC000895413208F03FC09F
:101A50009091D1029111FCCF91E09093D10220930B
:101A6000CF022FEF209364021092A902240F20933B
:101A7000A8029093D0029091D002880F892B809376
:101A8000D0028091CE02813041F41092CE0280913A
:101A9000D0028093BB0085EC01C085EE8093BC0032
:101AA0008091D1028130E1F38091A902841710F472
:101AB0004091A9022AEA32E0FB01D9018A2F821B58
:101AC000841718F48D918193F9CF842F089580E0C5
:101AD00008950F93413208F046C09091D1029111C0
:101AE000FCCF92E09093D1020093CF029FEF9093AE
:101AF00064021092A9024093A802FB016AEA72E014
:101B0000DB019A2F961B941718F491919D93F9CFAE
:101B10001092D0029091D002880F892B8093D0022E
:101B20008091CE02813041F41092CE028091D00299
:101B30008093BB0085EC01C085EE8093BC0022231E
:101B400021F08091D1028230E1F3809164028F3FD5
:101B500061F080916402803251F0809164028033A0
:101B600041F483E007C081E005C080E003C082E06B
:101B700001C084E00F910895613298F42091D10260
:101B8000243089F460938602FC0188E892E0DC014D
:101B90002A2F281B261718F421912D93F9CF80E0C6
:101BA000089581E0089582E0089585ED8093BC005A
:101BB0008091BC0084FDFCCF1092D102089585EC89
:101BC0008093BC001092D10208951F920F920FB61D
:101BD0000F9211242F933F934F935F936F937F93B3
:101BE0008F939F93AF93BF93EF93FF938091B9002F
:101BF000887F803609F49CC068F5883209F45BC0A0
:101C000090F4803109F454C038F4882309F4F5C005
:101C1000883009F44DC0F5C0883109F44CC08032D9
:101C200009F45DC0EEC0803409F468C048F4803324
:101C300009F455C0883309F0E4C080936402A8C059
:101C4000803509F44FC0883509F45DC0883409F047
:101C5000D8C0D5C0883909F4C6C0A8F4883709F4BB
:101C600067C038F4883609F463C0803709F460C06F
:101C7000C8C0883809F4B7C0803909F45FC080381B
:101C800009F0BFC05BC0803B09F485C038F4803ADE
:101C900009F466C0883A09F47EC0B3C0803C09F4F8
:101CA000A6C0883C09F4A3C0883B09F489C0A9C038
:101CB0008091D00210C09091A9028091A80298173B
:101CC00070F5E091A90281E08E0F8093A902F0E007
:101CD000E655FD4F80818093BB0085EC85C08093E5
:101CE00064028DC0E091A90281E08E0F8093A90269
:101CF0008091BB00F0E0E655FD4F80839091A902F2
:101D00008091A8026DC0E091A90281E08E0F8093BE
:101D1000A9028091BB00F0E0E655FD4F80838091E1
:101D2000CF0281116CC081E08093CE0284EA60C052
:101D300083E08093D10210926502CFCF809165023B
:101D4000803208F050C0E091650281E08E0F8093F0
:101D500065028091BB00F0E0EA59FD4F8083BDCF62
:101D600080916502803230F4E0916502F0E0EA593A
:101D7000FD4F10820E94D50D6091650270E0E091E8
:101D8000CA02F091CB0286E692E0099510926502B4
:101D90000E94DF0D36C084E08093D102109287024A
:101DA00010928602E091CC02F091CD0209958091CB
:101DB0008602811105C081E080938602109288021C
:101DC000E091870281E08E0F80938702F0E0E85770
:101DD000FD4F80818093BB009091870280918602A5
:101DE000981708F47ACF85E88093BC000AC085EC88
:101DF0008093BC001092D10204C0109264020E9431
:101E0000D50DFF91EF91BF91AF919F918F917F91F0
:101E10006F915F914F913F912F910F900FBE0F9057
:101E20001F90189582E192E00E94C40C81E0089511
:101E3000CF92DF92EF92FF920F931F93CF93DF9396
:101E4000EC0168E670E082E192E00E94EB0C60E059
:101E500082E192E00E94850C82E192E00E94000DF6
:101E600047E050E068E670E082E192E00E94DE0C1C
:101E700082E192E00E94350C8F77982F92959F70A7
:101E80001AEF082F919F000D112482E192E00E9429
:101E9000350C9C01332794E0359527959A95E1F709
:101EA000F82E129FF00C112482E192E00E94350C72
:101EB0009C01332744E0359527954A95E1F7E82EB4
:101EC000129FE00C112482E192E00E94350C82E125
:101ED00092E00E94350C9C01332754E035952795FC
:101EE0005A95E1F7D82E129FD00C112482E192E08E
:101EF0000E94350C9C01332764E0359527956A953F
:101F0000E1F7C82E129FC00C112482E192E00E94DA
:101F1000350C9C01332774E0359527957A95E1F7C8
:101F2000129F800D11248883C982DA82EB82FC82A1
:101F30000D83CE01DF91CF911F910F91FF90EF9014
:101F4000DF90CF9008951F93CF93DF93162FD42F58
:101F500068E670E082E192E00E94EB0C6EE070E0D7
:101F600082E192E00E946D0282E192E00E94000D07
:101F7000C82F81110FC041E068E682E192E00E9423
:101F8000DB0C82E192E00E94350CC82F82E192E0E6
:101F90000E94000D115021E030E0012E01C0220FFF
:101FA0000A94EAF7DD2319F0DC2FD22B03C0D22FDD
:101FB000D095DC2368E670E082E192E00E94EB0CB1
:101FC0006EE070E082E192E00E946D026D2F82E18E
:101FD00092E00E94850C82E192E0DF91CF911F9107
:101FE0000C94000D1F93CF93DF93162FD42F68E628
:101FF00070E082E192E00E94EB0C6EE070E082E122
:1020000092E00E946D0282E192E00E94000D41E0A8
:1020100068E682E192E00E94DB0C82E192E00E949D
:10202000350CC82F82E192E00E94000D115021E092
:1020300030E0012E01C0220F0A94EAF7DD2319F0E7
:10204000DC2FD22B03C0D22FD095DC2368E670E0C2
:1020500082E192E00E94EB0C6EE070E082E192E09F
:102060000E946D026D2F82E192E00E94850C82E158
:1020700092E0DF91CF911F910C94000DCF93DF93ED
:10208000C62F68E670E082E192E00E94EB0C6FE000
:1020900070E082E192E00E946D0282E192E00E9493
:1020A000000D41E068E682E192E00E94DB0C82E1F3
:1020B00092E00E94350CD82F82E192E00E94000D40
:1020C00068E670E082E192E00E94EB0C6FE070E065
:1020D00082E192E00E946D02C15021E030E001C037
:1020E000220FCA95EAF7622F60956D2382E192E094
:1020F0000E94850C82E192E0DF91CF910C94000D5B
:10210000AF92BF92DF92EF92FF920F931F93CF9304
:10211000DF931F92CDB7DEB75C01562FEAE0842F24
:102120006E2F0E940631382F330F380F330F340FC4
:10213000822F0E940631F82EFF0CF80EFF0CF20ED3
:10214000802F0E940631182F110F180F110F100F3A
:102150008E2D0E940631082F000F080F000F0E0D64
:1021600050FD306851FF03C08F2D8068F82E52FD5E
:10217000106854FD106453FD006857FD1BC068E6ED
:1021800070E082E192E039830E94EB0C67E082E12B
:1021900092E00E94850C3981632F82E192E00E94D7
:1021A000850C82E192E00E94000DDD24D394B8E01A
:1021B000EB2E04C0F2E0DF2EABE0EA2E68E670E022
:1021C00082E192E00E94EB0C6E2D82E192E00E948F
:1021D000850C6F2D82E192E00E94850C82E192E0F5
:1021E0000E94000D68E670E082E192E00E94EB0C34
:1021F00061E06E0D82E192E00E94850C612F82E128
:1022000092E00E94850C82E192E00E94000D68E657
:1022100070E082E192E00E94EB0C62E06E0D82E1E0
:1022200092E00E94850C602F82E192E00E94850C72
:1022300082E192E00E94000D41E06D2DC5010E94F7
:10224000F20F6D2DC5010F90DF91CF911F910F916E
:10225000FF90EF90DF90BF90AF900C943E10CF9323
:10226000C82F68E682E192E00E94E10C6C2F82E1C7
:1022700092E00E94850C82E192E00E94000D41E014
:1022800068E682E192E00E94DB0C82E192E00E942B
:10229000350CCF910895CF93DF93EC018EE00E942F
:1022A0002F11837EC130D10519F4C82FC46001C03D
:1022B000C82B68E682E192E00E94E10C6EE082E1C8
:1022C00092E00E94850C6C2F82E192E00E94850CC6
:1022D00082E192E0DF91CF910C94000DCF93CFB7C4
:1022E000F8948091D502811127C0E5E3F2E0849152
:1022F000E6E1F2E09491E82FF0E0EE0FFF1FE15AE3
:10230000FD4FA591B4918C91892321F461E081E185
:102310000E949F2661E081E10E9466268CB5806163
:102320008CBD8CB580648CBD61E08FE00E94662618
:1023300061E080E10E9466268091D5028F5F8093E4
:10234000D502CFBFCF910895CF93DF931F92CDB722
:10235000DEB76983DC01ED91FC910280F381E02D11
:1023600041E050E0BE016F5F7F4F09950F90DF9114
:10237000CF910895CF93DF93EC01898D9A8D0097CB
:1023800059F0FC01138212820E94571DE98DFA8DCB
:1023900022813381232B31F081E090E09B838A837B
:1023A00080E090E0DF91CF910895FC01818D928DC6
:1023B000009711F00C94F71A0895CF93DF931F92B2
:1023C000CDB7DEB741E050E0BE016F5F7F4F0E94A6
:1023D0000819019719F4898190E002C08FEF9FEFEF
:1023E0000F90DF91CF910895FC01818D928D009720
:1023F00011F00C94DD118FEF9FEF08950F931F9351
:10240000CF93DF938C01FC01818D928D0097B9F001
:102410000E94DD11EC018F3FFFEF9F0799F0F8015B
:10242000818D928DFC01428553856485758541506F
:102430005109610971090E945B1ACE0105C080E053
:1024400090E002C08FEF9FEFDF91CF911F910F912E
:102450000895CF92DF92EF92FF920F931F93CF9345
:10246000DF93EC017B016A011B821A8208EE13E004
:1024700020E030E00C831D832E833F8384EB91E0CA
:10248000998388838DE190E00E947B319A8F898FB8
:10249000009779F02DE1F701DC0101900D922A956A
:1024A000E1F74CE050E0B601CE010C960E94CF332C
:1024B000188EDF91CF911F910F91FF90EF90DF90D9
:1024C000CF900895FC011382128248EE53E060E041
:1024D00070E0448355836683778384EB91E0918336
:1024E0008083128E118E14860895DC015996ED9129
:1024F000FC915A97309729F062857385848595857C
:1025000008956FEF7FEFCB010895DC015996ED91AF
:10251000FC915A97309729F0638974898589968947
:10252000089560E070E0CB010895CF92DF92EF92C2
:10253000FF92CF93DF93EC01898D9A8D892BD9F08F
:10254000CE010E9485126B017C01CE010E947512A2
:10255000A7019601261B370B480B590BDA01C9015D
:10256000811530E89307A105B10538F08FEF9FE79B
:10257000A0E0B0E002C080E090E0DF91CF91FF905A
:10258000EF90DF90CF900895CF93DF93EC01898D8A
:102590009A8D009741F00E943E1B898D9A8D0E9472
:1025A00013321A8E198EDF91CF910895DC0159965E
:1025B000ED91FC915A97309721F081E0958191112E
:1025C00001C080E008950F931F93CF93DF93EC0138
:1025D000462F61E00E94CC15811102C080E01DC031
:1025E0008E01045F1F4F41E0BE01C8010E949E2280
:1025F000882359F0B801CE018A960E94B81891E05C
:10260000811101C090E0892F08C040E0BE01C801DF
:102610000E949E22882311F3EDCFDF91CF911F916D
:102620000F910895FC01DB0112968D919C911397F7
:102630009383828386EC91E09183808314968C91BE
:102640001497848315968C911597858316964D91D2
:102650005D916D917C91199746835783608771874F
:102660001A964D915D916D917C911D97428753878C
:10267000648775871E964D915D916D917C91519700
:1026800046875787608B718B52968C915297828BBD
:1026900053964D915D916D917C915697438B548BE0
:1026A000658B768B57964D915D916D917C915A9784
:1026B000478B508F618F728F5B968D919C915C9749
:1026C000948F838F08954F925F926F927F928F9233
:1026D0009F92AF92BF92CF92DF92EF92FF920F93B1
:1026E0001F93CF93DF93CDB7DEB7C754D1090FB691
:1026F000F894DEBF0FBECDBF6C014A013901665DA3
:102700007F4F5E018EE1A80EB11CC5010E9412131D
:102710001C821B8286EC91E09A8389831E8284014D
:10272000FE0131967F015A2C4B2C6FE270E0C801FC
:102730000E94B4330097E9F1F80120812F3219F497
:102740000F5F1F4FF2CF801B8D3008F08CE0A82E5A
:10275000B12CA501B801CE01CB960E94CF33EBE39B
:10276000F0E0EC0FFD1FEA0DFB1D1082C7010E9477
:102770003E1B21E0AE01455C5F4F652D742DC70106
:102780000E94721C811109C0F6011382128286EC2C
:1027900091E091838083158216C00A0D1B1D852D43
:1027A000942D0E943E1BC2015E2C4F2CE92EF82E68
:1027B000BCCF08191909F30111830083652D742D0D
:1027C000C6010E941213C601C95BDF4F0FB6F89411
:1027D000DEBF0FBECDBFDF91CF911F910F91FF9054
:1027E000EF90DF90CF90BF90AF909F908F907F90B1
:1027F0006F905F904F9008959F92AF92BF92CF924B
:10280000DF92EF92FF920F931F93CF93DF93CDB799
:10281000DEB7C955D1090FB6F894DEBF0FBECDBFE4
:102820007C016B015A01922E9E01285A3F4FCE0126
:10283000CB960E9463136A960EAD1FAD6A970A0D80
:102840001B1DF801808181110AC0BE01655C7F4FAC
:10285000CE0101960E94121340EC51E041C019A232
:1028600018A286EC91E09F8F8E8F1BA221968FADD0
:102870002197811104C0C7010E94621237C08250A3
:10288000823060F4B601665D7F4F292DA801CE012C
:102890004E960E94721C811110C0EDCF292DA80107
:1028A000BE01655C7F4FCE014E960E94721C88234C
:1028B00011F3CE01CB960E943E1B892D867041F00C
:1028C00049A95AA96BA97CA9CE014E960E945B1A10
:1028D000BE01625E7F4FCE0101960E941213A801D5
:1028E000BE016F5F7F4FC7010E942912C701C75AFF
:1028F000DF4F0FB6F894DEBF0FBECDBFDF91CF9193
:102900001F910F91FF90EF90DF90CF90BF90AF900D
:102910009F9008951092DB021092DC021092DF0269
:102920001092E10282E090E0A0E0B0E08093E20249
:102930009093E302A093E402B093E5021092F902AF
:10294000109203031092020386EC91E0909301032E
:10295000809300031092050308959FB7F894209187
:10296000D4028091D202213019F48DBB9FBF08950B
:102970008FBF08952091D402222399F03FB7F89495
:102980002091D402213059F42DB32093D2024DB3BB
:102990002091D302209524232DBB3FBF02C030934A
:1029A000D2028CBD9DBD08958EBD00000DB407FE02
:1029B000FDCF8EB508958FEF0C94D41461E0FC0127
:1029C00084810E949F2680911F03882339F01092F2
:1029D0001F038091D40281110C94AD140895CF93FC
:1029E000DF93EC0180911F03811109C081E0809386
:1029F0001F0380912003909121030E94BA1460E08C
:102A00008C81DF91CF910C949F26CF93DF93EC01C3
:102A10008E81882389F08F8198859C012F5F3F4F9D
:102A200038872F838230924018F40E94DB14F3CF52
:102A3000CE010E94DE141E82DF91CF91089567308F
:102A400028F026E1FC01258380E008956230A1F0A2
:102A500050F4662379F06130D9F480E58093200347
:102A6000609321031AC0643059F040F0653081F45E
:102A700082E508C080E506C080E50BC081E502C0A4
:102A800081E507C08093200381E0809321030895AE
:102A900082E5809320031092210381E008950F9333
:102AA0001F93CF93DF93EB010E9430258B010E948F
:102AB000DB148F3F49F00E943025601B710B6C17AF
:102AC0007D07A8F380E001C081E0DF91CF911F91E5
:102AD0000F910895CF92DF92FF920F931F93CF93A0
:102AE000DF9300D000D0CDB7DEB76C01F62E29837E
:102AF0003A834B835C830E940515C6010E94EF1444
:102B00006CE271E0C6010E944F158F2D80640E9417
:102B1000D41408E110E05C814B813A812981DA010B
:102B2000C901002E04C0B695A795979587950A947C
:102B3000D2F729833A834B835C830E94D4140850D4
:102B4000110929813A814B815C81083F8FEF180779
:102B500031F7FF2029F0E8E0FE1621F08FEF03C0E7
:102B600085E901C087E80E94D41410E00E94DB14BC
:102B7000F601828787FF04C01F3F11F01F5FF6CF69
:102B80000F900F900F900F90DF91CF911F910F91A9
:102B9000FF90DF90CF900895BF92CF92DF92EF9297
:102BA000FF920F931F93CF93DF93EC01B62E1B86FA
:102BB00019861E821D824C830E9430258B0161E0A4
:102BC0008C810E94662661E08C810E949F260E9473
:102BD0006E1182E58093200381E080932103809130
:102BE0002003909121030E94BA142AE0F22E8FEF65
:102BF0000E94D414FA94D9F78091D40281110E94D2
:102C0000AD14CE010E94EF1420E030E0A90160E095
:102C1000CE010E946A15F82E8A8781E0F81649F0E5
:102C20000E943025601B710B613D774068F381E0A5
:102C30004BC02AEA31E040E050E068E0CE010E945B
:102C40006A1582FF02C0FB860DC094E0F92E0E9437
:102C5000DB148A87FA94D9F78A3A11F082E034C0FB
:102C600082E08B878B85823031F4C12CD12CE12C12
:102C700080E4F82E03C0C12CD12C760120E030E096
:102C8000A90167E3CE010E946A15A701960169E2D6
:102C9000CE010E946A158A87882349F00E94302558
:102CA000601B710B613D774048F388E00DC08B8558
:102CB000823031F520E030E0A9016AE3CE010E94C4
:102CC0006A15882381F086E08D83CE010E94DE1490
:102CD00080E0DF91CF911F910F91FF90EF90DF90F7
:102CE000CF90BF9008950E94DB14807C803C11F44B
:102CF00083E08B870E94DB140E94DB140E94DB14AC
:102D0000CE010E94DE146B2DCE01DF91CF911F9179
:102D10000F91FF90EF90DF90CF90BF900C941F1514
:102D20000F931F93CF93DF93EC010E9430258B010B
:102D30000E94DB148A878F3F49F40E943025601B74
:102D4000710B6D327140A0F38FE003C08E3F39F0FC
:102D50008DE08D83CE010E94DE1480E001C081E011
:102D6000DF91CF911F910F910895CF92DF92EF9253
:102D7000FF920F931F93CF93DF93EC01690101152D
:102D8000110509F462C0C801820F931F813092407F
:102D900008F05DC08E81882371F088819981AA81B5
:102DA000BB81481759076A077B0729F48F819885EB
:102DB000C816D90610F5488359836A837B838B85AF
:102DC000833039F039E0440F551F661F771F3A955D
:102DD000D1F79A01AB0161E1CE010E946A15882307
:102DE00019F083E08D8333C0CE010E9490168823B2
:102DF00071F118861F8281E08E838F8198858C15F2
:102E00009D0540F40E94DB148F8198850196988778
:102E10008F83F3CF6701E00EF11ECE14DF0431F093
:102E20000E94DB14F60181936F01F7CF8F819885A3
:102E3000800F911F98878F832985222319F0811590
:102E4000924018F0CE010E94051581E004C0CE0129
:102E50000E94DE1480E0DF91CF911F910F91FF90CF
:102E6000EF90DF90CF900895EF92FF920F931F9312
:102E7000790100E012E020E030E00E94B5161F91D9
:102E80000F91FF90EF900895CF92DF92EF92FF9213
:102E90000F931F93CF93DF9300D0CDB7DEB78C0194
:102EA000862F49835A830E94D4144981C42E5A81A3
:102EB000D52EE12CF12CF60181916F010E94D414E2
:102EC000FFEFEF1AFF0AE11482E0F806A1F78FEF97
:102ED0000E94D4148FEF0E94D4140E94DB14F801D6
:102EE00082878F71853039F081E18583C8010E9426
:102EF000DE1480E001C081E00F900F90DF91CF9150
:102F00001F910F91FF90EF90DF90CF9008950F9356
:102F10001F93CF93DF93EC018901411551056105A2
:102F2000710511F482E132C08B85833039F089E07C
:102F3000440F551F661F771F8A95D1F79A01AB0181
:102F400068E1CE010E946A15882311F084E01EC05A
:102F5000A8016EEFCE010E9444178823C1F068E5F6
:102F600072E0CE010E944F15811102C085E10EC0B2
:102F700020E030E0A9016DE0CE010E946A158111C8
:102F800004C00E94DB14882339F084E18D83CE01D4
:102F90000E94DE1480E004C0CE010E94DE1481E0B5
:102FA000DF91CF911F910F91089580E580932003C9
:102FB00081E0809321030895CF93DF93EC019C017E
:102FC0002A5F3F4F41E050E060E070E08B8D9C8DC8
:102FD0000E9433218823A1F04F89588D698D7A8D05
:102FE000452B462B472B71F44E815F81688579858F
:102FF0004F8B588F698F7A8F8C8180688C8302C049
:1030000080E001C081E0DF91CF910895CF92DF92FF
:10301000EF92FF921F93CF93DF93EC010E94DC1796
:10302000811102C080E04BC0EB8DFC8DCE80DF8033
:10303000E884F98482E0C81AD108E108F10805841F
:1030400004C0CC0CDD1CEE1CFF1C0A94D2F7468594
:10305000578560897189C40ED51EE61EF71E14813E
:1030600081E0C81AD108E108F108112361F0C70115
:10307000B601610F711D811D911D0E947D1F882366
:1030800089F21150F2CFEB8DFC8DC12C82E0D82E4D
:10309000E12CF12C058404C0CC0CDD1CEE1CFF1CC3
:1030A0000A94D2F74B895C896D897E894C0D5D1D30
:1030B0006E1D7F1D4B8B5C8B6D8B7E8B81E0DF915A
:1030C000CF911F91FF90EF90DF90CF900895CF9315
:1030D000DF93EC01462F6E857F85888999890E9450
:1030E000421F882341F08A8920E2829FC001112477
:1030F000855D9C4F02C080E090E0DF91CF91089504
:10310000282FFB018BE030E231938150E9F7A22FA9
:10311000B92F20E037E09D91992319F19E3219F0E3
:10312000EAECF1E008C03A3011F128E03AE0F3CFE0
:1031300031964917E1F044914111FACF3217B8F0B6
:103140004FED490F4E3598F441E0420FFB01E20F7D
:10315000F11D2FE9290F2A3108F490529083242F72
:10316000DACF81E0FB019081903209F480E008958C
:103170000F931F93CF93DF93EC018B018D818823F5
:1031800011F080E040C0FB0187898031B1F482E01A
:103190008D831F8A188E198E1A8E408D518D60E096
:1031A00070E095E0440F551F661F771F9A95D1F781
:1031B0004B8B5C8B6D8B7E8B15C0803211F783E05F
:1031C0008D83FB01428D538D648D758D4F8B588F90
:1031D000698F7A8F9E012D5E3F4FC8010E94272084
:1031E000882379F21C8F0B8F81E08C831E821F82D3
:1031F000188619861A861B861C861D861E861F86C3
:10320000188A198A1A8ADF91CF911F910F91089518
:103210002F923F924F925F926F927F928F929F92E6
:10322000AF92BF92CF92DF92EF92FF920F931F93D4
:10323000CF93DF93EC016B015A018D81811103C0A3
:103240008FEF9FEFDAC08C8180FFFACF4B895C89CA
:103250006D897E898A859B85AC85BD852501612C1C
:10326000712C8A019B01081B190B2A0B3B0B0415BF
:1032700015052605370518F45A01A81AB90A2501BB
:103280001E0126E0220E311C4114510409F47BC0BA
:103290004A855B856C857D854A0181E09822ED81B8
:1032A0008A019B01F9E03695279517950795FA95C0
:1032B000D1F78B8D9C8DE23051F4FC01628D738DC2
:1032C000848D958D600F711F821F931F3EC0FC017E
:1032D00074807A94702281149104C9F4711017C01B
:1032E000452B462B472B49F48F89988DA98DBA8D94
:1032F0008E839F83A887B9870AC04E815F816885C6
:10330000798591010E94A31F882309F499CFEB8D41
:10331000FC8D6E817F818885998562507109810954
:103320009109058404C0660F771F881F991F0A94AE
:10333000D2F70685178520893189600F711F821F9A
:10334000931F670D711D811D911D20E032E028192A
:10335000390932012415350508F439012C8126FD7F
:1033600004C06114F2E07F06A1F500910A011091FA
:103370000B0120910C0130910D016017710782073C
:10338000930719F426C0C50138C076018301940162
:10339000AB01BC018091290390912A030E94B516CC
:1033A000882309F44DCFC60CD71C04C0E81BF90BC9
:1033B000CE0EDF1E8A859B85AC85BD85860D971D4B
:1033C000A11DB11D8A879B87AC87BD87461857080A
:1033D0005BCF40E00E94421F882309F431CFC40133
:1033E000855D9C4FD6019C01260D371DFC01E2171F
:1033F000F307E1F241914D93FACFDF91CF911F9105
:103400000F91FF90EF90DF90CF90BF90AF909F9083
:103410008F907F906F905F904F903F902F90089586
:10342000FF920F931F93CF93DF931F92CDB7DEB719
:103430008C01FC018581823018F480E090E034C07A
:10344000F8014285538564857585A5E07695679575
:1034500057954795AA95D1F7F42FFF70FF2E41E0BD
:1034600050E0BE016F5F7F4FC8010E9408190197AD
:1034700019F4298130E002C02FEF3FEF2F3F3F4F7B
:10348000E1F2F8014285538564857585415E5F4FA1
:103490006F4F7F4F4287538764877587F0E2FF9EA7
:1034A000C0011124855D9C4F0F90DF91CF911F913A
:1034B0000F91FF9008954F925F926F927F92AF921B
:1034C000BF92CF92DF92EF92FF920F931F93CF9311
:1034D000DF93EC016A017B012D81222309F457C09F
:1034E0008B899C89AD89BE8984179507A607B70784
:1034F00008F44DC04EC08A859B85AC85BD85EB8D9B
:10350000FC8DE585F0E03996AC01BD0141505109D3
:10351000610971090E2E04C07695679557954795F8
:103520000A94D2F797018601015011092109310946
:1035300004C03695279517950795EA95D2F7041795
:10354000150726073707B0F58F89988DA98DBA8D95
:103550008E839F83A887B987280139015E0186E0A1
:10356000A80EB11C411451046104710461F14E8133
:103570005F816885798595018B8D9C8D0E94A31F45
:1035800091E0491A5108610871088111EBCF80E080
:103590001FC02230C1F0C114D104E104F10409F0CC
:1035A000AACF1E821F82188619861A861B861C8641
:1035B0001D860DC0892B8A2B8B2B31F2041B150B1A
:1035C000260B370BC9CFCA86DB86EC86FD8681E0E9
:1035D000DF91CF911F910F91FF90EF90DF90CF90EF
:1035E000BF90AF907F906F905F904F9008950F9332
:1035F0001F93CF93DF93EC018D818823C9F18C81D8
:1036000087FF30C061E0CE010E9467188C010097EF
:1036100079F18D81823048F44B895C896D897E898E
:10362000F801448F558F668F778F4F89588D698D3C
:103630007A8DF801538F428F758B648BE091220352
:10364000F0912303309759F0B8016A5E7F4FC801AB
:1036500048960995F801808D918D938B828B8C8192
:103660008F778C83DF91CF911F910F910C94071F5F
:1036700080E0DF91CF911F910F910895CF93DF9359
:10368000EC010E94F71A882319F01D8281E001C025
:1036900080E0DF91CF9108954F925F926F927F9279
:1036A000AF92BF92CF92DF92EF92FF920F931F9350
:1036B000CF93DF9300D000D0CDB7DEB75C016A01B5
:1036C0007B01FC0185818130F1F4848181FF1BC085
:1036D000F50183899489A589B68984179507A6077A
:1036E000B70788F0892B8A2B8B2B09F479C0F50159
:1036F0004284538464847584B701A601C5010E9485
:103700005B1A811102C080E06CC0F501838D948D3D
:10371000C114D104E104F10471F44789508D618D25
:10372000728D0E944822882371F3F501178A108E4A
:10373000118E128E3AC0F5014681578160857185E0
:103740009E012F5F3F4F0E94A31F8823E1F2498112
:103750005A816B817C81F501838D948DFC012789D1
:10376000203129F408EF1FEF20E030E004C008EF1B
:103770001FEF2FEF3FE04017510762077307A8F4D0
:103780000E944822882309F4BECFF5014681578163
:10379000608571850FEF1FEF2FEF3FE0838D948DD4
:1037A0000E949220882309F4AECFF501C38AD48AFF
:1037B000E58AF68A848180688483C5010E94F71AAD
:1037C000882309F4A0CFB701A6014C145D046E0450
:1037D0007F0410F4B301A201C5010E945B1A01C06D
:1037E00081E00F900F900F900F90DF91CF911F917C
:1037F0000F91FF90EF90DF90CF90BF90AF907F90B0
:103800006F905F904F900895FF920F931F93CF9307
:10381000DF93EC01F42E80E2689FF0011124E55D56
:10382000FC4F8385817129F0842F827411F080E030
:1038300053C06A8B80910A0190910B01A0910C01F9
:10384000B0910D018E879F87A88BB98B44895589CC
:1038500060E070E0BA0155274427028D138D20E007
:1038600030E0402B512B622B732B4F8B588F698F7D
:103870007A8F8385887151F4048D158D268D378D4F
:103880000B8B1C8B2D8B3E8B81E00CC0803179F62D
:103890009E012D5E3F4F8B8D9C8D0E94272088239B
:1038A00031F284E08D838F2D8F708C831E821F8276
:1038B000188619861A861B861C861D86F6FE0BC086
:1038C00040E050E0BA01CE01DF91CF911F910F91FE
:1038D000FF900C944C1B81E0DF91CF911F910F91D1
:1038E000FF900895AF92BF92CF92DF92EF92FF9236
:1038F0000F931F93CF93DF93CDB7DEB72B970FB600
:10390000F894DEBF0FBECDBF7C016B01CA01B22EA1
:10391000F70125812111B9C0BE016F5F7F4F0E9461
:103920008018882309F4B1C0F601838D948DF701C6
:10393000948F838FF6011682178210861186128665
:10394000138614861586A12CF6010285138524851D
:10395000358583899489A589B689081719072A07A7
:103960003B07E8F545E036952795179507954A9565
:10397000D1F70F70C6010E94101A009709F485C094
:10398000FC012081222311F0253EB9F4A1100EC0C4
:10399000F701028B40910A0150910B0160910C01DB
:1039A00070910D0146875787608B718BFC01808178
:1039B000AA24A3948111C8CF12C04BE050E0BC01EF
:1039C000CE0101960E949E33892B09F0BDCF8B2D2D
:1039D0008073803309F459C04B2D602F52C08B2D5A
:1039E0008271823109F051C0AA2041F061E0C70123
:1039F0000E9467188C01009779F447C0F601858111
:103A0000823009F442C0C6010E9406188823E9F1F9
:103A1000F701128A0BE213E080E2F80111928A9515
:103A2000E9F78BE0FE013196D80101900D928A955D
:103A3000E1F7E0912203F0912303309739F0B801C8
:103A4000625F7F4FC8014096099509C081E298E204
:103A5000F801918B808B80E098E097878687F8014A
:103A600080899189938B828B918F808F86859785B2
:103A7000978B868B0E94071F882339F04B2DF70107
:103A80006289C7010E94041C01C080E02B960FB61A
:103A9000F894DEBF0FBECDBFDF91CF911F910F9184
:103AA000FF90EF90DF90CF90BF90AF9008952F924E
:103AB0003F924F925F926F927F928F929F92AF92BE
:103AC000BF92CF92DF92EF92FF920F931F93CF930B
:103AD000DF9300D000D01F92CDB7DEB78C017B0101
:103AE0003A01DC0115968C9115978130C9F4149632
:103AF0008C9181FF15C082FF1BC0F8014389548956
:103B00006589768982859385A485B585841795070F
:103B1000A607B70769F0C8010E945B1A811108C0A7
:103B200081E090E0F8019383828380E090E046C1D9
:103B3000630180C0D8015B968D919C915C97FC01DC
:103B4000F481F150B501A40129E076956795579568
:103B500047952A95D1F7F423FD8321E09222FF2394
:103B600009F474C080E092E08819990956018C1517
:103B70009D0508F45C01D8015B96ED91FC915C9782
:103B800016962D903D904D905C901997B2E02B1AAF
:103B9000310841085108058404C0220C331C441C20
:103BA000551C0A94D2F786859785A089B189280E7D
:103BB000391E4A1E5B1EED812E0E311C411C511C0C
:103BC000A114F2E0BF0609F088C080910A0190912B
:103BD0000B01A0910C01B0910D0182159305A40574
:103BE000B50559F48FEF9FEFDC0180930A019093A4
:103BF0000B01A0930C01B0930D019701B201A1013B
:103C00008091290390912A030E948717882309F441
:103C100087CF9EEFF91ACA18DB08F80182859385D1
:103C2000A485B5858A0D9B1DA11DB11D8287938733
:103C3000A487B587D8011A968D909D90AD90BC90C1
:103C40001D97C114D10409F075CF8AC08114910465
:103C500009F088CF16964D915D916D917C911997E1
:103C6000411551056105710559F457968D919D9146
:103C70000D90BC91A02D0097A105B10541F521C083
:103C80009E012F5F3F4F0E94A31F882309F44ECF50
:103C900089819A81AB81BC81F801238D348DF90132
:103CA0002789203129F448EF5FEF60E070E004C01D
:103CB00048EF5FEF6FEF7FE084179507A607B70720
:103CC00030F0C8010E94DC1781114CCF29CFF801D8
:103CD00086839783A087B18745CF8114910429F506
:103CE000D8011A964D915D916D917C911D975396D7
:103CF0008D919D910D90BC91A02D481759076A0791
:103D00007B0798F00E94071F882309F409CF2092AF
:103D10000A0130920B0140920C0150920D018091EA
:103D2000280381608093280308C041E0C201B101EB
:103D30000E94421F882309F4F3CEC401855D9C4F85
:103D4000D7019C012A0D3B1DFC01E217F30719F076
:103D50004D914193FACFE81BF90BEE0EFF1E5BCF9E
:103D600053968D919D910D90BC91A02DF8012481C9
:103D700088159905AA05BB0538F4838A948AA58A13
:103D8000B68A206824830CC080912203909123037B
:103D9000892B31F06114710419F02068F801248333
:103DA000D80114968C9183FD02C0C30107C0C801DD
:103DB0000E94F71A882309F4B3CEF7CF0F900F9023
:103DC0000F900F900F90DF91CF911F910F91FF9067
:103DD000EF90DF90CF90BF90AF909F908F907F90AB
:103DE0006F905F904F903F902F900895CF93DF9307
:103DF0001F92CDB7DEB7698341E050E0BE016F5F2F
:103E00007F4F0E94571D0F90DF91CF9108958091B1
:103E10002803882399F140910A0150910B01609188
:103E20000C0170910D012BE233E0809129039091F8
:103E30002A030E948717882319F140912403509187
:103E400025036091260370912703411551056105F3
:103E5000710591F02BE233E08091290390912A03C0
:103E60000E948717882361F0109224031092250383
:103E700010922603109227031092280381E00895E0
:103E800080E00895CF92DF92EF92FF92CF936B0183
:103E90007C01C42F80910A0190910B01A0910C012B
:103EA000B0910D018C159D05AE05BF05D1F00E94A6
:103EB000071F811102C080E01AC02BE233E0B70176
:103EC000A6018091290390912A030E943417882328
:103ED00091F3C0920A01D0920B01E0920C01F09292
:103EE0000D01809128038C2B8093280381E0CF91D2
:103EF000FF90EF90DF90CF900895CF92DF92EF92F6
:103F0000FF926B017C010E94071F8823B1F0EBE256
:103F1000F3E0119285E0EB32F807D9F7C0920A017D
:103F2000D0920B01E0920C01F0920D0180912803D8
:103F300081608093280381E001C080E0FF90EF90D2
:103F4000DF90CF9008958F929F92AF92BF92CF92C1
:103F5000DF92EF92FF920F931F93CF93DF938C0129
:103F60006A017B01E901FC0181859285A385B48505
:103F70000196A11DB11D84179507A607B70710F478
:103F800080E058C0F801438954896589768987891A
:103F9000803129F4BB27AF2D9E2D8D2D09C0D7016F
:103FA000C60127E0B695A795979587952A95D1F7ED
:103FB0004C015D01840E951EA61EB71EC501B401FD
:103FC00080900A0190900B01A0900C01B0900D011F
:103FD000681579058A059B0589F4F8018789803180
:103FE00099F4DD24EE24FF24F601EE0FFF1FE55DBA
:103FF000FC4F80819181A0E0B0E017C040E00E94BA
:10400000421F8111EACFBCCFE894C7F8DD24EE242B
:10401000FF24F601EE0FFF1FEE0FFF1FE55DFC4FC3
:1040200080819181A281B381BF7088839983AA83A3
:10403000BB8381E0DF91CF911F910F91FF90EF90B3
:10404000DF90CF90BF90AF909F908F9008954F9248
:104050005F926F927F92AF92BF92CF92DF92EF9278
:10406000FF920F931F93CF93DF9300D000D0CDB773
:10407000DEB78C0149835A836B837C835901C12C41
:10408000D12C7601412C42E0542E612C712C4981B7
:104090005A816B817C819E012F5F3F4FC8010E9436
:1040A000A31F882359F1D301C201F801058404C07C
:1040B000880F991FAA1FBB1F0A94D2F7C80ED91EDA
:1040C000EA1EFB1E49815A816B817C818789803180
:1040D00029F488EF9FEFA0E0B0E004C088EF9FEFE5
:1040E000AFEFBFE0481759076A077B0780F2F50179
:1040F000C082D182E282F38281E001C080E00F9031
:104100000F900F900F90DF91CF911F910F91FF9023
:10411000EF90DF90CF90BF90AF907F906F905F90C7
:104120004F9008954F925F926F927F928F929F92DD
:10413000AF92BF92CF92DF92EF92FF920F931F93B5
:10414000CF93DF93EC016A017B01280139014230F2
:1041500051056105710508F474C049855A856B8560
:104160007C854F5F5F4F6F4F7F4F4C155D056E0530
:104170007F0508F466C08B889C88AD88BE888F89CF
:10418000803129F477276F2D5E2D4D2D09C0B701A1
:10419000A601E7E07695679557954795EA95D1F79B
:1041A000840E951EA61EB71E40910A0150910B0168
:1041B00060910C0170910D0184169506A606B70654
:1041C00071F48F89803199F4DD24EE24FF24F60107
:1041D000EE0FFF1FE55DFC4F5182408218C040E0AA
:1041E000C501B4010E94421F8111EBCF2AC0E8949F
:1041F000C7F8DD24EE24FF24F601EE0FFF1FEE0FBB
:10420000FF1FE55DFC4F4082518262827382809184
:1042100028038160809328038A89823080F08D8111
:104220009E81AF81B885880D991DAA1DBB1D809305
:10423000240390932503A0932603B093270381E0E2
:1042400001C080E0DF91CF911F910F91FF90EF901F
:10425000DF90CF90BF90AF909F908F907F906F90A6
:104260005F904F9008952F923F924F925F926F927E
:104270007F929F92AF92BF92CF92DF92EF92FF9286
:104280000F931F93CF93DF93CDB7DEB760970FB631
:10429000F894DEBF0FBECDBF5C014D875E876F8790
:1042A000788B1901D9014D905D906D907C904114EF
:1042B00051046104710431F0BFEF4B1A5B0A6B0AC1
:1042C0007B0A10C0FC014080518062807380992479
:1042D00093940D851E852F853889013011052105A0
:1042E000310509F0912CD50119962D913D914D91F3
:1042F0005C911C972F5F3F4F4F4F5F4F29873A8745
:104300004B875C87730162011D821E821F821886A3
:10431000F50181859285A385B4850D811E812F814C
:104320003885081719072A073B0708F056C0298562
:104330003A854B855C852C153D054E055F0550F48F
:10434000A2E0CA2ED12CE12CF12CB2E04B2E512C44
:10435000612C712C9E012F5F3F4FB701A601C50153
:104360000E94A31F8823C9F149815A816B817C81F6
:10437000D701C6010196A11DB11D452B462B472B28
:1043800019F02C013D010FC0AC01BD0144195509C4
:10439000660977090D851E852F85388940175107D5
:1043A0006207730779F02D813E814F8158852F5F19
:1043B0003F4F4F4F5F4F2D833E834F8358876C0194
:1043C0007D01A6CF0FEF1FEF2FEF3FE0B701A60152
:1043D000C5010E949220811118C080E041C0D70120
:1043E000C6010197A109B1098D839E83AF83B88768
:1043F00097018601AC01BD01C5010E94922088236E
:1044000061F3CD80DE80EF80F8844C145D046E048F
:104410007F0428F3D1014D915D916D917C914115FF
:1044200051056105710599F4F10140825182628262
:1044300073829920A1F0FFEF4F1A5F0A6F0A7F0A7B
:10444000D5014D925D926D927C92139708C09301B5
:104450008201C5010E9492208111E6CFBECF81E08A
:1044600060960FB6F894DEBF0FBECDBFDF91CF913F
:104470001F910F91FF90EF90DF90CF90BF90AF9082
:104480009F907F906F905F904F903F902F900895F6
:10449000AF92BF92CF92DF92EF92FF920F931F9352
:1044A000CF93DF9300D000D0CDB7DEB75C016A01B7
:1044B0007B0182E090E0A0E0B0E0F5018083918391
:1044C000A283B3839E012F5F3F4FB701A601C501B1
:1044D0000E94A31F882311F100E010E09801B701AA
:1044E000A601C5010E9492208823C1F0C980DA800C
:1044F000EB80FC80F5018789803129F488EF9FEFFC
:10450000A0E0B0E004C088EF9FEFAFEFBFE0C816B7
:10451000D906EA06FB06B0F281E001C080E00F9008
:104520000F900F900F90DF91CF911F910F91FF90FF
:10453000EF90DF90CF90BF90AF9008958F929F92B1
:10454000AF92BF92CF92DF92EF92FF920F931F93A1
:10455000CF93DF93EC01142F70932A036093290308
:10456000442341F1453010F080E0EFC040E060E0CE
:1045700070E0CB010E94421F8823B1F320E1129F1B
:10458000F0011124E752FB4F80818F7769F7848512
:104590009585A685B78584369105A105B10520F3DB
:1045A000C084D184E284F384C114D104E104F10411
:1045B00021F4DACFC12CD12C760140E0C701B6013D
:1045C0000E94421F882381F2809136039091370325
:1045D0008115924049F630913B03332329F28091B3
:1045E000390390913A03892B09F4BECF2091380307
:1045F000222309F4B9CF3A8B2C831D8630E041E0A9
:1046000050E06D85062FCA01062E02C0880F991F43
:104610000A94E2F72817390731F081E0860F8D8779
:10462000683078F3A1CF20914103309142032115E6
:10463000310519F040E050E008C020914F0330915F
:10464000500340915103509152032D833E834F8379
:1046500058878091390390913A0346015701880E9B
:10466000991EA11CB11C8B8A9C8AAD8ABE8AE091DE
:104670003C03F0913D03F98FE88FA0913B03B0E03C
:104680000E944F31680D791D8A1D9B1D6A8F7B8F9B
:104690008C8F9D8F15E0EE0FFF1F1A95E1F7E1500B
:1046A000FE4FEF2FFF27E695DC01CB018E0F9F1FFA
:1046B000A11DB11D8E879F87A88BB98B80903E036B
:1046C00090903F038114910419F0A12CB12C08C0E3
:1046D00080904B0390904C03A0904D03B0904E03FC
:1046E000A7019601281B390B4A0B5B0BDA01C901A4
:1046F000880D991DAA1DBB1D04C0B695A795979559
:1047000087950A95D2F789879A87AB87BC87853FBB
:104710003FE09307A105B10510F48CE014C0853F7C
:104720009F4FA105B10510F480E10DC080915703A2
:1047300090915803A0915903B0915A038A8F9B8F8F
:10474000AC8FBD8F80E28F8B81E0DF91CF911F9185
:104750000F91FF90EF90DF90CF90BF90AF909F9020
:104760008F9008950895853008F04CC0E82FF0E050
:10477000EE0FFF1FE25FFE4F718360838230E1F036
:1047800018F4813069F004C0833019F1843071F17C
:10479000809169008C7F842B80936900E89A08954A
:1047A00080916900440F551F440F551F837F842B50
:1047B00080936900E99A08958091690034E0440F7C
:1047C000551F3A95E1F78F7C842B80936900EA9A14
:1047D00008958091690026E0440F551F2A95E1F75E
:1047E0008F73842B80936900EB9A089580916A00FF
:1047F00094E0440F551F9A95E1F78F7C842B8093AA
:104800006A00EE9A08958530E8F4823061F018F479
:10481000813039F004C0833041F0843041F0E898B1
:1048200007C0E99805C0EA9803C0EB9801C0EE986C
:10483000E82FF0E0EE0FFF1FE25FFE4F82EB93E206
:104840009183808308951F920F920FB60F921124C7
:104850002F933F934F935F936F937F938F939F9388
:10486000AF93BF93EF93FF93E0910E01F0910F018F
:104870000995FF91EF91BF91AF919F918F917F919A
:104880006F915F914F913F912F910F900FBE0F90BD
:104890001F9018951F920F920FB60F9211242F930D
:1048A0003F934F935F936F937F938F939F93AF93B8
:1048B000BF93EF93FF93E0911001F09111010995DF
:1048C000FF91EF91BF91AF919F918F917F916F91E8
:1048D0005F914F913F912F910F900FBE0F901F90BE
:1048E00018951F920F920FB60F9211242F933F939A
:1048F0004F935F936F937F938F939F93AF93BF93E8
:10490000EF93FF93E0911201F09113010995FF914C
:10491000EF91BF91AF919F918F917F916F915F9137
:104920004F913F912F910F900FBE0F901F901895B0
:104930001F920F920FB60F9211242F933F934F9314
:104940005F936F937F938F939F93AF93BF93EF93F7
:10495000FF93E0911401F09115010995FF91EF91FA
:10496000BF91AF919F918F917F916F915F914F9187
:104970003F912F910F900FBE0F901F9018951F928F
:104980000F920FB60F9211242F933F934F935F9383
:104990006F937F938F939F93AF93BF93EF93FF9307
:1049A000E0911601F09117010995FF91EF91BF91E8
:1049B000AF919F918F917F916F915F914F913F91B7
:1049C0002F910F900FBE0F901F9018951F920F926E
:1049D0000FB60F9211242F933F938F939F93AF9312
:1049E000BF9380912C0590912D05A0912E05B0913B
:1049F0002F0530912B0526E0230F2D3720F402964A
:104A0000A11DB11D05C029E8230F0396A11DB11DED
:104A100020932B0580932C0590932D05A0932E05B4
:104A2000B0932F058091300590913105A09132050A
:104A3000B09133050196A11DB11D8093300590936F
:104A40003105A0933205B0933305BF91AF919F918B
:104A50008F913F912F910F900FBE0F901F9018953F
:104A60002FB7F89460912C0570912D0580912E053B
:104A700090912F052FBF08953FB7F894809130058E
:104A800090913105A0913205B091330526B5A89BD0
:104A900005C02F3F19F00196A11DB11D3FBF66272C
:104AA000782F892F9A2F620F711D811D911D43E070
:104AB000660F771F881F991F4A95D1F708958F9227
:104AC0009F92AF92BF92CF92DF92EF92FF926B01D3
:104AD0007C010E943C254B015C01C114D104E1041E
:104AE000F104F1F00E94482F0E943C2568197909D1
:104AF0008A099B09683E73408105910570F321E0A6
:104B0000C21AD108E108F10888EE880E83E0981EE9
:104B1000A11CB11CC114D104E104F10429F7DDCFBB
:104B2000FF90EF90DF90CF90BF90AF909F908F90CD
:104B300008958330910528F0880F991F04970197F5
:104B4000F1F70895789484B5826084BD84B581605E
:104B500084BD85B5826085BD85B5816085BDEEE685
:104B6000F0E0808181608083E1E8F0E01082808164
:104B700082608083808181608083E0E8F0E08081D2
:104B800081608083E1E9F0E08081826080838081C0
:104B900081608083E0E9F0E0808181608083E1ECE6
:104BA000F0E0808184608083808182608083808166
:104BB00081608083E3ECF0E0808181608083E0ECC1
:104BC000F0E0808182608083E2ECF0E080818160AF
:104BD0008083EAE7F0E08081846080838081826066
:104BE000808380818E7F8083808180688083089528
:104BF000823108F08251E82FF0E0E652FE4FE49156
:104C000080917B00E3FB222720F930E095E0220F22
:104C1000331F9A95E1F78F7D822B80937B00E7709D
:104C20008091180120E4829FC0011124E82BE093B9
:104C30007C0080917A00806480937A0080917A0071
:104C400086FDFCCF809178002091790090E0922B36
:104C5000089590E0FC013197EF30F105B0F5EA5A84
:104C6000FF4F0C943A31809180008F7703C0809180
:104C700080008F7D80938000089580918000877FE1
:104C8000F9CF84B58F7702C084B58F7D84BD089538
:104C9000809190008F7707C0809190008F7D03C036
:104CA00080919000877F8093900008958091C0004C
:104CB0008F7703C08091C0008F7D8093C0000895DE
:104CC0008091C200877F8093C2000895CF93DF93C5
:104CD00090E0FC01EB5FFD4F2491FC01EC5DFD4F8A
:104CE0008491882349F190E0880F991FFC01E15AD3
:104CF000FD4FA591B4918F5A9D4FFC01C591D49160
:104D00009FB7611108C0F8948C91209582238C93F1
:104D1000888182230AC0623051F4F8948C91322F3A
:104D2000309583238C938881822B888304C0F894E8
:104D30008C91822B8C939FBFDF91CF9108950F931D
:104D40001F93CF93DF931F92CDB7DEB7282F30E0AC
:104D5000F901EA51FE4F8491F901EB5FFD4F149187
:104D6000F901EC5DFD4F04910023C9F0882321F087
:104D700069830E9429266981E02FF0E0EE0FFF1F72
:104D8000EF5AFD4FA591B4919FB7F8948C916111A2
:104D900003C01095812301C0812B8C939FBF0F907E
:104DA000DF91CF911F910F910895CF93DF931F92C1
:104DB000CDB7DEB76983DC01ED91FC910280F38110
:104DC000E02D41E050E0BE016F5F7F4F09950F90ED
:104DD000DF91CF910895CF93DF93EC018C859D8572
:104DE00097FF05C082E00E9460299D878C878C8593
:104DF0009D85DF91CF91089583E00C94F62BFC0103
:104E00008485958597FD06C082E00E94092990E07F
:104E10000196089582E00E94092990E00895FC011E
:104E20008485958597FD05C02FEF3FEF3587248753
:104E3000089582E00C946029CF93DF93EC01809178
:104E40002401882331F083E00E9491291816190665
:104E500034F081E090E09B838A8380E090E0DF91F2
:104E6000CF910895FC0120812E5F208342E450E021
:104E70006DE672E080E80C942B2AFC012181808190
:104E8000813A59F4213209F04BC047E050E06DE11E
:104E900071E080E00E942B2A5EC0813209F040C0A0
:104EA000233289F4838190E0982F88273281832BE5
:104EB000A0E0B0E08093190190931A01A0931B0128
:104EC000B0931C010FC0203239F467E070E08DE12F
:104ED00091E00E945C2A09C0223221F482818093F1
:104EE000240103C02D7F2032B1F58091840581110A
:104EF00003C0E0E0F8E002C0EEEFFAE080911D01AF
:104F000090911E01A0911F01B0912001803B94401F
:104F1000A105B10511F58091240180FF03C01DC0DA
:104F200080E00895EE3F2AE0F20731F08081918120
:104F30009093FF0A8093FE0A87E797E79183808327
:104F40002BE088E190E00FB6F894A895809360007C
:104F50000FBE2093600081E0089588E10FB6F894B9
:104F600080936000109260000FBEA895EE3F8AE02B
:104F7000F80739F08091FE0A9091FF0A91838083AF
:104F8000EACF1092FF0A1092FE0AE5CF2FEF3FEF13
:104F9000FC01358724870895109237051092360555
:104FA00088EE93E0A0E0B0E0809338059093390557
:104FB000A0933A05B0933B058EEC91E090933505B4
:104FC000809334058FEF9FEF9093410580934005C8
:104FD0000895CF92DF92EF92FF920F931F93CF939A
:104FE000DF937C016A01EB0100E010E00C151D0568
:104FF00071F06991D701ED91FC910190F081E02D64
:10500000C7010995892B19F00F5F1F4FEFCFC8011A
:10501000DF91CF911F910F91FF90EF90DF90CF9094
:1050200008956115710581F0DB010D900020E9F70D
:10503000AD0141505109461B570BDC01ED91FC912C
:105040000280F381E02D099480E090E00895DC0176
:10505000ED91FC91DB0114964D915C9115976D914A
:105060007C910280F381E02D09946AED71E00C944B
:1050700011280F931F93CF93DF93EC010E942728F1
:105080008C01CE010E943528800F911FDF91CF91B6
:105090001F910F9108950F931F93CF93DF93EC010E
:1050A0000E9411288C01CE010E943528800F911F8B
:1050B000DF91CF911F910F910895409189055091F3
:1050C0008A05209187053091880542175307B4F46B
:1050D0009091E8009570E1F39091E80092FD19C07D
:1050E0008093F1008091890590918A0501968F73D4
:1050F0009927892B19F48EEF8093E8008091890518
:1051000090918A05019690938A058093890581E0A4
:10511000089580E00895CF92DF92EF92FF920F936F
:105120001F93CF93DF931F92CDB7DEB7082F162FB3
:10513000F42E862F880F8E5F99830E945D2883E06E
:105140000E945D28E02EC02E9981D92E8C2D8E19BB
:10515000811798F4F601F7FE02C0849101C08081A6
:105160000E945D28082F80E00E945D288023FFEFC9
:10517000CF1ADF0A8111EACF01C081E00F90DF91E1
:10518000CF911F910F91FF90EF90DF90CF900895F6
:105190008091D70081608093D70080EA8093D80007
:1051A00089B58F7E89BD89B5826089BD09B400FE4D
:1051B000FDCF61E070E080E090E00E945F2580918B
:1051C000D8008F7C80618093D8008091E000807F40
:1051D0008093E0000895CF93DF931F92CDB7DEB7A1
:1051E0001982CE0101960E9432270E94D02FBE0163
:1051F0006F5F7F4F0E94492F89810F90DF91CF9180
:1052000008952FB7FC012083F89467706093E9003C
:105210000895CF93DF931F92CDB7DEB7682FCE01ED
:1052200001960E9401298091F20099819FBF0F9001
:10523000DF91CF910895FF920F931F93CF93DF9348
:1052400000D0CDB7DEB7F62E8A0190918D05992357
:1052500011F057FF03C08FEF9FEF2AC0682FCE01D8
:1052600001967A830E9401298091F20090E0A801C2
:105270007A81801791070CF4AC01EF2DF72FF40E13
:1052800084E6FE1631F080938E059091F1009193A3
:10529000F8CF4115510521F08091F200882321F0CB
:1052A00089818FBFCA0104C08BE68093E800F8CFE4
:1052B0000F900F90DF91CF911F910F91FF90089564
:1052C000CF93DF931F92CDB7DEB741E050E0BE0130
:1052D0006F5F7F4F0E941B29019719F4898190E02D
:1052E00002C08FEF9FEF0F90DF91CF910895CF9382
:1052F000DF931F92CDB7DEB7682FCE0101960E94D3
:1053000001299091E800892F807295FF04C0909147
:10531000F20080E4891B99819FBF0F90DF91CF91AC
:1053200008956F927F928F929F92AF92BF92CF9289
:10533000DF92EF92FF920F931F93CF93DF931F9211
:10534000CDB7DEB7782E7B01C42EB52E80918D05AA
:10535000882369F0042F152F8AEFD82E872D8072AD
:10536000982E9AE3A92E872D8074882E11C08FEF76
:105370009FEF56C0872D0E947729682E81110CC09F
:10538000DA94A9F361E070E080E090E00E945F258C
:105390000115110579F73BC0282F30E002171307DC
:1053A0000CF4602E672DCE0101960E940129809198
:1053B000E80085FF29C0262D30E0021B130B992041
:1053C00039F06A948FEF6816B1F01092F100F9CFBE
:1053D000F701862D77FE07C0815058F09491909385
:1053E000F1003196F9CF815020F091919093F10026
:1053F000FACFE20EF31E8091E80085FF0EC0011582
:10540000110511F4811009C089818FBFC1CF84E6D5
:1054100080938F058C2D9B2D03C0A092E800F4CFC4
:105420000F90DF91CF911F910F91FF90EF90DF9040
:10543000CF90BF90AF909F908F907F906F90089586
:105440001092E90010928A051092890590938805C0
:10545000809387050895CF92DF92FF920F931F9359
:10546000CF93DF9300D0CDB7DEB7F82E8A016B0162
:1054700001151105B1F0F601F7FE02C0849101C0DB
:10548000808149835A830E945D2801501109FFEFF2
:10549000CF1ADF0A49815A818111EACF8FEF9FEF3E
:1054A00001C0CA010F900F90DF91CF911F910F9112
:1054B000FF90DF90CF900895CF93DF939B01A4E6F8
:1054C000BBEF21153105F9F0A9012134310514F0A4
:1054D00040E450E0E091E800E2FFFCCFFB01E21B7A
:1054E000F30BE80FF91FCE2FC40FCE1729F0D09180
:1054F000F100D0833196F9CFA0938E05B093E800E8
:10550000241B350BDECFCB01DF91CF9108951F9285
:105510000F920FB60F921124DF92EF92FF920F932A
:105520001F932F933F934F935F936F937F938F932B
:105530009F93AF93BF93EF93FF93CF93DF93CDB739
:10554000DEB76C97DEBFCDBF1092E9008091E80016
:1055500083FF2EC1FE0175968F01AE01435E5F4F42
:105560009F012F5F3F4F8091F10080832417350703
:1055700011F0F901F5CF84E680938E0582EF8093D8
:10558000E8005D8957FF05C08091E80080FFFCCFEF
:1055900003C08EEF8093E800852F807609F0EFC07E
:1055A0004E898F89D88C41110CC0503829F48091D4
:1055B0008C058093F10002C01092F1001092F1006E
:1055C000F0C0282F30E03D29413051F45111E9C09D
:1055D0002130310509F0E5C080918C058D7F0BC02D
:1055E000433061F45111DDC02130310509F0D9C0DB
:1055F00080918C05826080938C05D3C0453041F446
:105600009091E80090FFFCCF80688093E300C9C0D0
:10561000463009F08BC0EB8CFC8C22E0D2122CC0FF
:1056200080E090E00E94202A0E94EB2899E08E0101
:105630000F5F1F4FF801292F11922A95E9F79983DF
:10564000DA8291E09E8390EA98879AEF9987209179
:10565000890530918A05275F3F4F3C832B838D83DB
:10566000C7010E94202A49E050E0B80180E00E9472
:105670002B2A0E94EB2895C0C7010E94202A0E9475
:10568000D02FB8010E94722F009719F00CF089C03A
:105690008CC081E0D8120EC08B8D9C8D089719F4B8
:1056A00081E0809386058091860581112FC061EC91
:1056B00072E031C0E3E0DE1278C08F89882349F1BF
:1056C000823029F440E86CE08CED92E01CC081301F
:1056D00029F440E868E083ED92E015C0833009F0DA
:1056E00064C00E94D02F8E010F5F1F4FB8010E942F
:1056F000912FF80101900020E9F73197E01BF10BA1
:1057000040E06E2FC8010E948B2849C06FEA72E00A
:1057100002C069EE72E06115710509F446C0FB0133
:10572000449150E080E80E942B2A3BC04730E9F1C9
:10573000483021F481E08093F10033C0493089F58D
:10574000537099F5E6E2F1E081E021E036E39081E3
:10575000992361F08093E9002093EB00919190935D
:10576000EC003093ED008F5F873089F78EE78093F0
:10577000EA001092EA008F8980938D0512C08B8D0C
:105780009C8D0E94202A898D811104C0C8010E942D
:105790003D2705C00E94D02FB8010E94B02F88235A
:1057A00021F08EEF8093E80003C081E28093EB004C
:1057B0006C960FB6F894DEBF0FBECDBFDF91CF91D0
:1057C000FF91EF91BF91AF919F918F917F916F91D9
:1057D0005F914F913F912F911F910F91FF90EF900B
:1057E000DF900F900FBE0F901F9018958093E900E7
:1057F0008091F200882319F08AE38093E8000895ED
:105800001F920F920FB60F9211242F933F934F9335
:105810005F936F937F938F939F93AF93BF93CF9338
:10582000EF93FF93C091E1008091E100837F80932B
:10583000E1008093E100C3FF0FC01092E90081E016
:105840008093EB001092EC0082E38093ED001092C5
:105850008D0588E08093F000C2FF15C083E00E94B0
:10586000F62B80918F05882329F080918F05815038
:1058700080938F0580918E05882329F080918E0575
:10588000815080938E05C4FF10C08091E2008E7E0F
:1058900081608093E2008091E1008F7E8093E1003F
:1058A00080918B058E7E806111C0C0FF11C08091F8
:1058B000E2008E7E80618093E2008091E1008E7E26
:1058C0008093E10080918B058E7E816080938B05B3
:1058D000FF91EF91CF91BF91AF919F918F917F9168
:1058E0006F915F914F913F912F910F900FBE0F904D
:1058F0001F90189510928D0510928C0510928B05B3
:105900000E94C8288091E1008E7E8093E1008DE0A6
:105910008093E200EEEFFFE7859194918B3F9C4DE1
:1059200019F481E0809384050895FC0180819181C0
:105930000C941332CF93DF93EC0188819981009707
:1059400011F00E941332198218821D821C821B8260
:105950001A82DF91CF9108950F931F93CF93DF9316
:10596000EC018B016F5F7F4F888199810E94A23289
:10597000009731F0998388831B830A8381E001C0FB
:1059800080E0DF91CF911F910F910895CF93DF9326
:10599000EC0188819981892B29F08A819B81861766
:1059A000970760F4CE010E94AC2C882341F08C81D3
:1059B0009D81892B19F4E881F981108281E0DF91C2
:1059C000CF910895EF92FF920F931F93CF93DF93A0
:1059D000EC017B018A01BA010E94C62C811104C02E
:1059E000CE010E949A2C07C01D830C83B7018881C9
:1059F00099810E94C833CE01DF91CF911F910F9101
:105A0000FF90EF900895FC011182108213821282A0
:105A1000158214826115710559F0FB010190002077
:105A2000E9F7AF0141505109461B570B0C94E22C8A
:105A300008950F931F93CF93DF938C01EB01FC012B
:105A400080819181009799F0428153812C813D8121
:105A50004217530750F0688179810E94C8338C81C6
:105A60009D81F8019583848313C00E94133288813D
:105A70009981F801918380838A819B8193838283BA
:105A80008C819D8195838483198218821B821A825E
:105A90001D821C82DF91CF911F910F910895CF93AA
:105AA000DF93EC01FB018617970761F0608171813C
:105AB0006115710529F0448155810E94E22C02C0D4
:105AC0000E949A2CCE01DF91CF910895FC011182A2
:105AD000108213821282158214820C944F2DCF9360
