:020000040000FA
:100000000C94DE010C944B240C9424240C94FD23BA
:100010000C94D6230C9406020C9406020C94AF2385
:100020000C9406020C9406020C94BA200C94232122
:100030000C948A250C9406020C9406020C94060279
:100040000C9406020C9406020C9406020C94060210
:100050000C9406020C9406020C9406020C94652380
:100060000C9406020C9406020C9406020C940602F0
:100070000C9406020C9406020C9406020C940602E0
:100080000C9406020C9406020C9406020C940602D0
:100090000C9472240C9406020C9406020C94060232
:1000A0000C9406020C9406020C94060200407A108E
:1000B000F35A00A0724E18090010A5D4E80000E819
:1000C0007648170000E40B54020000CA9A3B000077
:1000D00000E1F505000080969800000040420F0006
:1000E0000000A08601000000102700000000E803C7
:1000F000000000006400000000000A000000000092
:100100000100000000002C76D888DC674F0823DF50
:10011000C1DFAE59E1B1B796E5E3E453C63AE65123
:10012000997696E8E6C28426EB898C9B62ED407C4A
:100130006FFCEFBC9C9F40F2BAA56FA5F490055AE6
:100140002AF75C936B6CF9676DC11BFCE0E40D470B
:10015000FEF520E6B500D0ED902E0300943577052E
:100160000080841E080000204E0A000000C80C33E6
:100170003333330F986E12831141EF8D2114893B75
:10018000E65516CFFEE6DB18D1844B381BF77C1DF5
:10019000901DA4BBE424203284725E228100C9F148
:1001A00024ECA1E53D27070605040100080A0B0C15
:1001B0000D09005EBCE2613FDD83C29C7E20A3FD91
:1001C0001F419DC3217FFCA2401E5F01E3BD3E6035
:1001D00082DC237D9FC1421CFEA0E1BF5D0380DE67
:1001E0003C62BEE0025CDF81633D7C22C09E1D4319
:1001F000A1FF4618FAA427799BC584DA3866E5BBC7
:100200005907DB856739BAE406581947A5FB7826F4
:10021000C49A653BD987045AB8E6A7F91B45C69826
:100220007A24F8A6441A99C7257B3A6486D85B05D8
:10023000E7B98CD2306EEDB3510F4E10F2AC2F7186
:1002400093CD114FADF3702ECC92D38D6F31B2ECB4
:100250000E50AFF1134DCE90722C6D33D18F0C52E6
:10026000B0EE326C8ED0530DEFB1F0AE4C1291CF98
:100270002D73CA947628ABF517490856B4EA693746
:10028000D58B5709EBB536688AD495CB2977F4AA74
:100290004816E9B7550B88D6346A2B7597C94A14A6
:1002A000F6A8742AC896154BA9F7B6E80A54D78958
:1002B0006B357C3C3E5E2B3D3F2F5B5D3B2C2A2209
:1002C0005C0000000000250028002B002E003100FB
:1002D0000000000200090F0000030401000C0000F0
:1002E0000000000000000000000000000000000806
:1002F0000B000202020000090400000102020000DB
:10030000052400100105240101010424020605242E
:100310000600010705810310004009040100020ADC
:1003200000000007050202400000070583024000AC
:10033000000403090412010002EF0201409A230C99
:1003400080000101020301416461667275697400F5
:1003500046656174686572203332753400000000B0
:1003600000240027002A002D003000000000002398
:1003700000260029002C002F0004040404040304B8
:100380000502020202040302020202060606060633
:100390000604040202020404040802011040804022
:1003A000102040804080080204018040201002019B
:1003B0001080102040402000A125652B11241FBE75
:1003C000CFEFDAE0DEBFCDBF2AE0A6EEB6E001C097
:1003D0001D92A339B207E1F716E0A0E0B1E0E0E535
:1003E000F6E602C005900D92A63EB107D9F711E0DE
:1003F000CDEDD1E004C02197FE010E94CA30CC3D72
:10040000D107C9F70E9422260C941B330C940000DC
:100410009091CD098091CC092FEF3FEF981748F4C8
:10042000E92FF0E0E455F64F208130E09F5F909394
:10043000CD09C90108959091CD098091CC092FEF84
:100440003FEF981748F4E92FF0E0E455F64F20818C
:1004500030E09F5F9093CD09C90108959091AB0959
:100460009111FCCF91E09093AB099093AA092FEFE3
:100470002093A9091092A809260F2093A709909309
:10048000A6099091A609880F892B8093A6098091CF
:10049000A5098130D9F41092A5098091A60980930D
:1004A000BB0085EC8093BC008091AB098130E1F307
:1004B0008091A809861710F46091A809A5E8B9E011
:1004C000ECEAF9E080E0861303C0089585EEEACFF8
:1004D0009D9191938F5FF7CF0E942E021092CD09CC
:1004E0008093CC090895982F2091840981E02132CE
:1004F00008F03FC08091AB098111FCCF8091830946
:1005000032E03093AB099093AA099FEF9093A90929
:100510001092A8092093A709A3E6B9E0E5E8F9E05D
:1005200090E029132DC01092A6099091A609880F7A
:10053000892B8093A6098091A509813029F5109215
:10054000A5098091A6098093BB0085EC8093BC002F
:100550008091AB098230E1F38091A9098F3FB1F01E
:100560008091A9098032A1F08091A909803391F08E
:1005700084E0109262091092840910926109089532
:100580003D9131939F5FCDCF85EEE0CF80E0F1CFFD
:1005900082E0EFCF83E0EDCF81E00C94730291E035
:1005A00090936109809383091092620910928409E3
:1005B00008950E942E021092CD098093CC090895CF
:1005C0009091750AE091760AF091770A292F20958B
:1005D00080FF14C0F8948281822382838181892BD9
:1005E0008183A0E1B0E01197F1F78281982B92838B
:1005F00078948AE690E00197F1F70895F894828163
:10060000822382838181892B8183AEE7B0E01197B9
:10061000F1F78281982B9283789486E090E0EBCF7B
:100620008091750AE091760AF091770AF8949181A9
:10063000982B91832281382F309523232283A2E0A7
:10064000B0E01197F1F7918193239183A0E1B0E09D
:100650001197F1F790817894E6E6F0E03197F1F7A1
:10066000982381E009F480E00895FF920F931F938F
:10067000CF93DF93F82E062FC8E0D0E011E081E0A1
:100680009F2D912309F480E00E94E002110F219731
:10069000B1F7011113C0F894E091760AF091770A4E
:1006A00091818091750A809598239183E091760AD3
:1006B000F091770A9281892382837894DF91CF9198
:1006C0001F910F91FF9008950F931F93CF93DF9386
:1006D0008C0160E085E50E943503E801085F1F4F4B
:1006E00060E089910E943503C017D107C9F7DF91F7
:1006F000CF911F910F91089590915E07911103C0C2
:100700008FEF9FEF08954FB7F89492E09093E90030
:100710009091F200292F30E01216130614F421E014
:1007200030E0232B29F084E680935D078091F1006F
:10073000992339F02091F200211103C02BE6209378
:10074000E8004FBF9923E1F290E008952FB7F894A5
:1007500083E08093E9009091E800892F807295FFF3
:1007600004C09091F20080E4891B2FBF089580910E
:10077000550781110DC082E08093510784E080937A
:100780005207109254071092530781E08093550747
:1007900081E597E00895089508958091CC0990919E
:1007A000CD09891B990B0895089540913D075091FB
:1007B0003E0720913B0730913C0742175307B4F4A2
:1007C0009091E8009570E1F39091E80092FD19C0D6
:1007D0008093F10080913D0790913E0701968F73C1
:1007E0009927892B19F48EEF8093E80080913D07BB
:1007F00090913E07019690933E0780933D0781E0DC
:10080000089580E00895EF92FF920F931F93CF9386
:10081000DF93F82E192FE62E042F81E0860F880F24
:100820000E94D50383E00E94D503CF2DD12FEC0E7B
:10083000FD2EF11CCE15DF05B9F007FF13C0FE0138
:1008400084910E94D503182F80E00E94D503812354
:1008500021968111EFCFDF91CF911F910F91FF90E2
:10086000EF9008958881EDCF81E0F5CFDF92EF9290
:10087000FF920F931F93CF93DF93D82E8A01EB0142
:100880007B01E40EF51ECE15DF0559F0D7FE12C030
:10089000FE0184910E94D50321968111F4CF0FEFC0
:1008A0001FEFC801DF91CF911F910F91FF90EF9043
:1008B000DF9008958881EECF0F931F93CF93DF933E
:1008C0001F92CDB7DEB782E0898342E450E06FEE3D
:1008D00072E080E80E9436040E94B703DC011296A1
:1008E0000D911C910115110589F0D801ED91FC9134
:1008F0000280F381E02DBE016F5F7F4FC801099533
:1009000097FD04C0F80100851185ECCF89810F9017
:10091000DF91CF911F910F910895AF92BF92CF9227
:10092000DF92EF92FF920F931F93CF93DF936C01AF
:100930007B018B01040F151FEB015E01AE18BF0890
:10094000C017D10759F06991D601ED91FC91019042
:10095000F081E02DC6010995892B79F7C501DF915A
:10096000CF911F910F91FF90EF90DF90CF90BF90AC
:10097000AF900895CF93DF931F92CDB7DEB7698311
:10098000DC01ED91FC910280F381E02D41E050E02B
:10099000BE016F5F7F4F09950F90DF91CF91089552
:1009A00083E08093E9008091F200882319F08AE3C4
:1009B0008093E80008950E94A60390E00895FC014A
:1009C0008485958597FD05C02FEF3FEF35872487F8
:1009D00008950C947C03CF93DF93EC018C859D8567
:1009E00097FF04C00E947C039D878C878C859D8522
:1009F000DF91CF910895FC018485958597FD0BC00B
:100A00009FB7F89482E08093E9008091F2009FBF45
:100A100090E0019608959FB7F89482E08093E900F2
:100A20008091F2009FBF90E00895282F30E0F901F7
:100A3000E053FD4F9491F901E856FC4F84912758FB
:100A40003C4FF9012491222309F430C09923E9F0A5
:100A500091509F30D0F4E92FF0E0EF5CFA4F0C9406
:100A6000CA305F056305400557055B05450545052B
:100A7000450566056C05700574057A0545057E0516
:100A8000909180009F7790938000E22FF0E0EE0F2E
:100A9000FF1FEE53FD4FA591B4919FB7F894EC91D1
:100AA000611132C080958E238C939FBF08959091E1
:100AB00080009F7DE8CF90918000977FE4CF94B530
:100AC0009F7794BDE2CF94B59F7DFBCF909190002E
:100AD0009F7790939000D9CF909190009F7DF9CF10
:100AE00090919000977FF5CF9091C0009F77909361
:100AF000C000CBCF9091C0009F7DF9CF9091C200F4
:100B0000977F9093C200C1CF8E2BCECF1092CD098C
:100B10001092CC0910926209109284091092AB09CC
:100B200081E08093AA091092A50961E082E00E9409
:100B3000150561E083E00E941505E9EBF0E0808196
:100B40008E7F808380818D7F808380E28093B80058
:100B500085E48093BC000895CF93DF9390E0FC017F
:100B6000E856FC4F249187589C4FFC0184918823C0
:100B7000C9F090E0880F991FFC01E35AFC4FA59142
:100B8000B491FC01EE53FD4FC591D49161110DC09C
:100B90009FB7F8948C91209582238C938881282389
:100BA00028839FBFDF91CF910895623051F49FB7A2
:100BB000F8943C91822F809583238C93E8812E2B8F
:100BC000EFCF8FB7F894EC912E2B2C938FBFEACFF9
:100BD0003FB7F8948091370790913807A091390773
:100BE000B0913A0726B5A89B05C02F3F19F0019692
:100BF000A11DB11D3FBFBA2FA92F982F8827BC0177
:100C0000CD01620F711D811D911D43E0660F771F9D
:100C1000881F991F4A95D1F708958F929F92AF929E
:100C2000BF92CF92DF92EF92FF926B017C010E9404
:100C3000E8054B015C01C114D104E104F104B9F0F1
:100C40000E94E805681979098A099B09683E734082
:100C50008105910580F321E0C21AD108E108F1086D
:100C600088EE880E83E0981EA11CB11CE4CFFF9093
:100C7000EF90DF90CF90BF90AF909F908F900895AE
:100C80008F929F92AF92BF92CF92DF92EF92FF929C
:100C90000F931F93CF93DF936C017B018A018091A7
:100CA0000F01882309F45BC080915E07882309F453
:100CB00056C08091410780FF05C08091E0008260AE
:100CC0008093E000E801B12C8AEFA82E93E0892EF2
:100CD0002AE3922E209711F4BB20D9F10E94A6039B
:100CE00081110AC0AA94AA20D1F161E070E080E0ED
:100CF00090E00E940D06EECF8C171D0611F00CF04F
:100D00008C2F9FB7F8948092E9002091E80025FD90
:100D100002C09FBFDFCF282F30E0C21BD30BF701EB
:100D2000815020F041914093F100FACFE20EF31E82
:100D3000BB2021F09092E800B12CEBCF8091E8002D
:100D400085FDE7CF9092E800BB24B394209709F388
:100D5000F3CF84E680934007101611063CF081E043
:100D600090E0F6019383828310E000E0C801DF91F8
:100D7000CF911F910F91FF90EF90DF90CF90BF9098
:100D8000AF909F908F9008952FB7F894609133079C
:100D90007091340780913507909136072FBF0895E1
:100DA0008FB7F89480912C078FBF089561E0FC0104
:100DB00084810E94150580912B07811110922B07C9
:100DC00008958EBD00000DB407FEFDCF8EB50895C9
:100DD0008FEF0C94E1060F931F93CF93DF93EC01F9
:100DE0000E94C4068B010E94E8068F3F69F00E94B2
:100DF000C406601B710B6C177D07A8F380E0DF91C0
:100E0000CF911F910F91089581E0F9CF8CBD9DBDC9
:100E10000895CF93DF93EC0180912B07811109C0D6
:100E200081E080932B0780911E0A90911F0A0E94F7
:100E3000060760E08C81DF91CF910C9415058F92AD
:100E40009F92AF92BF92FF920F931F93CF93DF9326
:100E5000EC01F62E49015A018E81882389F08F8199
:100E600098859C012F5F3F4F38872F8382309240B7
:100E700018F40E94E806F3CFCE010E94D6061E8227
:100E8000CE010E9409078CE291E00E94EB068F2DB3
:100E900080640E94E10608E110E0D501C401002E43
:100EA00004C0B695A795979587950A94D2F70E94A6
:100EB000E10608501109083F8FEF180771F785E91F
:100EC000FF2021F028E087E8F2128FEF0E94E10670
:100ED00010E00E94E8068A8787FF04C01F3F11F0D8
:100EE0001F5FF7CFDF91CF911F910F91FF90BF90C0
:100EF000AF909F908F900895AF92BF92CF92DF9264
:100F0000EF92FF920F931F93CF93DF93EC01690150
:100F1000C801820F931F8130924050F58E81882343
:100F200079F088819981AA81BB8184179507A607EA
:100F3000B70731F48F819885C816D90608F042C0EA
:100F4000488359836A837B838B85833039F089E0BA
:100F5000440F551F661F771F8A95D1F79A01AB0181
:100F600061E1CE010E941F07882389F083E08D8311
:100F7000CE010E94D60680E0DF91CF911F910F91A4
:100F8000FF90EF90DF90CF90BF90AF9008950E94B8
:100F9000C4065B010E94E8068A878F3F69F40E94BD
:100FA000C4066A197B096D327140A0F38FE08D830E
:100FB000CE010E94D606DCCF8E3F89F418861F82B0
:100FC00081E08E838F8198858C159D0550F40E9459
:100FD000E8068F819885019698878F83F3CF8DE0FF
:100FE000E6CF6701E00EF11E0E94E806F60181934C
:100FF0006F01EE15FF05C1F78F819885080F191F46
:1010000018870F838985882319F001151240A0F0F5
:101010008E81882389F08F8198859C012F5F3F4FB7
:1010200038872F838230924018F40E94E806F3CF6D
:10103000CE010E94D6061E8281E09ECFCF92DF9223
:10104000EF92FF920F93CF93DF93EC01690182E15E
:10105000411551056105710599F08B85833039F093
:1010600089E0440F551F661F771F8A95D1F79A01B3
:10107000AB0168E1CE010E941F07882319F084E0CC
:101080008D832DC08EEF0E94E10676018EEFD81A77
:10109000F70181917F010E94E106EC14FD04C1F784
:1010A0008FEF0E94E1068FEF0E94E1060E94E806A2
:1010B0008A878F71853071F4011116C0CE010E94AC
:1010C000D60681E0DF91CF910F91FF90EF90DF90F6
:1010D000CF90089581E18D83CE010E94D606CE0186
:1010E0000E94D60680E0EECF88E592E00E94EB06F3
:1010F000811102C085E1C4CF20E030E0A9016DE09C
:10110000CE010E941F07882311F084E1B9CF0E940D
:10111000E8068111FACFD2CF0F9340912E0750915C
:101120002F07609130077091310741155105610516
:10113000710599F0082F2FE537E080915F099091B4
:1011400060090E941E08882349F010922E07109211
:101150002F07109230071092310781E00F91089508
:101160000F93CF93C82F80912D07811105C0C1E047
:101170008C2FCF910F910895409100015091010162
:1011800060910201709103010C2F2FE537E08091EF
:101190005F09909160090E941E08811102C0C0E0A1
:1011A000E7CFCC2321F381E00E948C088823B9F398
:1011B00010922D07DDCF8F929F92AF92BF92EF9248
:1011C000FF920F931F93CF934B015C01C42F80912B
:1011D000000190910101A0910201B09103018815D5
:1011E0009905AA05BB0551F181E00E94B008811163
:1011F0000BC080E0CF911F910F91FF90EF90BF90B7
:10120000AF909F908F9008958FE5E82E87E0F82E9D
:1012100000E012E030E020E0B501A40180915F0918
:10122000909160090E947C07882319F38092000145
:1012300090920101A0920201B092030140912D070A
:101240004C2B40932D0781E0D5CF8F929F92AF9288
:10125000BF92CF92DF92EF92FF92CF9320E23AE0DB
:101260003093600920935F09882309F46DC040E042
:1012700060E070E0CB010E94DB0881110BC080E0D0
:10128000CF91FF90EF90DF90CF90BF90AF909F9065
:101290008F90089580911D098F7789F78091290992
:1012A00090912A09A0912B09B0912C0984369105BF
:1012B000A105B10520F3C0902509D0902609E09042
:1012C0002709F0902809C114D104E104F104B9F20E
:1012D00040E0C701B6010E94DB08882381F28091BB
:1012E0006A0790916B078115924049F6A0916F07AC
:1012F000AA2329F260916D0770916E07611571053F
:1013000009F4BDCF20916C07222309F4B8CFA09334
:101310003E0A2093300A90E080E030E0E1E0F0E027
:10132000C82FAF01082E02C0440F551F0A94E2F7E0
:101330002417350769F041E0480F0196893091057F
:1013400079F74093390A9BCFC12CD12C7601C0CFBD
:101350008093390A209175073091760750E040E07C
:101360002115310541F42091830730918407409184
:101370008507509186072093310A3093320A4093B3
:10138000330A5093340A46015701860E971EA11C5A
:10139000B11C80923F0A9092400AA092410AB092FA
:1013A000420AE0917007F0917107F093450AE093CB
:1013B000440AB0E00E943F2FDC01CB01880D991D4B
:1013C000AA1DBB1D8093460A9093470AA093480A22
:1013D000B093490A25E0EE0FFF1F2A95E1F7E1508F
:1013E000FE4FEF2FFF27E6958E0F9F1FA11DB11D0A
:1013F00080933A0A90933B0AA0933C0AB0933D0A2B
:101400008090720790907307B12CA12C81149104E5
:1014100041F480907F0790908007A0908107B09062
:101420008207C81AD90AEA0AFB0AC80CD91CEA1CA6
:10143000FB1C04C0F694E794D794C794CA95D2F7DE
:10144000C092350AD092360AE092370AF092380AF2
:1014500085EFC8168FE0D806E104F10428F48CE08B
:101460008093430A81E00CCF80E125EFC2162FEF75
:10147000D206E104F104A0F380918B0790918C07D0
:10148000A0918D07B0918E078093460A9093470AEA
:10149000A093480AB093490A80E2E2CF4F925F924C
:1014A0006F927F928F929F92AF92BF92CF92DF9274
:1014B000EF92FF920F931F93CF93DF93EC01423093
:1014C00051056105710590F480E0DF91CF911F9186
:1014D0000F91FF90EF90DF90CF90BF90AF909F90D3
:1014E0008F907F906F905F904F90089589859A8537
:1014F000AB85BC850196A11DB11D84179507A60774
:10150000B70710F3CB88DC88ED88FE888F8980319F
:1015100009F042C0BB27A72F962F852F48015901FC
:101520002A013B01C80ED91EEA1EFB1E8091000154
:1015300090910101A0910201B0910301C816D90652
:10154000EA06FB0699F58F898031C1F5B301A20146
:10155000552766277727440F551F415A584FFA01E0
:101560009182808280912D07816080932D078A89E6
:10157000823080F08D819E81AF81B8858C0D9D1D5C
:10158000AE1DBF1D80932E0790932F07A0933007A9
:10159000B093310781E099CFDB01CA01E7E0B6954E
:1015A000A79597958795EA95D1F7B8CF40E0C70101
:1015B000B6010E94DB088111C6CF86CFB301A2011C
:1015C0004F77552766277727440F551F440F551F20
:1015D000415A584FFA0180829182A282B382C2CFCF
:1015E0008F929F92AF92BF92CF92DF92EF92FF9233
:1015F0000F931F93CF93DF93FC0181859285A38581
:10160000B4850196A11DB11D84179507A607B707DC
:1016100070F480E0DF91CF911F910F91FF90EF90D8
:10162000DF90CF90BF90AF909F908F900895838868
:101630009488A588B6888789803189F5BB27A72F2C
:10164000962F852FE9016A017B018F01BC01CD0135
:10165000680D791D8A1D9B1D8090000190900101ED
:10166000A0900201B090030186169706A806B9065D
:1016700001F5F8018789803111F5DD24EE24FF247E
:10168000F601EE0FFF1FE15AF84F80819181B0E023
:10169000A0E088839983AA83BB8381E0BBCFDB0171
:1016A000CA01C7E0B695A79597958795CA95D1F7D2
:1016B000C9CF40E00E94DB088111DBCFAACFE894BC
:1016C000C7F8DD24EE24FF24F601EE0FFF1FEE0F16
:1016D000FF1FE15AF84F80819181A281B381BF70D1
:1016E000D8CF4F925F926F927F92AF92BF92CF927C
:1016F000DF92EF92FF920F931F93CF93DF9300D06F
:1017000000D0CDB7DEB78C0149835A836B837C83CD
:101710005901C12CD12C7601412C82E0582E612C2C
:10172000712C49815A816B817C819E012F5F3F4FD3
:10173000C8010E94F00A882339F1F8018585A301C8
:10174000920104C0220F331F441F551F8A95D2F700
:10175000DA01C901C80ED91EEA1EFB1E49815A8151
:101760006B817C818789803111F188EF9FEFAFEF2A
:10177000BFE0481759076A077B0798F2F501C08256
:10178000D182E282F38281E00F900F900F900F9050
:10179000DF91CF911F910F91FF90EF90DF90CF904D
:1017A000BF90AF907F906F905F904F90089588EFBB
:1017B0009FEFA0E0B0E0DDCFCF93DF93FC01258168
:1017C000222321F080E0DF91CF910895EC018091F8
:1017D000430A803159F582E08583178A108E118E75
:1017E000128E8091440A9091450AB0E0A0E025E075
:1017F000880F991FAA1FBB1F2A95D1F7838B948B43
:10180000A58BB68B8CE29AE09C8F8B8F81E08C83CA
:101810001E821F82188619861A861B861C861D86C4
:101820001E861F86188A198A1A8ACDCF803251F6F1
:1018300083E085834091460A5091470A6091480AA7
:101840007091490A478B508F618F728F9F012D5E77
:101850003F4F8CE29AE00E94710B8111D3CFB2CF3F
:101860008F929F92AF92BF92CF92DF92EF92FF92B0
:101870000F931F93CF93DF93EC018D8181110EC0E5
:1018800080E0DF91CF911F910F91FF90EF90DF905B
:10189000CF90BF90AF909F908F9008950B891C8937
:1018A0002D893E89041715072607370748F34A0193
:1018B0005B01823031F48A869B86AC86BD8681E0EE
:1018C000E0CF81149104A104B10449F41E821F8267
:1018D000188619861A861B861C861D86F0CF0A85F7
:1018E0001B852C853D85EB8DFC8D858590E00996CB
:1018F000B901A8014150510961097109082E04C0BC
:1019000076956795579547950A94D2F775016401C6
:10191000E1E0CE1AD108E108F10804C0F694E7949A
:10192000D794C7948A95D2F7C416D506E606F7066B
:1019300020F0012B022B032B11F58F89988DA98D97
:10194000BA8D8E839F83A887B9878E010A5F1F4F48
:10195000C114D104E104F10409F4ADCF4E815F81DB
:101960006885798598018B8D9C8D0E94F00A91E0A5
:10197000C91AD108E108F1088111EACF81CFC41A50
:10198000D50AE60AF70AE1CF3F924F925F926F9233
:101990007F928F929F92AF92BF92CF92DF92EF92FF
:1019A000FF920F931F93CF93DF93CDB7DEB72C97A2
:1019B0000FB6F894DEBF0FBECDBF5C01DC015B96B5
:1019C0008D909C905C9716964D905D906D907C905C
:1019D0001997411451046104710409F468C0BFEF00
:1019E0004B1A5B0A6B0A7B0A312CF40181859285C4
:1019F000A385B4859C01AD012F5F3F4F4F4F5F4FD3
:101A000029873A874B875C87730162011D821E829A
:101A10001F821886F40181859285A385B4852D8166
:101A20003E814F815885281739074A075B0708F020
:101A300056C089859A85AB85BC858C159D05AE05FC
:101A4000BF0550F482E0C82ED12CE12CF12C92E09D
:101A5000492E512C612C712C9E012F5F3F4FB701F5
:101A6000A601C4010E94F00A8823C9F189819A81E4
:101A7000AB81BC81892B8A2B8B2B09F12601370185
:101A80009FEF491A590A690A790A2D813E814F81CF
:101A900058852F5F3F4F4F4F5F4F2D833E834F83BE
:101AA00058873FEFC31AD30AE30AF30AB3CFF4010E
:101AB00040805180628073803324339496CFC41465
:101AC000D504E604F70409F70FEF1FEF2FEF3FE00F
:101AD000B701A601C4010E944E0A811119C080E01D
:101AE0002C960FB6F894DEBF0FBECDBFDF91CF911D
:101AF0001F910F91FF90EF90DF90CF90BF90AF902C
:101B00009F908F907F906F905F904F903F9008953F
:101B1000D50116964D915D916D917C911997411566
:101B200051056105710539F097018601C4010E94D4
:101B30004E0A8823A1F2D5011696CD92DD92ED9240
:101B4000FC921997332051F0D701C6010196A11DCF
:101B5000B11DF40180839183A283B383F50187894A
:101B6000908DA18DB28D892B8A2B8B2B39F484819A
:101B7000C78AD08EE18EF28E80688483F5018481DD
:101B80008062848381E0ACCFFF920F931F93CF9349
:101B9000DF93FC012581222309F451C0F62EEC01CC
:101BA000848187FF3FC0668577858089918941E080
:101BB0000E94DB08882309F442C00A89F0E20F9FE3
:101BC00080011124015A184F01151105C1F18D81B1
:101BD000823048F48B899C89AD89BE89F801848F55
:101BE000958FA68FB78F8F89988DF801938F828FED
:101BF0008F89988DA98DBA8DB58BA48BE0914E07F6
:101C0000F0914F07309759F0B8016A5E7F4FC801D5
:101C100048960995F801808D918D938B828B8C81EC
:101C20008F778C83F11003C08C818F7E8C838F2DF6
:101C3000DF91CF911F910F91FF900C94B00880E03D
:101C4000DF91CF911F910F91FF900895FF920F9315
:101C50001F93CF93DF93EC018D81813041F090E0B1
:101C600080E0DF91CF911F910F91FF9008958C81BB
:101C700081FFF5CF82FD1BC000915F0910916009C3
:101C8000C8010E9409070E94E806F82EC8010E94B8
:101C9000D6068FEFF812E3CF8C8185FF1BC060E082
:101CA000CE010E94C40D8C818F7D8C83D8CF4B894F
:101CB0005C896D897E898A859B85AC85BD85841705
:101CC0009507A607B707C1F2CE010E94300C81111B
:101CD000D3CFC5CF40912E0750912F076091300789
:101CE00070913107452B462B472B21F080E00E9455
:101CF0008C08B5CF80618C832A853B85317080E06C
:101D000092E0821B930BADCFCF93DF93EC0161E0A8
:101D10000E94C40D882311F01D8281E0DF91CF91D4
:101D200008952F923F924F925F926F927F928F927F
:101D30009F92AF92BF92CF92DF92EF92FF920F935A
:101D40001F93CF93DF9300D000D01F92CDB7DEB7A3
:101D50007C016B011A01DC0115968C91159781307D
:101D600009F0CAC014961C9111FFC6C012FDB0C084
:101D7000410112951F70109511701D83D7011A969D
:101D80000D911D912D913C911D978114910409F4A1
:101D900026C15B968D919C915C97FC0174807A942E
:101DA000B901A80129E076956795579547952A9539
:101DB000D1F774221170711020C001151105E9F4DA
:101DC00016964D915D916D917C9119974115510534
:101DD0006105710509F099C057968D919D910D90FF
:101DE000BC91A02D0097A105B10509F0B0C0C701B5
:101DF0000E94C40C882309F47FC080E092E0801B1D
:101E0000910B54018815990508F45C01D7015B9684
:101E10004D915C915C9716968D919D910D90BC9122
:101E2000A02D0297A109B109FA01258504C0880FE8
:101E3000991FAA1FBB1F2A95D2F74685578560892F
:101E40007189840F951FA61FB71F9C01AD01270D37
:101E5000311D411D511D29013A01A11432E0B30683
:101E600009F07BC08091000190910101A0910201D5
:101E7000B091030184159505A605B70559F48FEFB8
:101E80009FEFDC018093000190930101A093020178
:101E9000B09303010D819601B301A20180915F0906
:101EA000909160090E941E08882331F19EEFD91A93
:101EB0008A189B08F70182859385A485B5858A0DCC
:101EC0009B1DA11DB11D82879387A487B58756CF1F
:101ED000F701438954896589768982859385A4852C
:101EE000B585481759076A077B0709F441CFC70131
:101EF0000E94300C81113CCF81E090E0D701139615
:101F00009C938E93129780E007C09E012F5F3F4FF6
:101F10000E94F00A811102C090E07BC089819A8101
:101F2000AB81BC81F701238D348DF901278948EFFE
:101F30005FEF60E070E0203121F048EF5FEF6FEF7E
:101F40007FE084179507A607B70708F050CFF70181
:101F500086839783A087B18750CF0115110591F52E
:101F6000D7011A964D915D916D917C911D97539675
:101F70008D919D910D90BC91A02D481759076A072E
:101F80007B0700F181E00E94B008882309F4B4CFF8
:101F9000409200015092010160920201709203018F
:101FA00080912D07816080932D07015A184FD6012B
:101FB000C8018A0D9B1DF8018E179F0759F02D91BE
:101FC0002193FACF41E0C301B2010E94DB088111E5
:101FD000ECCF92CF801B910BC80ED91E69CF1496FF
:101FE0008C91149753964D915D916D917C9156977C
:101FF000401751076207730720F5F701038B148B15
:10200000258B368B80688483F701848183FD26C00D
:10201000C1010F900F900F900F900F90DF91CF9113
:102020001F910F91FF90EF90DF90CF90BF90AF90F6
:102030009F908F907F906F905F904F903F902F90E8
:10204000089520914E0730914F07232BE9F2211478
:102050003104D1F2806814968C93D6CF61E0C70129
:102060000E94C40D882309F447CFD2CFCF93DF93CA
:102070001F92CDB7DEB7698341E050E0BE016F5FCC
:102080007F4F0E94910E0F90DF91CF910895FC0138
:10209000DB0112968D919C9113979383828381E546
:1020A00096E09183808314968C911497848315967F
:1020B0008C911597858316964D915D916D917C91CC
:1020C000199746835783608771871A964D915D9162
:1020D0006D917C911D9742875387648775871E9603
:1020E0004D915D916D917C91519746875787608B9B
:1020F000718B52968C915297828B53964D915D9134
:102100006D917C915697438B548B658B768B57964C
:102110004D915D916D917C915A97478B508F618F56
:10212000728F5B968D919C91948F838F0895FC01A3
:10213000818D928D009719F061E00C94C40D089583
:10214000DC015996ED91FC913097B9F0838994891F
:10215000A589B6894285538564857585841B950B51
:10216000A60BB70B811520E89207A105B10538F041
:102170008FEF9FE7A0E0B0E0089590E080E0089541
:10218000DC0159968D919C91009739F0DC01ED911D
:10219000FC910480F581E02D099490E080E00895A1
:1021A000CF93DF93EC01E98DFA8D309749F481E00C
:1021B00090E09B838A8390E080E0DF91CF91089547
:1021C00013821282898D9A8D0E94910EE98DFA8D6B
:1021D00022813381232B59F7F0CFCF93DF931F92C6
:1021E000CDB7DEB76983DC01ED91FC910280F3810C
:1021F000E02D41E050E0BE016F5F7F4F09950F90E9
:10220000DF91CF9108952F923F924F925F926F92FC
:102210007F928F929F92AF92BF92CF92DF92EF9276
:10222000FF920F931F93CF93DF9300D01F92CDB7F0
:10223000DEB7FC018581811118C08FEF9FEF0F90F1
:102240000F900F90DF91CF911F910F91FF90EF9022
:10225000DF90CF90BF90AF909F908F907F906F90C6
:102260005F904F903F902F900895848180FFE5CF3D
:10227000438954896589768982859385A485B58546
:10228000312C212C481759076A077B0719F02224A3
:102290002394312C6F012101CE0101963C01DF0115
:1022A0001696BB83AA834114510409F4C5C0F601F4
:1022B00042855385648575854A01F1E09F22D601E8
:1022C0005B968D919C915C978A019B01E9E0369524
:1022D000279517950795EA95D1F71596EC91E23079
:1022E000E9F5FC01628D738D848D958D600F711FF2
:1022F000821F931FA12C22E0B22EA818B9084A14FD
:102300005B0408F45201F601248126FD04C0A114E7
:10231000F2E0BF0671F400910001109101012091DB
:10232000020130910301061717072807390709F042
:102330005EC040E00E94DB08882309F47ECFC40120
:10234000815A984FD3019C012A0D3B1DFC012E1789
:102350003F0709F46CC041914D93F9CFDC0114960D
:10236000BC90BA94B0228114910479F4B1100DC0DC
:10237000452B462B472B69F5F6018789908DA18D5A
:10238000B28D86839783A087B187D6015B96ED9146
:10239000FC915C9716966D917D918D919C9119970A
:1023A0006250710981099109258504C0660F771F64
:1023B000881F991F2A95D2F70685178520893189AC
:1023C000600F711F821F931F6B0D711D811D911D69
:1023D00091CFD60116964D915D916D917C91199793
:1023E0002A813B810E94F00A8111CFCF26CF730151
:1023F00085019401AB01BC0180915F099091600956
:102400000E947C07882309F418CF6A0C7B1CF60114
:1024100082859385A485B5858A0D9B1DA11DB11D5F
:1024200082879387A487B5874A185B083CCF281B0F
:10243000390B620E731EEBCF2A94232809F0FDCED0
:10244000898190E0FCCEFC01818D928D009711F086
:102450000C9403118FEF9FEF08950F931F93CF9369
:10246000DF93EC01898D9A8D10E000E0009799F0E0
:102470000E9403118C010F3F100769F0898D9A8D1E
:10248000FC01428553856485758541505109610978
:1024900071090E94300CC801DF91CF911F910F91FB
:1024A000089585ED8093BC008091BC0084FDFCCF35
:1024B0001092AB090895613298F42091AB09243051
:1024C00089F460930807282FA8EEB6E0FC018E2F50
:1024D000821B861710F080E0089581918D93F7CFCD
:1024E00081E0089582E008950895E091CD098091FA
:1024F000CC09E81730F4F0E0E455F64F808190E025
:1025000008958FEF9FEF0895CF92DF92EF92FF92A1
:102510000F931F93CF93DF937C01CB018A0120910E
:102520006109222389F0EB016B01C40ED51ECC1585
:10253000DD0569F06991D701ED91FC910190F08181
:10254000E02DC7010995F3CF642F0E945B12C801EB
:10255000DF91CF911F910F91FF90EF90DF90CF907F
:102560000895CF93DF931F92CDB7DEB76983209193
:1025700061092223F9F020918409203258F021E0EA
:1025800030E0FC013383228390E080E00F90DF9104
:10259000CF91089580916209E82FF0E0ED59F64F50
:1025A000998190838F5F809362098093840981E091
:1025B00090E0ECCF61E0CE0101960E945B12F7CF74
:1025C000682F89E69AE00C94B112CF93DF93EB0168
:1025D0000E94CF0281E090E00E94E012CE010E94B2
:1025E000E01280E690E00E94E0120E94CC026AE0D5
:1025F00070E080E090E00E940D06DF91CF91089599
:102600001F93CF93DF93D82F162F88E60E94CF0217
:102610008EE090E00E94E0120E94CC02C82F81114F
:1026200009C061E088E60E94D9020E941B02C82FFF
:102630000E94CC028D2F8150990B9C0181E090E08B
:1026400001C0880F2A95EAF7112391F0C82B88E67C
:102650000E94CF028EE090E00E94E0126C2F89E68B
:102660009AE00E94B112DF91CF911F910C94CC029D
:102670008095C823ECCFCF93DF93C82F88E60E94C4
:10268000CF028FE090E00E94E0120E94CC0261E055
:1026900088E60E94D9020E941B02D82F0E94CC0219
:1026A00088E60E94CF028FE090E00E94E0128C2F1B
:1026B0008150990B9C0181E090E001C0880F2A9520
:1026C000EAF7682F60956D2389E69AE00E94B112BF
:1026D000DF91CF910C94CC021F93CF93DF93D82F2F
:1026E000162F88E60E94CF028EE090E00E94E01252
:1026F0000E94CC0261E088E60E94D9020E941B027F
:10270000C82F0E94CC028D2F8150990B9C0181E033
:1027100090E001C0880F2A95EAF7112391F0C82BA9
:1027200088E60E94CF028EE090E00E94E0126C2FBB
:1027300089E69AE00E94B112DF91CF911F910C942B
:10274000CC028095C823ECCFCF92DF92FF920F93FB
:102750001F93CF93DF936C0188E60E94CF0260E065
:1027600089E69AE00E94B1120E94CC0267E070E014
:1027700088E690E00E946C020E941B028F77282F4F
:1027800030E094E0359527959A95E1F7922F990FCF
:10279000990FC22FC91BCC0FC80F0E941B029C01AE
:1027A00044E0359527954A95E1F72F703327922F0E
:1027B000990F990FD22FD91BDD0FD80F0E941B0242
:1027C0009C0154E0359527955A95E1F72F703327F2
:1027D000922F990F990F122F191B110F180F0E948A
:1027E0001B020E941B029C0164E0359527956A95A7
:1027F000E1F72F703327922F990F990F022F091BA2
:10280000000F080F0E941B029C0174E0359527956C
:102810007A95E1F72F703327922F990F990FF22EA7
:10282000F91AFF0CF80E0E941B029C01E4E035959A
:102830002795EA95E1F72F703327922F990F990F7B
:10284000291B220F820FF6018083F18202831383FA
:10285000D483C583C601DF91CF911F910F91FF9063
:10286000DF90CF900895EF92FF920F931F93CF9335
:10287000DF9300D000D000D0CDB7DEB77C018B0154
:10288000CE0101960E94A413898190E04496982F6E
:102890008827990F2A8140E2249F900111244B81BF
:1028A000242B822B932BF701918380838D81F0E27F
:1028B0008F9FC00111242C8130E0322F2227330F4B
:1028C000330F330F822B932B2E8130E035952795D4
:1028D000822B932BF8019183808326960FB6F89470
:1028E000DEBF0FBECDBFDF91CF911F910F91FF9043
:1028F000EF90089590E080E008954115510529F486
:10290000EAE7F0E080818F7780836A307105B9F063
:10291000CB01880F991F880F991F807267706860BC
:10292000682B88E10FB6F894A895809360000FBEDD
:1029300060936000E0E6F0E0808180648083232B78
:10294000B1F483B7817F846083BFF89483B78160DB
:1029500083BF7894889583B78E7F83BF7894452B07
:1029600029F4EAE7F0E0808180688083089583B7E6
:10297000817F846083BFF89483B7816083BF78943C
:10298000889583B78E7F83BF7894E9CFDC0180E0A0
:10299000615038F0ED91E827F0E0EE54FE4F84915D
:1029A000F7CF0895CF92DF92EF92FF920F931F938C
:1029B000CF93DF938C01D0E0C0E06B01770FEE087E
:1029C000FF08C017D10794F461E088E00E94150564
:1029D000C701B6010E940D0660E088E00E9415055F
:1029E000C701B6010E940D062196EBCFDF91CF9172
:1029F0001F910F91FF90EF90DF90CF900895EFEA35
:102A0000F1E0E49190917B008E2F880F880F807207
:102A10009F7D892B80937B00E770E064E0937C00CE
:102A200080917A00806480937A0080917A0086FD9C
:102A3000FCCF8091780060917900762F682F072E67
:102A4000000C880B990B0E941F2E26EE3FE34EECE4
:102A500050E40E947E2E0E946F30CB0108950F93A8
:102A60001F93CF93DF9300D000D000D0CDB7DEB757
:102A7000CE0101960E94A413209110013091110102
:102A80004D818E8190E05CE3459F800D911D112466
:102A9000B9010E94B6306F5F7F4F629FC001639F94
:102AA000900D729F900D112480312EE092070CF052
:102AB00075C09093E7068093E6068091E6069091B4
:102AC000E7066CE370E00E94B630362F282F809323
:102AD000E6069093E7064AE0642F0E94AA30082F8A
:102AE000000F080F000F020F832F0E94AA30182F2B
:102AF000110F180F110F130F88E60E94CF0267E025
:102B000089E69AE00E94B112602F89E69AE00E945D
:102B1000B1120E94CC0288E60E94CF0268E089E6EA
:102B20009AE00E94B112612F89E69AE00E94B112E8
:102B30000E94CC0288E60E94CF0269E089E69AE012
:102B40000E94B11260E889E69AE00E94B1120E94E8
:102B5000CC0288E60E94CF026AE089E69AE00E94F1
:102B6000B11260E889E69AE00E94B1120E94CC029C
:102B700061E081E00E946C1381E00E943B1361E000
:102B800081E00E94001326960FB6F894DEBF0FBEB8
:102B9000CDBFDF91CF911F910F9108951092E7065D
:102BA0001092E6068ACF8091750AE091760AF0913C
:102BB000770AF8949181282F209592239183789415
:102BC0003DE7315011F190819823D9F3F894928127
:102BD000922392839181982B91837894ACEBB3E00C
:102BE0001197F1F7F894918192239183A8E8B0E0CE
:102BF0001197F1F79081982381E009F080E07894B3
:102C0000E0E3F3E03197F1F7089580E00895DF9273
:102C1000EF92FF920F931F93CF93DF93D82EE92E5D
:102C20000091820A0023A1F01092800A1092820A79
:102C30001092810A80E0A8E7BAE0ED2DFE2D9F01F9
:102C4000285F3F4F9D9191932E173F07D9F70AC0F8
:102C50000E94D31581110EC01092800A1092820A30
:102C60001092810ADF91CF911F910F91FF90EF9009
:102C7000DF90089560E080EF0E943503F12CD1E0F1
:102C8000C1E00E941003182F0E941003113091F42C
:102C9000813079F5C13440F20093800A011103C0FC
:102CA00081E08093820A8091780A882309F4BCCF5E
:102CB00081E0C1CFEF2DF0E0181311C08091800AA0
:102CC000C817A8F4DF01AB58B54F13968C918D232C
:102CD00081F410E0C93010F4C093810A0C2FEB5836
:102CE000F54F83819D2F9095892383830AC08C1390
:102CF000F0CFEF2DF0E0EB58F54F83818D2B8383E0
:102D000011E0812F0E94E002CF5FDD0F11F4F394F8
:102D1000D1E087E08F1508F0B4CFBCCFCF92DF921F
:102D2000EF92FF921F93CF93DF93EC0180E2689FB5
:102D3000F0011124E15AF84F9385917161F0842FCD
:102D4000827449F080E0DF91CF911F91FF90EF9066
:102D5000DF90CF900895142F6A8B8091000190919D
:102D60000101A0910201B09103018E879F87A88B7A
:102D7000B98BC488D588F12CE12C7601DD24CC24D4
:102D8000CF8AD88EE98EFA8E828D938DB0E0A0E046
:102D9000AC01BD014C295D296E297F294F8B588FCD
:102DA000698F7A8F83858871B1F4848D958DA68D16
:102DB000B78D8B8B9C8BAD8BBE8B81E08D831F7011
:102DC0001C831E821F82188619861A861B861C8603
:102DD0001D8681E0B8CF803109F0B4CF9E012D5E11
:102DE0003F4F8B8D9C8D0E94710B882309F4AACFD5
:102DF00084E0E4CFFB0101900020E9F73197AF01B7
:102E0000461B570BDC01ED91FC910280F381E02D14
:102E100009940F931F93CF93DF93EC01FB0144813F
:102E2000558160817181E881F9810280F381E02D13
:102E300009958C016BE676E0CE010E94FA16800FB0
:102E4000911FDF91CF911F910F9108950F931F93C1
:102E5000CF93DF938C01EB01FC018081918100977E
:102E6000E1F06881798161157105A9F04281538192
:102E70002C813D814217530770F00E9405338C81ED
:102E80009D81F801958384831D821C82DF91CF91FF
:102E90001F910F9108950E94803188819981F801D6
:102EA000918380838A819B81938382838C819D819E
:102EB00095838483198218821B821A82E5CFCF936F
:102EC000DF93EC0188819981009711F00E94803195
:102ED000198218821D821C821B821A82DF91CF9177
:102EE0000895FC0180819181009711F00C9480314C
:102EF0000895CF93DF93EC01898D9A8D009741F06F
:102F00000E94840E898D9A8D0E9480311A8E198EAE
:102F1000DF91CF9108950F931F93CF93DF93EC012F
:102F200088819981009759F02A813B8126173707BC
:102F300030F081E0DF91CF911F910F9108958B01C7
:102F40006F5F7F4F0E940932009759F09983888301
:102F50001B830A832C813D81232B59F7FC011082AE
:102F6000E8CF80E0E7CFEF92FF920F931F93CF93CC
:102F7000DF936115710541F480E0DF91CF911F91DE
:102F80000F91FF90EF90089541155105B1F07B012D
:102F9000EC010C811D81040F151FB8010E948B17D5
:102FA000882351F3288139818C819D81B701820F5B
:102FB000931F0E9405331D830C8381E0DECFCF93E6
:102FC000DF93EC01FB0101900020E9F73197AF019D
:102FD000461B570B0E94B317811103C0CE010E94FC
:102FE0005F17CE01DF91CF910895CF93DF93EC016E
:102FF000FB0144815581608171810E94B317811169
:1030000003C0CE010E945F17CE01DF91CF910895DA
:10301000FB0144815581608171810C94B317EF925B
:10302000FF920F931F93CF93DF93EC017B018A01F3
:10303000BA010E948B1781110BC0CE010E945F174D
:10304000CE01DF91CF911F910F91FF90EF900895E6
:103050001D830C83B701888199810E940533F0CFCD
:10306000FB0101900020E9F73197AF01461B570B98
:103070000C940F180F931F93CF93DF93CDB7DEB748
:1030800062970FB6F894DEBF0FBECDBF8C01CB01A7
:10309000F8011182108213821282158214824AE092
:1030A000BE016F5F7F4F0E94A92BBE016F5F7F4FF4
:1030B000C8010E94301862960FB6F894DEBF0FBEAA
:1030C000CDBFDF91CF911F910F9108950F931F9363
:1030D000CF93DF93CDB7DEB729970FB6F894DEBF55
:1030E0000FBECDBF8C01862FF80111821082138292
:1030F0001282158214824AE0BE016F5F7F4F90E01A
:103100000E94BC2BBE016F5F7F4FC8010E94301828
:1031100029960FB6F894DEBF0FBECDBFDF91CF91D9
:103120001F910F910895EF92FF920F931F93CF93EA
:10313000DF93CDB7DEB7A1970FB6F894DEBF0FBE11
:10314000CDBF7C01CB01BA01F7011182108213823D
:103150001282158214828E010F5F1F4F22E044E01D
:103160000E946D2B009789F0BC01C7010E943018A6
:10317000A1960FB6F894DEBF0FBECDBFDF91CF9101
:103180001F910F91FF90EF900895C7010E945F1764
:10319000EFCFCF93DF93EC01FB018617970749F040
:1031A000608171816115710541F0448155810E94F2
:1031B0000F18CE01DF91CF9108950E945F17F9CFCC
:1031C000FC011182108213821282158214820C94E7
:1031D000C918FC0111821082138212821582148296
:1031E000FB0101900020E9F73197AF01461B570B17
:1031F0000C940F183F924F925F926F927F928F9232
:103200009F92AF92BF92CF92DF92EF92FF920F9375
:103210001F93CF93DF93CDB7DEB72B970FB6F894FC
:10322000DEBF0FBECDBF7C01FE013196CE010C96F4
:103230006F0130E23193E817F907E1F7DA0130E086
:1032400087E09D91B92E992309F43CC09E32F1F498
:103250008A30C9F480E02B960FB6F894DEBF0FBE1B
:10326000CDBFDF91CF911F910F91FF90EF90DF9035
:10327000CF90BF90AF909F908F907F906F905F9016
:103280004F903F90089538E08AE0DBCFE2EBF2E028
:103290004491442321F031969413FACFDBCF831766
:1032A000C8F24FED490F4E35A8F64FE9490F4A31A4
:1032B00018F440EEB42EB90EF601E30FF11DB08202
:1032C0003F5FBFCF8981803229F2322E8B01DB0133
:1032D0005B968D919C915C97F701948F838F1696E6
:1032E0001D921D921D921C921997FB011286138646
:1032F00014861586F80182859385A485B585438952
:1033000054896589768984179507A607B70708F059
:103310004DC025E0B695A795979587952A95D1F745
:10332000F82FFF70AF2ED80115968C91823008F4DB
:1033300091CFC8010E94031197FD8CCFF8018285BF
:103340009385A485B5854F96A11DB11D828793876E
:10335000A487B587F0E2AF9EB0011124615A784F7F
:103360006115710509F476CFDB018C91882341F05A
:10337000853E09F075C0BB2029F0BB24B394BACFB9
:10338000B1100EC0F701A28A809100019091010155
:10339000A0910201B091030186879787A08BB18B22
:1033A000DB018C918111E9CFBB24B394832D827111
:1033B000823109F04FCFBB2009F460C0F701668568
:1033C00077858089918941E00E94DB08882309F490
:1033D00041CFD70152960C91B0E20B9F800111248E
:1033E000015A184F0115110509F434CF86E1F8018F
:1033F0003A96DF011D928A95E9F78BE0F601D80134
:1034000001900D928A95E1F7E0914E07F0914F07F8
:10341000309709F4AEC0B801625F7F4FC801409693
:103420000995D80150968D919C91519753969C93F4
:103430008E93529759969C938E9358971E968D9182
:103440009C911F9757969C938E93569781E00E946C
:10345000B008882309F4FECE432DF70162890AC023
:103460004BE050E0C6010E94DB32892B09F042CFCD
:10347000432D6A2DC7010E948E16EDCEF80185817D
:10348000823009F4E7CEC8010E94C40C882309F4F5
:10349000E1CED8015B96ED91FC915C9716968D90EC
:1034A0009D90AD90BC901997B2E08B1A9108A1083D
:1034B000B108858504C0880C991CAA1CBB1C8A9580
:1034C000D2F786859785A089B189880E991EAA1E94
:1034D000BB1E848124013501480E511C611C711CE6
:1034E00084149504A604B70409F1E1E04E1A5108CA
:1034F0006108710881E00E94B008882309F4AACE0F
:10350000EFE5F7E011928FE599E08E179F07D1F76D
:1035100040920001509201016092020170920301F9
:1035200080912D07816080932D07DACFD8015B96BB
:10353000ED91FC91258580E092E0A0E0B0E004C030
:10354000880F991FAA1FBB1F2A95D2F7F80143893C
:10355000548965897689840F951FA61FB71F838BB1
:10356000948BA58BB68BD70152961C920FE517E072
:103570003DCF81E298E2F801918B808B80E098E06A
:10358000978786874ECFEF92FF920F931F93CF932B
:10359000DF93EC017B018A011B821A8288EE93E0A3
:1035A000A0E0B0E08C839D83AE83BF838DE296E084
:1035B000998388838DE190E00E94E4309A8F898F0F
:1035C000009779F02DE1F701DC0101900D922A9529
:1035D000E1F74CE050E0B801CE010C960E940C33AC
:1035E000188EDF91CF911F910F91FF90EF9008956A
:1035F0002F923F924F925F926F927F928F929F9203
:10360000AF92BF92CF92DF92EF92FF920F931F93F0
:10361000CF93DF93CDB7DEB7C756D1090FB6F89475
:10362000DEBF0FBECDBF6C015B01A6964FAFA69764
:1036300019A218A281E596E09F8F8E8F1BA21C8293
:103640001B829A8389831E824E018EE1880E911C13
:10365000C4010E94DC0B75018E010F5F1F4F240116
:1036600018016FE270E0C7010E94F132009709F47F
:103670005DC0F70120812F3271F4FFEFEF1AFF0ACE
:10368000902F812F8201492E582E942D852D2801AF
:10369000092F182FE6CF8E198D3008F08CE0682E98
:1036A000712CA301B701CE01885A9F4F0E940C33A1
:1036B000E8E5F0E0EC0FFD1FE60DF71D1082C801F4
:1036C0000E94840EF8018581882301F11EAE1DAE93
:1036D00081E596E09CAF8BAF21961FAE2197A8960F
:1036E000EEADFFADA897AE0EBF1EF5018081811132
:1036F0002AC0BE01655C7F4FC1010E9447104EE6A3
:1037000056E0B101C6010E94C31A3BC021E0AE01E0
:10371000485A5F4FB201C8010E94FA188823B1F2DB
:10372000E60CF71CC2010E94840EAFCFC7018A19B4
:103730009B09A8969FAF8EAFA897B201CE01CB96FA
:103740000E944710CCCF19A218A281E596E09F8F66
:103750008E8F1BA221968FAD219781112DC0F6016E
:103760001382128288EE93E0A0E0B0E08483958318
:10377000A683B7838DE296E091838083128E118EAB
:103780001486C601C959DF4F0FB6F894DEBF0FBECD
:10379000CDBFDF91CF911F910F91FF90EF90DF9000
:1037A000CF90BF90AF909F908F907F906F905F90E1
:1037B0004F903F902F900895A6962FADA697A50104
:1037C000BE01655C7F4FC4010E94FA18882339F25C
:1037D000CE01CB960E94840EA6968FADA6978670DA
:1037E000863039F449A95AA96BA97CA9C4010E9461
:1037F000300CB401C1010E944710A50182CF2F9265
:103800003F924F925F926F927F928F929F92AF9270
:10381000BF92CF92DF92EF92FF920F931F93CF93BD
:10382000DF93CDB7DEB7C254D5400FB6F894DEBFF4
:103830000FBECDBF63E876E0CE018B5E9A4F0E944B
:10384000E91863E876E0CE01855E9A4F0E94E91898
:1038500063E876E0CE018F5D9A4F0E94E91863E835
:1038600076E0CE01895D9A4F0E94E91863E876E020
:10387000CE01835D9A4F0E94E91863E87AE0CE0199
:103880008D5C9A4F0E94E018CE01875C9A4F0E948F
:10389000A4130E94FF14BC01CE0101960E943A18A5
:1038A00069E87AE0CE018F5F9A4F0E94E018BE016E
:1038B0006F5F7F4FCE018F5F9A4F0E94F517BC015B
:1038C000CE018D5C9A4F0E940818CE018F5F9A4FEF
:1038D0000E947117CE0101960E947117C65CDA4FE3
:1038E0006881CA53D540CE0101966A3008F092C271
:1038F0000E94661860E776E0CE018F5F9A4F0E94C3
:10390000E918BE016F5F7F4FCE018F5F9A4F0E9413
:10391000F517BC01CE01835D9A4F0E94C918CE01F4
:103920008F5F9A4F0E947117CE0101960E94711706
:10393000C55CDA4F6881CB53D540CE0101966A3021
:1039400008F073C20E94661860E776E0CE018F5FD0
:103950009A4F0E94E918BE016F5F7F4FCE018F5FC3
:103960009A4F0E94F517BC01CE01895D9A4F0E94C3
:10397000C918CE018F5F9A4F0E947117CE01019630
:103980000E947117C25CDA4F6881CE53D540CE01D8
:1039900001966A3008F054C20E94661860E776E02B
:1039A000CE018F5F9A4F0E94E918BE016F5F7F4F73
:1039B000CE018F5F9A4F0E94F517BC01CE018B5E3E
:1039C0009A4F0E94C918CE018F5F9A4F0E947117BB
:1039D000CE0101960E947117C35CDA4F6881CD5306
:1039E000D540CE0101966A3008F035C20E946618B3
:1039F00060E776E0CE018F5F9A4F0E94E918BE0122
:103A00006F5F7F4FCE018F5F9A4F0E94F517BC0109
:103A1000CE01855E9A4F0E94C918CE018F5F9A4FE2
:103A20000E947117CE0101960E947117C45CDA4F93
:103A30006881CC53D540CE0101966A3008F016C299
:103A40000E94661860E776E0CE018F5F9A4F0E9471
:103A5000E918BE016F5F7F4FCE018F5F9A4F0E94C2
:103A6000F517BC01CE018F5D9A4F0E94C918CE0197
:103A70008F5F9A4F0E947117CE0101960E947117B5
:103A8000C75CDA4F8881C953D54090E0CF5FDA4FE9
:103A900019821882C150D540CD5FDA4F1982188241
:103AA000C350D540CB5FDA4F19821882C550D5403C
:103AB0004AE0BE016F5F7F4F8053984F0E94BC2B3E
:103AC000BE016F5F7F4FCE018F5F9A4F0E9430180B
:103AD00069E87AE0CE0101960E94E018BE016F5FAE
:103AE0007A4FCE0101960E94F51762E776E00E94B8
:103AF000DF17BE01635D7A4F0E94F51762E776E03B
:103B00000E94DF17BE01695D7A4F0E94F51761EED2
:103B100076E00E94DF17BE016F5D7A4F0E94F517B5
:103B200064E776E00E94DF17BE01655E7A4F0E946F
:103B3000F51764E776E00E94DF17BE016B5E7A4FEF
:103B40000E94F517BC01CE018D5C9A4F0E940818A7
:103B5000CE0101960E947117CE018F5F9A4F0E948D
:103B60007117FAE4EF2EF7E0FF2E570108E410E09A
:103B7000F50181915F01882329F062E070E0C801BE
:103B80000E94E5120F5F1F4F0C34110589F764EC9A
:103B900079E080E090E00E940D0608E410E0F70173
:103BA00081917F01882309F451C0802F0E94CF02A8
:103BB00090E080E00E94E0120E94CC026AE070E097
:103BC00080E090E00E940D0669E87AE0CE018D5C0D
:103BD0009A4F0E94081862E070E0C8010E946C02CF
:103BE0008091CC099091CD09891B990B0397BCF466
:103BF0000E941B02B82E0E941B02DB2CC12CB601B6
:103C0000682B072E000C880B990B0E941F2E20E0BA
:103C100030E040E05CE30E947E2E2B013C01B301CA
:103C2000A201CE0101960E949318BE016F5F7F4FE3
:103C3000CE018D5C9A4F0E940818CE0101960E9419
:103C4000711766E070E0C8010E94E5120F5F1F4F18
:103C50000C34110509F0A3CFE6E4CE2EE7E0DE2E0A
:103C600018E4F60181916F01882309F472C069E8B4
:103C70007AE0CE018D5C9A4F0E94081878E0E72E1A
:103C8000F12C412C512C3201812F0E94CF0283E074
:103C900090E00E94E01280EA90E00E94E0120E9410
:103CA000CC026EE071E080E090E00E940D06812F72
:103CB0000E94CF0290E080E00E94E01280E00E942B
:103CC000730262E0812F0E94D9028091CC09909109
:103CD000CD09891B990B0297E9F40E941B02082F5A
:103CE0000E941B02902E812CB401682B072E000C21
:103CF000880B990B0E941F2E20E030E040E05CE32F
:103D00000E947E2E9B01AC01C301B2010E94912F43
:103D10002B013C01F1E0EF1AF10809F0B5CF20E0EA
:103D200030E040E05EE3C301B2010E947E2EAB01B1
:103D3000BC01CE0101960E949318BE016F5F7F4FB8
:103D4000CE018D5C9A4F0E940818CE0101960E9408
:103D500071171F5F1C3409F084CF6CE0262E312CC4
:103D6000CE01835F9A4F0E940716882309F4B1C1E0
:103D700067E0CE01835F9A4F0E94C614CC5EDA4F93
:103D80009881C451D5408913EBCFC35FDA4F888146
:103D9000CD50D540823209F4FBC008F072C08031AA
:103DA00009F4F8C0CE018D5C9A4F0E947117CE01C4
:103DB000835D9A4F0E947117CE01895D9A4F0E94D0
:103DC0007117CE018F5D9A4F0E947117CE01855EEB
:103DD0009A4F0E947117CE018B5E9A4F0E94711705
:103DE000CE5BDA4F0FB6F894DEBF0FBECDBFDF91CA
:103DF000CF911F910F91FF90EF90DF90CF90BF90E8
:103E0000AF909F908F907F906F905F904F903F907A
:103E10002F9008950E946618BE016F5F7F4FCE01FC
:103E2000835D9A4F0E9426177FCD0E946618BE01BF
:103E30006F5F7F4FCE01895D9A4F0E9426179ECDFE
:103E40000E946618BE016F5F7F4FCE018B5E9A4F56
:103E50000E942617BDCD0E946618BE016F5F7F4F7E
:103E6000CE01855E9A4F0E942617DCCD0E9466180F
:103E7000BE016F5F7F4FCE018F5D9A4F0E94261764
:103E8000FBCD883209F484C08B3309F08BCF13E06B
:103E90000E94D315CE01835F9A4F0E94640361E0B4
:103EA00084E40E94350368EE73E080E090E00E94B5
:103EB0000D060E94D315CE01835F9A4F0E946403C2
:103EC00060E08EEB0E9435036E012FEFC21A2AEFDD
:103ED000D20A560139E0A30EB11C760158E0852EB6
:103EE000912C00E0772473940E941003811107291C
:103EF000770C81E0881A9108B9F7F60101936F01F8
:103F0000EA15FB0559F768E0C7010E94C614F701DE
:103F100090858913BDCF60817181113009F44AC049
:103F2000D8F1133009F43FC0072E000C880B990B11
:103F30000E941F2E20E030E040E85DE30E947E2ECC
:103F40006B017C01133009F0AAC080E095E0E2E249
:103F5000F1E0DE01119601900D920197E1F7CE019B
:103F600001965C0110E000E0F50120813181428181
:103F70005381C701B6010E94A53087FD2CC0F8E02F
:103F8000AF0EB11C0F39110531F10F5F1F4FECCF90
:103F900010E07ECF11E07CCF8481807611F4687FC1
:103FA000C3CF803211F46C7FBFCF803409F0BCCF17
:103FB0006E7FBACF43E0660F771F4A95E1F787819E
:103FC000803109F0B1CF86819101281B3109607FD2
:103FD000620F731FA9CFC801019710F490E080E031
:103FE0008C010F5F1F4F23E0880F991F2A95E1F77F
:103FF000E1E0F0E0EC0FFD1FE80FF91F4480558071
:104000006680778080809180A280B380A501940132
:10401000C701B6010E94902FC15CDA4F6883798393
:104020008A839B83CF53D54033E0000F111F3A950D
:10403000E1F781E090E08C0F9D1F080F191FA5018B
:104040009401F80160817181828193810E94902F97
:104050009B01AC01C15CDA4F688179818A819B81C7
:10406000CF53D5400E94FD2F4B015C01A30192016B
:10407000F80164817581868197810E94902F9B0150
:10408000AC01C501B4010E947E2EA70196010E94D9
:10409000912FA30192010E94912F6B017C0169E88D
:1040A0007AE0CE018D5C9A4F0E940818B701A601F4
:1040B000CE0101960E949318BE016F5F7F4FCE0123
:1040C0008D5C9A4F0E940818CE0101960E947117CC
:1040D00047CE1092800A1092820A1092810A1092A2
:1040E0007F0A10927E0A10927D0A10927C0A10922A
:1040F0007B0A10927A0A1092790A1092780A6AEF73
:1041000070E080E090E00E940D0683E394E19093DC
:104110004F0780934E0747E166E776E0CE010196B0
:104120000E94F81AEA8DFB8D309719F08581811174
:1041300008C060E08DE00E941505CE018D5C9A4FAD
:1041400034CEBE016D5C7A4FCE0101960E940917F4
:10415000BE016D5C7A4F8EEC99E00E94091768EC05
:1041600070E080E090E00E940D06CE0101960E9472
:104170007917DFCF1F920F920FB60F9211248F93F2
:104180009F938091E1009091E100937F9093E100F3
:1041900083FF0FC01092E90091E09093EB00109222
:1041A000EC0092E39093ED0010925E0798E09093FC
:1041B000F00082FF1CC093E09093E9009091F20020
:1041C000992319F09AE39093E8009091400799237E
:1041D00029F09091400791509093400790915D078E
:1041E000992329F090915D07915090935D0784FF8A
:1041F00018C08091E2008E7E81608093E200809101
:10420000E1008F7E8093E100809141078E7E806186
:10421000809341079F918F910F900FBE0F901F9039
:10422000189580FFF7CF8091E2008E7E80618093A9
:10423000E2008091E1008E7E8093E1008091410751
:104240008E7E8160E5CF1F920F920FB60F921124E0
:10425000CF92DF92EF92FF920F931F932F933F9392
:104260004F935F936F937F938F939F93AF93BF937E
:10427000EF93FF93CF93DF93CDB7DEB76C97DEBF9D
:10428000CDBF1092E9008091E80083FF2FC089E044
:10429000FE017596EE2EDF2E815029F09091F100EF
:1042A00090833196F9CF84E680935D0782EF809307
:1042B000E8008D8987FF39C09091E80090FFFCCF1E
:1042C000982F907609F033C19E894F89588D2F8998
:1042D000F88C911131C0803861F58091420780934C
:1042E000F1001092F1008EEF8093E8006C960FB60B
:1042F000F894DEBF0FBECDBFDF91CF91FF91EF915C
:10430000BF91AF919F918F917F916F915F914F91ED
:104310003F912F911F910F91FF90EF90DF90CF90E1
:104320000F900FBE0F901F9018959EEF9093E8008E
:10433000C7CF1092F100D5CF913059F48111D3CF6E
:104340004130510581F6809142078D7F809342076D
:10435000CACF933049F48111C6CF4130510519F6C7
:10436000809142078260F2CF953041F48091E8005D
:1043700080FFFCCF20682093E300B5CF963009F092
:10438000A8C00B8D1C8D22E01092E90010923E0710
:1043900010923D07F2122EC010923C0710923B077C
:1043A0000E945C041F8299E09983FA8291E09E83C7
:1043B00090EA98879AEF998720913D0730913E07C0
:1043C000275F3F4F3C832B838D831092E90010922F
:1043D0003E0710923D0710933C0700933B0749E0CE
:1043E00050E0BE016F5F7F4F80E00E9436040E9464
:1043F0005C0479CF10933C0700933B070E94B703FE
:10440000DC0112960D911C910115110509F457C19B
:10441000D801ED91FC910480F581E02D6E2D7D2D6C
:10442000C8010995009709F045C1F801008511857B
:10443000EBCFF3E0FF120EC08F89882309F440C050
:10444000823061F440E86CE080E593E00E94030470
:10445000811149CF81E28093EB0048CF813029F46C
:1044600040E868E087E493E0F1CF833099F70E9459
:10447000B703DC011296ED90FC908E010F5F1F4F89
:104480006801E114F10479F0D701ED91FC91068007
:10449000F781E02DB801C7010995080F111DF7013B
:1044A000E084F184EECFD8011C92F6010190002047
:1044B000E9F73197BF016C197D0940E0C601C6CF0D
:1044C00061E373E0FB01449150E080E80E94360410
:1044D0000ACF973009F4BECF983021F481E0809361
:1044E000F10001CF993009F0FECE837009F0B2CF10
:1044F000E3E2F6E081E031E096E32191222371F0DE
:104500008093E9003093EB00DF0111972C91209309
:10451000EC009093ED008F5F873079F78EE7809302
:10452000EA001092EA008F8980935E07DCCE8B8DC3
:104530009C8D1092E90010923E0710923D079093D7
:104540003C0780933B07898D81119AC08E899D8994
:10455000913A49F4813209F07DCF47E050E068E0BC
:1045600071E080E0B3CF913209F074CF833269F407
:104570008F89988DB0E0A0E08093040190930501AD
:10458000A0930601B0930701AECE8032A9F48091CA
:10459000E80082FFFCCF88E0E8E0F1E0815029F0FC
:1045A0009091F10090833196F9CF84E680935D0776
:1045B0008BEF8093E80097CE823209F094CE8F89FA
:1045C00080930F01EEEFFFE7859194918B3F9C4D17
:1045D00051F1E0E0F8E08091080190910901A0918B
:1045E0000A01B0910B01803B9440A105B105F1F4A3
:1045F00080910F0180FD1AC0EE3F8AE0F80789F52F
:1046000087E797E7918380838091600080933F07DD
:1046100088E19BE00FB6F894A895809360000FBEE8
:104620009093600060CEEEEFFAE0D5CF808191816B
:104630008737974709F057CEA89580916000886129
:104640008093600080913F0780936000EE3F2AE0F6
:10465000F20789F08091FE0A9091FF0A918380838E
:1046600042CE808191818737980751F29093FF0A5B
:104670008093FE0AC5CF1092FF0A1092FE0A33CE35
:104680000E94B703DC0112960D911C9101151105D2
:1046900009F4E0CED801ED91FC910190F081E02D7C
:1046A0006E2D7D2DC801099581111DCEF801008563
:1046B0001185ECCF181619060CF415CECBCEF1E00F
:1046C000FF12B7CE65E373E0FDCE1F920F920FB6D7
:1046D0000F9211242F933F938F939F93AF93BF9388
:1046E0008091330790913407A0913507B091360738
:1046F0003091320726E0230F2D3758F50296A11D81
:10470000B11D209332078093330790933407A09311
:104710003507B09336078091370790913807A091FD
:104720003907B0913A070196A11DB11D8093370753
:1047300090933807A0933907B0933A07BF91AF9190
:104740009F918F913F912F910F900FBE0F901F90CF
:10475000189529E8230F0396A11DB11DD2CF1F92F2
:104760000F920FB60F9211242F933F934F935F93A5
:104770006F937F938F939F93AF93BF93EF93FF9329
:10478000E0911A01F0911B010995FF91EF91BF9102
:10479000AF919F918F917F916F915F914F913F91D9
:1047A0002F910F900FBE0F901F9018951F920F9290
:1047B0000FB60F9211242F933F934F935F936F93F4
:1047C0007F938F939F93AF93BF93EF93FF93E0916A
:1047D0001801F09119010995FF91EF91BF91AF91E7
:1047E0009F918F917F916F915F914F913F912F9109
:1047F0000F900FBE0F901F9018951F920F920FB63B
:104800000F9211242F933F934F935F936F937F9356
:104810008F939F93AF93BF93EF93FF93E091160114
:10482000F09117010995FF91EF91BF91AF919F9181
:104830008F917F916F915F914F913F912F910F9049
:104840000FBE0F901F9018951F920F920FB60F92E8
:1048500011242F933F934F935F936F937F938F9385
:104860009F93AF93BF93EF93FF93E0911401F09167
:1048700015010995FF91EF91BF91AF919F918F9194
:104880007F916F915F914F913F912F910F900FBE4C
:104890000F901F9018951F920F920FB60F92112430
:1048A0002F933F934F935F936F937F938F939F9338
:1048B000AF93BF93EF93FF93E0911201F091130137
:1048C0000995FF91EF91BF91AF919F918F917F914A
:1048D0006F915F914F913F912F910F900FBE0F906D
:1048E0001F9018951F920F920FB60F9211242F93BD
:1048F0003F934F935F936F937F938F939F93AF9368
:10490000BF93EF93FF938091B900887F803609F4BD
:104910004AC0F0F5883209F4A5C018F5803109F4D1
:1049200099C0B8F4882309F4F2C0883009F492C021
:10493000FF91EF91BF91AF919F918F917F916F9177
:104940005F914F913F912F910F900FBE0F901F904D
:104950001895883109F486C0803251F78093A909EF
:1049600014C0803409F49BC040F48033B9F3883319
:10497000F9F68093A90985ECAEC0803509F483C0AF
:10498000883509F494C0883499F60E945112D0CF2A
:10499000883909F48AC038F5883729F050F4883608
:1049A00011F0803729F683E08093AB0910922A0733
:1049B00055C0883809F479C0803919F0803809F079
:1049C000B7CF80912A07803208F06FC0E0912A07A4
:1049D00081E08E0F80932A078091BB00F0E0E65FB4
:1049E000F84F80833BC0803B39F0D0F4803A09F423
:1049F00077C0883A09F09CCF84E08093AB0910928D
:104A0000090710920807F0E0E0E009958091080797
:104A100081110FC081E0809308071092E80609C059
:104A2000803C09F4A8CF883C09F4A5CF883B09F065
:104A30007FCFE091090781E08E0F80930907F0E0B6
:104A4000E851F94F80818093BB00909109078091D4
:104A5000080729C08091A6098093BB0085EC80934C
:104A6000BC0066CF9091A8098091A709981758F5C6
:104A7000E091A80981E08E0F8093A809F0E0EB5740
:104A8000F64F8081E9CFE091A80981E08E0F8093F5
:104A9000A8098091BB00F0E0EB57F64F808390911E
:104AA000A8098091A7099817C8F285E8D8CFE091A6
:104AB000A80981E08E0F8093A8098091BB00F0E0E7
:104AC000EB57F64F80838091AA0981115ECF81E078
:104AD0008093A50984EA8093BC001092AB0928CF8B
:104AE00080912A07803230F4E0912A07F0E0E65FF7
:104AF000F84F10820E94511260912A0770E08AE0FC
:104B000097E0F0E0E0E0099510922A0734CF109288
:104B1000A9093BCF1F920F920FB60F9211248F93CA
:104B20000FB6F894A895809160008861809360002A
:104B3000109260000FBE8F910F900FBE0F901F90CC
:104B40001895EEECF9E01382128288EE93E0A0E073
:104B5000B0E084839583A683B7832FE336E0318367
:104B600020832FEF3FEF35872487EEE1FAE020E541
:104B7000208321E02183E0E2FAE01582168211868B
:104B8000138642E050E060E070E044875587668716
:104B9000778713A215A614A621E536E033A722A72E
:104BA00017A6E9E6FAE01382128284839583A6832E
:104BB000B7838DE596E09183808362E876E089E8AB
:104BC0009AE00E94E91864E876E083E89AE00E949F
:104BD000E91860E085E00E94AC05EDE9F3E0E491BE
:104BE000A5E7BAE0EC93EEE7F3E0E491F0E0EE0F36
:104BF000FF1FE559FC4F8591949112969C938E93DB
:104C000011971B961C921B971D961C921D971C9624
:104C10001C921C971A961C921A9719961C92199717
:104C200018961C92189717961C92179716961C9216
:104C3000169715961C92159714961C921497139616
:104C40001C920895CF93DF93CDB7DEB7CF54D1092F
:104C50000FB6F894DEBF0FBECDBF789484B58260E6
:104C600084BD84B5816084BD85B5826085BD85B510
:104C7000816085BD80916E00816080936E0010928E
:104C80008100809181008260809381008091810009
:104C9000816080938100809180008160809380009A
:104CA0008091910082608093910080919100816059
:104CB000809391008091900081608093900080911A
:104CC000C10084608093C1008091C10082608093A4
:104CD000C1008091C10081608093C1008091C300B8
:104CE00081608093C3008091C00082608093C00087
:104CF0008091C20081608093C20080917A008460BC
:104D000080937A0080917A00826080937A0080910B
:104D10007A008E7F80937A0080917A0080688093F9
:104D20007A0010925E07109242071092410780911C
:104D3000D70081608093D70080EA8093D80089B53E
:104D40008F7E89BD89B5826089BD09B400FEFDCF23
:104D500061E070E080E090E00E940D068091D80054
:104D60008F7C80618093D8008091E000807F809369
:104D7000E0008091E1008E7E8093E1008DE08093E1
:104D8000E2008FEF9FEF9093DB098093DA096EE8E2
:104D900076E08EEC99E00E94FA166BE676E08EECF7
:104DA00099E00E94FA1662E080E00E94AC0561E0A2
:104DB0008DE00E94AC0560E08DE00E94150561E089
:104DC00088E00E94AC0560E088E00E9415050E9422
:104DD000FF1403E010E0873A9E400CF4D0C06CE270
:104DE00071E083E090E00E94D21480914F0A882302
:104DF00021F08AE49AE00E94840E10922B0A10920D
:104E0000290A1092260A1092250A84E08093240A27
:104E10000E94C4068B0161E08091240A0E94AC05C7
:104E200061E08091240A0E941505FFB6F8948091F4
:104E30004307811127C0EAE8F3E08491E9EAF3E04F
:104E40009491E82FF0E0EE0FFF1FE35AFC4FA5917D
:104E5000B491EC91E92321F461E081E10E94150510
:104E600061E081E10E94AC058CB580618CBD8CB5A0
:104E700080648CBD61E08FE00E94AC0561E080E160
:104E80000E94AC05809143078F5F80934307FFBE6C
:104E900082E580931E0A81E080931F0A80911E0A9A
:104EA00090911F0A0E940607EAE0FE2E8FEF0E94F3
:104EB000E106FA94F110FACF80E29AE00E94090725
:104EC00020E030E0A90160E080E29AE00E941F0744
:104ED000F82E80932A0A31E0831709F468C00E94F3
:104EE000C406601B710B613D774050F381E08093F5
:104EF000250A80E29AE00E94D60661E088E00E94DE
:104F000015050BEC13E04CECE42E43E0F42E50E0DE
:104F1000C52E50E0D52E10931701009316018091F5
:104F200069008F7C80936900EA9A30E020E050E0CD
:104F300040E06AE070E080E597E00E947D14EA9826
:104F4000F0921701E092160160E081E00E946C137C
:104F500081E00E943B1360E081E00E9400130E9408
:104F6000FF148C3A9D400CF4A4C30E94FF1B0E94C6
:104F70002F15C114D10479F20E940000CCCF61E05A
:104F80008DE00E9415056CE271E080E090E00E94E7
:104F90000D0660E08DE00E9415056CE271E080E096
:104FA00090E00E940D060150110949F71ECF2AEA30
:104FB00031E040E050E068E080E29AE00E941F07A4
:104FC00082FF2AC0F0922B0A80912B0AC12CD12C8F
:104FD0007601823029F4C12CD12CE12C60E4F62E2C
:104FE00020E030E0A90167E380E29AE00E941F0719
:104FF000A701960169E280E29AE00E941F07809370
:105000002A0A8823D1F00E94C406601B710B613DFF
:10501000774030F388E06BCF74E0F72E0E94E8060B
:1050200080932A0AFA94F110F9CF8A3A11F082E0BB
:105030005ECF82E080932B0AC7CF80912B0A82300B
:10504000D1F420E030E0A9016AE380E29AE00E9416
:105050001F07882311F086E04ACF0E94E806807C73
:10506000803C19F483E080932B0A0E94E8060E949A
:10507000E8060E94E80680E29AE00E94D60680E5F3
:1050800080931E0A81E080931F0A0E9425098823CD
:1050900009F475C08AE49AE00E94DC0B882309F4C5
:1050A0002CCF64E175E080E090E00E940D061F8E39
:1050B0001E8E88EE93E0A0E0B0E088A399A3AAA397
:1050C000BBA38DE296E09D8F8C8F1EAA1DAA18A609
:1050D00041E06BEA76E0CE0101960E94F81A8B81DE
:1050E0009C819F8F8E8F8D819E81AF81B88588A393
:1050F00099A3AAA3BBA389859A85AB85BC858CA3FC
:105100009DA3AEA3BFA3DE011D96FE01B896CE01FE
:10511000C5962D912193E817F907D9F78A8D9B8DB4
:105120009EAB8DAB63E876E0CE01C7960E94E9188E
:1051300063E876E0CE0101960E94E91880911001A3
:10514000909111019093450780934407FF24F394B5
:10515000CE014C960E94A0108C01CE014C960115F8
:10516000110509F4AAC00E942312182F8F3271F47E
:10517000CE014C960E9423128A30D1F7E9CF80E00D
:105180000E942509882309F4B8CE84CF082E000C8C
:10519000990B0E94C632892B61F01DAF1EAE41E013
:1051A00050E0BE01635C7F4FCE01C7960E94B317EB
:1051B000CFCF1D3369F6CE014C960E942312182FD3
:1051C0008032C9F38BAD9CAD892B09F46EC068EBBE
:1051D00076E08FA998AD0E94FC32892B09F065C05A
:1051E00063E876E0CE0101960E9430181A30D1F0C3
:1051F000812F012E000C990BC0970A9788F41DAFE0
:105200001EAE41E050E0BE01635C7F4FCE010196CF
:105210000E94B317CE014C960E942312182FE6CF9E
:10522000F12CF8CFFF20C1F1EDB6FEB60D811E8145
:10523000C80101962DB73EB7281B390B0FB6F8945D
:105240003EBF0FBE2DBFEDB7FEB731966F01892B64
:1052500021F001151105B1F41082C6010E948B2BBB
:1052600090934507809344070FB6F894FEBE0FBE97
:10527000EDBEFF24F39463E876E0CE01C7960E946A
:10528000301866CF69817A81A801CF010E940C3362
:10529000F601E00FF11FE0CF809110019091110114
:1052A0009093450780934407E6CF1A3021F3CE014F
:1052B0004C960E942312182FF8CF0E9479178091E4
:1052C0004407909145079093110180931001CE01FE
:1052D00001960E947117CE01C7960E94711783E351
:1052E00094E190934F0780934E0761EC76E0CE01F6
:1052F000875B9F4F0E94E91869E87AE0CE0101962A
:105300000E94E0186BEC76E0CE0101960E94DF1758
:10531000BC01CE01875B9F4F0E940818CE01019609
:105320000E94711769E87AE0CE0101960E94E018A8
:1053300061ED76E0CE0101960E94DF17BC01CE013F
:10534000875B9F4F0E940818CE0101960E9471173B
:105350000E9486050E94860560E081E00E946C1331
:1053600081E00E943B1360E081E00E94001360E056
:1053700082E00E946C1382E00E943B1360E082E0B6
:105380000E94001388E60E94CF026EE089E69AE050
:105390000E94B1120E94CC0261E088E60E94D9020C
:1053A0000E941B02837EF82E88E60E94CF026EE0E8
:1053B00089E69AE00E94B1126F2D646089E69AE056
:1053C0000E94B1120E94CC020E942F153E01F3E40C
:1053D0006F0E711C63E876E0C3010E94E91863E870
:1053E00076E0CE01CD960E94E9188AE4882E87E007
:1053F000982E96E4A92E97E0B92E28E4E22EF12CFF
:10540000CC24C394D12C2224239460966FAE609751
:105410006E2C8E2D0E94CF020E94CC02811156C0AC
:105420008E2D0E94CF028FE090E00E94E0120E9439
:10543000CC0262E070E0C7010E946C028091CC094E
:105440009091CD09891B990B03970CF09EC00E9487
:105450001B02382E0E941B02532C412C9201282B38
:10546000C9019F708731914009F091C066E070E0FA
:10547000C7010E94E512F4012082B601CE014C96CC
:105480000E943A1869E87AE0CE0101960E94E0187D
:105490006BED76E0CE0101960E94DF17BE01645EDF
:1054A0007F4F0E94F517BC0160968FAD6097972DD6
:1054B0000E940818CE0101960E947117CE014C96E9
:1054C0000E9471170F5F1F4F33243394FFEFCF1AE1
:1054D000DF0A2FEFE21AF20A3FEF831A930A8FEFE7
:1054E000A81AB80AE5E0CE16D10409F091CFBE01A2
:1054F0006D5B7F4FCE0101960E94E018BE01635C98
:105500007F4FCE0101960E94F517BC01CE01875B4B
:105510009F4F0E940818CE0101960E947117CE017C
:1055200001960E940716882309F46DC067E0CE013A
:1055300001960E94C61498858913F1CF682FCE0179
:10554000C7960E94661869E87AE0CE014C960E94E0
:10555000E01863EE76E0CE014C960E94DF17BE01A4
:10556000695C7F4F0E94F517BC01CE01875B9F4F9E
:105570000E940818CE014C960E947117CE01C79662
:105580000E9471170F5F1F4FCACF31106FCFF50107
:105590002082B601CE014C960E943A1869E87AE062
:1055A000CE0101960E94E0186FED76E0CE010196E3
:1055B0000E94DF17BE01645E7F4F0E94F517BC0199
:1055C000CE01CD960E940818CE0101960E94711757
:1055D000CE014C960E9471170F5F1F4F6AE070E07A
:1055E00080E090E00E940D06862D0E94CF0283E0AD
:1055F00090E00E94E01280EE90E00E94E0120E9493
:10560000CC02312C63CF1092800A1092820A109241
:10561000810A10927F0A10927E0A10927D0A1092DF
:105620007C0A10927B0A10927A0A1092790A1092E0
:10563000780A6AEF70E080E090E00E940D066CEB63
:1056400072E0C8010E94D21447E166E776E0CE011D
:1056500001960E94F81AEA8DFB8D309771F08581D2
:10566000882359F0BE01675B7F4FCE0101960E94EF
:105670000917CE0101960E947917BE01675B7F4F23
:105680008EEC99E00E9409176AEF70E080E090E0EC
:105690000E940D06CE01CD960E947117CE018D5B42
:1056A0009F4F0E947117CE01875B9F4F0E94711719
:1056B00028CCF89430E020E050E040E06AE070E070
:1056C00080E597E00E947D1452CC83E89AE00E9426
:1056D000711789E89AE00C947117EF920F931F935A
:1056E000CF93DF93E80134E047FD34E1042E000C52
:1056F000550B57FF03C0519541955109E32E022FD9
:10570000242FAE010E94D62BCE01DF91CF911F91A5
:105710000F91EF900895FC0188279927E894219133
:105720002032E9F3293010F02E30C8F32B3241F04B
:105730002D3239F4689404C00E94B42B820F911D5D
:10574000219120532A30C0F31EF4909581959F4FEC
:105750000895BB274A3031F4992322F4BDE2909595
:1057600081959F4F0C94BD2B7AE0979F902D879F3A
:10577000802D910D11240895BB27FB015527AA27E1
:10578000880F991FAA1FA41710F0A41B83955051CE
:10579000B9F7A05DAA3308F0A95DA193009779F746
:1057A000B111B1931192CB010C940D2EA9E0B0E090
:1057B000ECEDFBE20C94502F6A01F22EB02E102F6C
:1057C000FBE3AF2EA01608F41BE31F5F012F27E0B9
:1057D000AE014F5F5F4F0E94352DBC018981982F2C
:1057E0009970913009F43FC09BE2E1FC04C09E2D0A
:1057F0009170E0FC3AC05E2D5071E82FE87083FF95
:1058000046C084E0911101C083E0EF2DE81B8F15A5
:1058100008F0E0E0D6018E2F20E2552351F19923C4
:1058200029F0D6019C93C60101966C0196012D5F6B
:105830003F4FE2FE24C08EE4D6018C9391E4119692
:105840009C93119712968C93D9018E2F90E281111F
:105850001BC0E20FF32FF11D10828EEF9FEF2996F0
:10586000ECE00C946C2F9DE2C6CF90E2C4CF2D9358
:1058700081508111FCCFCE0ED11CE0E0D0CF8EE65E
:10588000D6018C9391E6DBCF9D938150E0CF482FDA
:10589000447082FF3DC084E0911101C083E08F1508
:1058A00010F4EF2DE81BD6018E2F20E2552309F1CD
:1058B000992329F0D6019C93C60101966C019601AB
:1058C0002D5F3F4FE2FE1BC089E4D6018C938EE42E
:1058D00011968C93119786E412968C93D9018E2F92
:1058E00090E2882309F4B5CF9D938150FACF2D9390
:1058F00081508111FCCFCE0ED11CE0E0D9CF89E6DA
:10590000D6018C938EE611968C93119786E6E4CFA0
:105910009B0177FF02C030E020E0A1E0B0E09111F0
:1059200002C0B0E0A0E0F9013196AE0FBF1F8B2C92
:10593000912CBB2009F461C05401EFEFAE1ABE0AEE
:10594000AA0DBB1DFA161B0619F014F04F2D4A1BA9
:10595000511188C0E3FC59C07601A42FB0E2A11117
:105960004FC0C40ED11C992309F45BC040E0D6019E
:105970001196F60190836D01552309F448C0012F5B
:10598000060F9A81582F507184FF03C0913309F498
:10599000015010160CF047C0093008F008E0EEE2A4
:1059A000FE2E5B01A01AB1088501919481949108A3
:1059B0002F3F320729F4D601FC92F60131966F0190
:1059C0006217730794F1021713077CF5DB01A21B22
:1059D000B30BAA24A394B12CAC0EBD1EAA0DBB1D03
:1059E00011968C9121503109D6011196281539054F
:1059F000F4F0F60180836D01DBCFB12CA12CA0CF98
:105A0000F701B1937F01A150AACF9111B0CFD60178
:105A1000942F50E302C05D9391509111FCCFC40EBE
:105A2000D11C40E0ACCF01E0BACF80E3DBCF6217FE
:105A3000730731F4963388F4953311F4552369F0E4
:105A4000F6018083FD01842F90E2811108C0A40F2C
:105A5000B11D1C9290E080E002CF81E3F1CF9193E1
:105A60008150F3CF911183CF8ACF283008F027E0FF
:105A70003327DA01990F311D87FD9160009661058A
:105A8000710539F432602E5F3D9330E32A95E1F7DA
:105A900008959F3F30F080387105610509F03C5F43
:105AA0003C5F3D93913008F08068911DDF93CF9368
:105AB0001F930F93FF92EF92192F987F9695E92FDE
:105AC00096959695E90FFF27EA5FFE4F99273327B2
:105AD000EE24FF24A701E70105900894079428F419
